{
  "contractName": "IICO",
  "abi": [
    {
      "constant": true,
      "inputs": [],
      "name": "tokensForSale",
      "outputs": [
        {
          "name": "",
          "type": "uint256"
        }
      ],
      "payable": false,
      "stateMutability": "view",
      "type": "function"
    },
    {
      "constant": true,
      "inputs": [],
      "name": "sumAcceptedVirtualContrib",
      "outputs": [
        {
          "name": "",
          "type": "uint256"
        }
      ],
      "payable": false,
      "stateMutability": "view",
      "type": "function"
    },
    {
      "constant": true,
      "inputs": [],
      "name": "cutOffBidID",
      "outputs": [
        {
          "name": "",
          "type": "uint256"
        }
      ],
      "payable": false,
      "stateMutability": "view",
      "type": "function"
    },
    {
      "constant": true,
      "inputs": [
        {
          "name": "",
          "type": "address"
        },
        {
          "name": "",
          "type": "uint256"
        }
      ],
      "name": "contributorBidIDs",
      "outputs": [
        {
          "name": "",
          "type": "uint256"
        }
      ],
      "payable": false,
      "stateMutability": "view",
      "type": "function"
    },
    {
      "constant": true,
      "inputs": [],
      "name": "currentValuation",
      "outputs": [
        {
          "name": "",
          "type": "uint256"
        }
      ],
      "payable": false,
      "stateMutability": "view",
      "type": "function"
    },
    {
      "constant": true,
      "inputs": [],
      "name": "endTime",
      "outputs": [
        {
          "name": "",
          "type": "uint256"
        }
      ],
      "payable": false,
      "stateMutability": "view",
      "type": "function"
    },
    {
      "constant": true,
      "inputs": [],
      "name": "withdrawalLockTime",
      "outputs": [
        {
          "name": "",
          "type": "uint256"
        }
      ],
      "payable": false,
      "stateMutability": "view",
      "type": "function"
    },
    {
      "constant": true,
      "inputs": [],
      "name": "beneficiary",
      "outputs": [
        {
          "name": "",
          "type": "address"
        }
      ],
      "payable": false,
      "stateMutability": "view",
      "type": "function"
    },
    {
      "constant": true,
      "inputs": [
        {
          "name": "",
          "type": "uint256"
        }
      ],
      "name": "bids",
      "outputs": [
        {
          "name": "maxValuation",
          "type": "uint256"
        },
        {
          "name": "personalMin",
          "type": "uint256"
        },
        {
          "name": "contrib",
          "type": "uint256"
        },
        {
          "name": "bonus",
          "type": "uint256"
        },
        {
          "name": "contributor",
          "type": "address"
        },
        {
          "name": "withdrawn",
          "type": "bool"
        },
        {
          "name": "redeemed",
          "type": "bool"
        },
        {
          "name": "minBucketID",
          "type": "uint256"
        },
        {
          "name": "maxBucketID",
          "type": "uint256"
        }
      ],
      "payable": false,
      "stateMutability": "view",
      "type": "function"
    },
    {
      "constant": true,
      "inputs": [],
      "name": "maxBonus",
      "outputs": [
        {
          "name": "",
          "type": "uint256"
        }
      ],
      "payable": false,
      "stateMutability": "view",
      "type": "function"
    },
    {
      "constant": true,
      "inputs": [],
      "name": "lastBidID",
      "outputs": [
        {
          "name": "",
          "type": "uint256"
        }
      ],
      "payable": false,
      "stateMutability": "view",
      "type": "function"
    },
    {
      "constant": true,
      "inputs": [],
      "name": "startTime",
      "outputs": [
        {
          "name": "",
          "type": "uint256"
        }
      ],
      "payable": false,
      "stateMutability": "view",
      "type": "function"
    },
    {
      "constant": true,
      "inputs": [],
      "name": "owner",
      "outputs": [
        {
          "name": "",
          "type": "address"
        }
      ],
      "payable": false,
      "stateMutability": "view",
      "type": "function"
    },
    {
      "constant": true,
      "inputs": [
        {
          "name": "",
          "type": "uint256"
        }
      ],
      "name": "buckets",
      "outputs": [
        {
          "name": "valuation",
          "type": "uint256"
        },
        {
          "name": "creator",
          "type": "address"
        }
      ],
      "payable": false,
      "stateMutability": "view",
      "type": "function"
    },
    {
      "constant": true,
      "inputs": [],
      "name": "maxValuation",
      "outputs": [
        {
          "name": "",
          "type": "uint256"
        }
      ],
      "payable": false,
      "stateMutability": "view",
      "type": "function"
    },
    {
      "constant": true,
      "inputs": [],
      "name": "minValuation",
      "outputs": [
        {
          "name": "",
          "type": "uint256"
        }
      ],
      "payable": false,
      "stateMutability": "view",
      "type": "function"
    },
    {
      "constant": true,
      "inputs": [],
      "name": "finalized",
      "outputs": [
        {
          "name": "",
          "type": "bool"
        }
      ],
      "payable": false,
      "stateMutability": "view",
      "type": "function"
    },
    {
      "constant": true,
      "inputs": [],
      "name": "numBuckets",
      "outputs": [
        {
          "name": "",
          "type": "uint256"
        }
      ],
      "payable": false,
      "stateMutability": "view",
      "type": "function"
    },
    {
      "constant": true,
      "inputs": [],
      "name": "increment",
      "outputs": [
        {
          "name": "",
          "type": "uint256"
        }
      ],
      "payable": false,
      "stateMutability": "view",
      "type": "function"
    },
    {
      "constant": true,
      "inputs": [],
      "name": "sumAcceptedContrib",
      "outputs": [
        {
          "name": "",
          "type": "uint256"
        }
      ],
      "payable": false,
      "stateMutability": "view",
      "type": "function"
    },
    {
      "constant": true,
      "inputs": [],
      "name": "endFullBonusTime",
      "outputs": [
        {
          "name": "",
          "type": "uint256"
        }
      ],
      "payable": false,
      "stateMutability": "view",
      "type": "function"
    },
    {
      "constant": true,
      "inputs": [],
      "name": "token",
      "outputs": [
        {
          "name": "",
          "type": "address"
        }
      ],
      "payable": false,
      "stateMutability": "view",
      "type": "function"
    },
    {
      "inputs": [
        {
          "name": "_startTime",
          "type": "uint256"
        },
        {
          "name": "_fullBonusLength",
          "type": "uint256"
        },
        {
          "name": "_partialWithdrawalLength",
          "type": "uint256"
        },
        {
          "name": "_withdrawalLockUpLength",
          "type": "uint256"
        },
        {
          "name": "_maxBonus",
          "type": "uint256"
        },
        {
          "name": "_beneficiary",
          "type": "address"
        },
        {
          "name": "_minValuation",
          "type": "uint256"
        },
        {
          "name": "_maxValuation",
          "type": "uint256"
        },
        {
          "name": "_increment",
          "type": "uint256"
        }
      ],
      "payable": false,
      "stateMutability": "nonpayable",
      "type": "constructor"
    },
    {
      "payable": true,
      "stateMutability": "payable",
      "type": "fallback"
    },
    {
      "anonymous": false,
      "inputs": [
        {
          "indexed": true,
          "name": "contributor",
          "type": "address"
        },
        {
          "indexed": true,
          "name": "bidID",
          "type": "uint256"
        },
        {
          "indexed": true,
          "name": "time",
          "type": "uint256"
        }
      ],
      "name": "BidSubmitted",
      "type": "event"
    },
    {
      "anonymous": false,
      "inputs": [
        {
          "indexed": true,
          "name": "poker",
          "type": "address"
        },
        {
          "indexed": true,
          "name": "bucketID",
          "type": "uint256"
        }
      ],
      "name": "Poked",
      "type": "event"
    },
    {
      "constant": false,
      "inputs": [
        {
          "name": "_token",
          "type": "address"
        }
      ],
      "name": "setToken",
      "outputs": [],
      "payable": false,
      "stateMutability": "nonpayable",
      "type": "function"
    },
    {
      "constant": false,
      "inputs": [
        {
          "name": "_maxCap",
          "type": "uint256"
        },
        {
          "name": "_personalMin",
          "type": "uint256"
        }
      ],
      "name": "submitBid",
      "outputs": [],
      "payable": true,
      "stateMutability": "payable",
      "type": "function"
    },
    {
      "constant": false,
      "inputs": [
        {
          "name": "_bidID",
          "type": "uint256"
        }
      ],
      "name": "withdraw",
      "outputs": [],
      "payable": false,
      "stateMutability": "nonpayable",
      "type": "function"
    },
    {
      "constant": false,
      "inputs": [
        {
          "name": "_bidID",
          "type": "uint256"
        }
      ],
      "name": "redeem",
      "outputs": [],
      "payable": false,
      "stateMutability": "nonpayable",
      "type": "function"
    },
    {
      "constant": false,
      "inputs": [
        {
          "name": "_bucketID",
          "type": "uint256"
        }
      ],
      "name": "poke",
      "outputs": [],
      "payable": false,
      "stateMutability": "nonpayable",
      "type": "function"
    },
    {
      "constant": true,
      "inputs": [],
      "name": "bonus",
      "outputs": [
        {
          "name": "b",
          "type": "uint256"
        }
      ],
      "payable": false,
      "stateMutability": "view",
      "type": "function"
    },
    {
      "constant": true,
      "inputs": [
        {
          "name": "_contributor",
          "type": "address"
        }
      ],
      "name": "totalContrib",
      "outputs": [
        {
          "name": "contribution",
          "type": "uint256"
        }
      ],
      "payable": false,
      "stateMutability": "view",
      "type": "function"
    },
    {
      "constant": true,
      "inputs": [
        {
          "name": "_bucketid",
          "type": "uint256"
        }
      ],
      "name": "bucketMinBids",
      "outputs": [
        {
          "name": "minBids",
          "type": "uint256[]"
        }
      ],
      "payable": false,
      "stateMutability": "view",
      "type": "function"
    },
    {
      "constant": true,
      "inputs": [
        {
          "name": "_bucketid",
          "type": "uint256"
        }
      ],
      "name": "bucketMaxBids",
      "outputs": [
        {
          "name": "maxBids",
          "type": "uint256[]"
        }
      ],
      "payable": false,
      "stateMutability": "view",
      "type": "function"
    }
  ],
  "bytecode": "0x6080604052600060055560006006557fffffffffffffffffffffffffffffffffffffffffffffffffffffffffffffffff6013553480156200003f57600080fd5b50604051610120806200229c833981018060405281019080805190602001909291908051906020019092919080519060200190929190805190602001909291908051906020019092919080519060200190929190805190602001909291908051906020019092919080519060200190929190505050336000806101000a81548173ffffffffffffffffffffffffffffffffffffffff021916908373ffffffffffffffffffffffffffffffffffffffff16021790555088600781905550876007540160088190555086600854016009819055508560095401600a8190555084600d8190555083600160006101000a81548173ffffffffffffffffffffffffffffffffffffffff021916908373ffffffffffffffffffffffffffffffffffffffff16021790555081600f8190555082600e81905550806010819055506001601054600e54600f54038115156200018f57fe5b0401601181905550608060405190810160405280600e5481526020013373ffffffffffffffffffffffffffffffffffffffff1681526020016000604051908082528060200260200182016040528015620001f85781602001602082028038833980820191505090505b50815260200160006040519080825280602002602001820160405280156200022f5781602001602082028038833980820191505090505b50815250600360008081526020019081526020016000206000820151816000015560208201518160010160006101000a81548173ffffffffffffffffffffffffffffffffffffffff021916908373ffffffffffffffffffffffffffffffffffffffff1602179055506040820151816002019080519060200190620002b59291906200042d565b506060820151816003019080519060200190620002d49291906200042d565b50905050608060405190810160405280600f5481526020013373ffffffffffffffffffffffffffffffffffffffff1681526020016000604051908082528060200260200182016040528015620003395781602001602082028038833980820191505090505b5081526020016000604051908082528060200260200182016040528015620003705781602001602082028038833980820191505090505b508152506003600060016011540381526020019081526020016000206000820151816000015560208201518160010160006101000a81548173ffffffffffffffffffffffffffffffffffffffff021916908373ffffffffffffffffffffffffffffffffffffffff1602179055506040820151816002019080519060200190620003fb9291906200042d565b5060608201518160030190805190602001906200041a9291906200042d565b50905050505050505050505050620004a7565b8280548282559060005260206000209081019282156200046c579160200282015b828111156200046b5782518255916020019190600101906200044e565b5b5090506200047b91906200047f565b5090565b620004a491905b80821115620004a057600081600090555060010162000486565b5090565b90565b611de580620004b76000396000f30060806040526004361061018b576000357c0100000000000000000000000000000000000000000000000000000000900463ffffffff16806312aef8c314610369578063144fa6d714610394578063152713b3146103d75780631ae9fe6a146104025780631def6bad1461042d57806325c3adff1461048e5780632e1a7d4d146104b95780633197cbb6146104e657806332145f901461051157806334f732e81461053e57806338af3eed146105695780634423c5f1146105c057806354c5b6961461066d57806357f196fa146106985780635e7c85b1146106c357806372a2fee01461071a57806375b4d78c1461079c57806378e97925146107c75780638da5cb5b146107f25780639b51fb0d14610849578063a79fb0c2146108bd578063aac16603146108e8578063b3f05b9714610913578063b821da1b14610942578063bfdcc9a21461096c578063d09de08a14610997578063db006a75146109c2578063dc382cbf146109ef578063ea9ad4a514610a1a578063f0d6cc7014610a9c578063fc0c546a14610ac7575b600080341415801561019f57506007544210155b80156101ac5750600a5442105b15610200576101fb7ffffffffffffffffffffffffffffffffffffffffffffffffffffffffffffffffe7fffffffffffffffffffffffffffffffffffffffffffffffffffffffffffffffff610b1e565b610366565b60003414801561021c5750601260009054906101000a900460ff165b1561036057600090505b600460003373ffffffffffffffffffffffffffffffffffffffff1673ffffffffffffffffffffffffffffffffffffffff1681526020019081526020016000208054905081101561035b5760026000600460003373ffffffffffffffffffffffffffffffffffffffff1673ffffffffffffffffffffffffffffffffffffffff168152602001908152602001600020838154811015156102c057fe5b9060005260206000200154815260200190815260200160002060040160159054906101000a900460ff1615156103505761034f600460003373ffffffffffffffffffffffffffffffffffffffff1673ffffffffffffffffffffffffffffffffffffffff1681526020019081526020016000208281548110151561033f57fe5b90600052602060002001546111bc565b5b806001019050610226565b610365565b600080fd5b5b50005b34801561037557600080fd5b5061037e61144a565b6040518082815260200191505060405180910390f35b3480156103a057600080fd5b506103d5600480360381019080803573ffffffffffffffffffffffffffffffffffffffff169060200190929190505050611450565b005b3480156103e357600080fd5b506103ec61164a565b6040518082815260200191505060405180910390f35b34801561040e57600080fd5b50610417611650565b6040518082815260200191505060405180910390f35b34801561043957600080fd5b50610478600480360381019080803573ffffffffffffffffffffffffffffffffffffffff16906020019092919080359060200190929190505050611656565b6040518082815260200191505060405180910390f35b34801561049a57600080fd5b506104a3611686565b6040518082815260200191505060405180910390f35b3480156104c557600080fd5b506104e46004803603810190808035906020019092919050505061168c565b005b3480156104f257600080fd5b506104fb611819565b6040518082815260200191505060405180910390f35b34801561051d57600080fd5b5061053c6004803603810190808035906020019092919050505061181f565b005b34801561054a57600080fd5b50610553611866565b6040518082815260200191505060405180910390f35b34801561057557600080fd5b5061057e61186c565b604051808273ffffffffffffffffffffffffffffffffffffffff1673ffffffffffffffffffffffffffffffffffffffff16815260200191505060405180910390f35b3480156105cc57600080fd5b506105eb60048036038101908080359060200190929190505050611892565b604051808a81526020018981526020018881526020018781526020018673ffffffffffffffffffffffffffffffffffffffff1673ffffffffffffffffffffffffffffffffffffffff1681526020018515151515815260200184151515158152602001838152602001828152602001995050505050505050505060405180910390f35b34801561067957600080fd5b5061068261191a565b6040518082815260200191505060405180910390f35b3480156106a457600080fd5b506106ad611920565b6040518082815260200191505060405180910390f35b3480156106cf57600080fd5b50610704600480360381019080803573ffffffffffffffffffffffffffffffffffffffff169060200190929190505050611926565b6040518082815260200191505060405180910390f35b34801561072657600080fd5b50610745600480360381019080803590602001909291905050506119fa565b6040518080602001828103825283818151815260200191508051906020019060200280838360005b8381101561078857808201518184015260208101905061076d565b505050509050019250505060405180910390f35b3480156107a857600080fd5b506107b1611b16565b6040518082815260200191505060405180910390f35b3480156107d357600080fd5b506107dc611b5f565b6040518082815260200191505060405180910390f35b3480156107fe57600080fd5b50610807611b65565b604051808273ffffffffffffffffffffffffffffffffffffffff1673ffffffffffffffffffffffffffffffffffffffff16815260200191505060405180910390f35b34801561085557600080fd5b5061087460048036038101908080359060200190929190505050611b8a565b604051808381526020018273ffffffffffffffffffffffffffffffffffffffff1673ffffffffffffffffffffffffffffffffffffffff1681526020019250505060405180910390f35b3480156108c957600080fd5b506108d2611bce565b6040518082815260200191505060405180910390f35b3480156108f457600080fd5b506108fd611bd4565b6040518082815260200191505060405180910390f35b34801561091f57600080fd5b50610928611bda565b604051808215151515815260200191505060405180910390f35b61096a6004803603810190808035906020019092919080359060200190929190505050610b1e565b005b34801561097857600080fd5b50610981611bed565b6040518082815260200191505060405180910390f35b3480156109a357600080fd5b506109ac611bf3565b6040518082815260200191505060405180910390f35b3480156109ce57600080fd5b506109ed600480360381019080803590602001909291905050506111bc565b005b3480156109fb57600080fd5b50610a04611bf9565b6040518082815260200191505060405180910390f35b348015610a2657600080fd5b50610a4560048036038101908080359060200190929190505050611bff565b6040518080602001828103825283818151815260200191508051906020019060200280838360005b83811015610a88578082015181840152602081019050610a6d565b505050509050019250505060405180910390f35b348015610aa857600080fd5b50610ab1611d1b565b6040518082815260200191505060405180910390f35b348015610ad357600080fd5b50610adc611d21565b604051808273ffffffffffffffffffffffffffffffffffffffff1673ffffffffffffffffffffffffffffffffffffffff16815260200191505060405180910390f35b60008060006007544210158015610b365750600a5442105b1515610b4157600080fd5b600e548510158015610b5257508385115b1515610b5d57600080fd5b6000601054600e548703811515610b7057fe5b06141515610b7d57600080fd5b6000601054600e548603811515610b9057fe5b06141515610b9d57600080fd5b601054600e548503811515610bae57fe5b049250601054600e548603811515610bc257fe5b049150600073ffffffffffffffffffffffffffffffffffffffff166003600085815260200190815260200160002060010160009054906101000a900473ffffffffffffffffffffffffffffffffffffffff1673ffffffffffffffffffffffffffffffffffffffff161415610d6a576080604051908101604052808581526020013373ffffffffffffffffffffffffffffffffffffffff1681526020016000604051908082528060200260200182016040528015610c8e5781602001602082028038833980820191505090505b5081526020016000604051908082528060200260200182016040528015610cc45781602001602082028038833980820191505090505b50815250600360008581526020019081526020016000206000820151816000015560208201518160010160006101000a81548173ffffffffffffffffffffffffffffffffffffffff021916908373ffffffffffffffffffffffffffffffffffffffff1602179055506040820151816002019080519060200190610d48929190611d47565b506060820151816003019080519060200190610d65929190611d47565b509050505b600073ffffffffffffffffffffffffffffffffffffffff166003600084815260200190815260200160002060010160009054906101000a900473ffffffffffffffffffffffffffffffffffffffff1673ffffffffffffffffffffffffffffffffffffffff161415610f0f576080604051908101604052808681526020013373ffffffffffffffffffffffffffffffffffffffff1681526020016000604051908082528060200260200182016040528015610e335781602001602082028038833980820191505090505b5081526020016000604051908082528060200260200182016040528015610e695781602001602082028038833980820191505090505b50815250600360008481526020019081526020016000206000820151816000015560208201518160010160006101000a81548173ffffffffffffffffffffffffffffffffffffffff021916908373ffffffffffffffffffffffffffffffffffffffff1602179055506040820151816002019080519060200190610eed929190611d47565b506060820151816003019080519060200190610f0a929190611d47565b509050505b6003600083815260200190815260200160002090506005600081546001019190508190555061012060405190810160405280868152602001858152602001348152602001610f5b611b16565b81526020013373ffffffffffffffffffffffffffffffffffffffff168152602001600015158152602001600015158152602001848152602001838152506002600060055481526020019081526020016000206000820151816000015560208201518160010155604082015181600201556060820151816003015560808201518160040160006101000a81548173ffffffffffffffffffffffffffffffffffffffff021916908373ffffffffffffffffffffffffffffffffffffffff16021790555060a08201518160040160146101000a81548160ff02191690831515021790555060c08201518160040160156101000a81548160ff02191690831515021790555060e0820151816005015561010082015181600601559050503460065401600681905550600360008381526020019081526020016000206002016005549080600181540180825580915050906001820390600052602060002001600090919290919091505550600360008481526020019081526020016000206003016005549080600181540180825580915050906001820390600052602060002001600090919290919091505550600460003373ffffffffffffffffffffffffffffffffffffffff1673ffffffffffffffffffffffffffffffffffffffff1681526020019081526020016000206005549080600181540180825580915050906001820390600052602060002001600090919290919091505550426005543373ffffffffffffffffffffffffffffffffffffffff167f84bee513033536a8de8a8260e2674a4a3eebd61ddce74615fdeca8a1499f5efe60405160405180910390a45050505050565b6000806002600084815260200190815260200160002091506002600060135481526020019081526020016000209050601260009054906101000a900460ff16151561120657600080fd5b8160040160159054906101000a900460ff1615151561122457600080fd5b60018260040160156101000a81548160ff02191690831515021790555080600001548260000154118061126c57508060000154826000015414801561126b57506013548310155b5b156113d557600b60009054906101000a900473ffffffffffffffffffffffffffffffffffffffff1673ffffffffffffffffffffffffffffffffffffffff1663a9059cbb8360040160009054906101000a900473ffffffffffffffffffffffffffffffffffffffff16601554633b9aca0086600301548760020154028115156112f057fe5b04866002015401600c540281151561130457fe5b046040518363ffffffff167c0100000000000000000000000000000000000000000000000000000000028152600401808373ffffffffffffffffffffffffffffffffffffffff1673ffffffffffffffffffffffffffffffffffffffff16815260200182815260200192505050602060405180830381600087803b15801561138a57600080fd5b505af115801561139e573d6000803e3d6000fd5b505050506040513d60208110156113b457600080fd5b810190808051906020019092919050505015156113d057600080fd5b611445565b8160040160009054906101000a900473ffffffffffffffffffffffffffffffffffffffff1673ffffffffffffffffffffffffffffffffffffffff166108fc83600201549081150290604051600060405180830381858888f19350505050158015611443573d6000803e3d6000fd5b505b505050565b600c5481565b3373ffffffffffffffffffffffffffffffffffffffff166000809054906101000a900473ffffffffffffffffffffffffffffffffffffffff1673ffffffffffffffffffffffffffffffffffffffff161415156114ab57600080fd5b600073ffffffffffffffffffffffffffffffffffffffff16600b60009054906101000a900473ffffffffffffffffffffffffffffffffffffffff1673ffffffffffffffffffffffffffffffffffffffff1614151561150857600080fd5b80600b60006101000a81548173ffffffffffffffffffffffffffffffffffffffff021916908373ffffffffffffffffffffffffffffffffffffffff160217905550600b60009054906101000a900473ffffffffffffffffffffffffffffffffffffffff1673ffffffffffffffffffffffffffffffffffffffff166370a08231306040518263ffffffff167c0100000000000000000000000000000000000000000000000000000000028152600401808273ffffffffffffffffffffffffffffffffffffffff1673ffffffffffffffffffffffffffffffffffffffff168152602001915050602060405180830381600087803b15801561160657600080fd5b505af115801561161a573d6000803e3d6000fd5b505050506040513d602081101561163057600080fd5b8101908080519060200190929190505050600c8190555050565b60155481565b60135481565b60046020528160005260406000208181548110151561167157fe5b90600052602060002001600091509150505481565b60065481565b6000806002600084815260200190815260200160002091508160040160009054906101000a900473ffffffffffffffffffffffffffffffffffffffff1673ffffffffffffffffffffffffffffffffffffffff163373ffffffffffffffffffffffffffffffffffffffff1614151561170257600080fd5b6009544210151561171257600080fd5b8160040160149054906101000a900460ff1615151561173057600080fd5b60018260040160146101000a81548160ff02191690831515021790555060085442106117775760085460095403426009540383600201540281151561177157fe5b0461177d565b81600201545b90508160020154811115151561178f57fe5b808260020160008282540392505081905550600360028360030154028115156117b457fe5b048260030181905550806006600082825403925050819055503373ffffffffffffffffffffffffffffffffffffffff166108fc829081150290604051600060405180830381858888f19350505050158015611813573d6000803e3d6000fd5b50505050565b600a5481565b803373ffffffffffffffffffffffffffffffffffffffff167f4889d7d38c1d1f265318505a98367d07d41591d6b7f9cc000f37ea92b8311daa60405160405180910390a350565b60095481565b600160009054906101000a900473ffffffffffffffffffffffffffffffffffffffff1681565b60026020528060005260406000206000915090508060000154908060010154908060020154908060030154908060040160009054906101000a900473ffffffffffffffffffffffffffffffffffffffff16908060040160149054906101000a900460ff16908060040160159054906101000a900460ff16908060050154908060060154905089565b600d5481565b60055481565b600080600090505b600460008473ffffffffffffffffffffffffffffffffffffffff1673ffffffffffffffffffffffffffffffffffffffff168152602001908152602001600020805490508110156119f45760026000600460008673ffffffffffffffffffffffffffffffffffffffff1673ffffffffffffffffffffffffffffffffffffffff168152602001908152602001600020838154811015156119c857fe5b90600052602060002001548152602001908152602001600020600201548201915080600101905061192e565b50919050565b6060600080600360008581526020019081526020016000209150600073ffffffffffffffffffffffffffffffffffffffff168260010160009054906101000a900473ffffffffffffffffffffffffffffffffffffffff1673ffffffffffffffffffffffffffffffffffffffff161415611a7557829250611b0f565b8160020180549050604051908082528060200260200182016040528015611aab5781602001602082028038833980820191505090505b50925060009050600090505b8160020180549050811015611b0b578160020181815481101515611ad757fe5b90600052602060002001548382815181101515611af057fe5b90602001906020020181815250508080600101915050611ab7565b8292505b5050919050565b6000600854421015611b2c57600d549050611b5c565b600a54421115611b3f5760009050611b5c565b600854600a540342600a5403600d5402811515611b5857fe5b0490505b90565b60075481565b6000809054906101000a900473ffffffffffffffffffffffffffffffffffffffff1681565b60036020528060005260406000206000915090508060000154908060010160009054906101000a900473ffffffffffffffffffffffffffffffffffffffff16905082565b600f5481565b600e5481565b601260009054906101000a900460ff1681565b60115481565b60105481565b60145481565b6060600080600360008581526020019081526020016000209150600073ffffffffffffffffffffffffffffffffffffffff168260010160009054906101000a900473ffffffffffffffffffffffffffffffffffffffff1673ffffffffffffffffffffffffffffffffffffffff161415611c7a57829250611d14565b8160030180549050604051908082528060200260200182016040528015611cb05781602001602082028038833980820191505090505b50925060009050600090505b8160030180549050811015611d10578160030181815481101515611cdc57fe5b90600052602060002001548382815181101515611cf557fe5b90602001906020020181815250508080600101915050611cbc565b8292505b5050919050565b60085481565b600b60009054906101000a900473ffffffffffffffffffffffffffffffffffffffff1681565b828054828255906000526020600020908101928215611d83579160200282015b82811115611d82578251825591602001919060010190611d67565b5b509050611d909190611d94565b5090565b611db691905b80821115611db2576000816000905550600101611d9a565b5090565b905600a165627a7a723058204f2e2146b98c49485ae8899b7a3b74dbae8294e9fcfb3ac49822bd263c3248380029",
  "source": "/** @title Interactive Coin Offering\n *  @author Clment Lesaege - <clement@lesaege.com>\n *  This smart contract has undertaken two audits and two bounty programs. However, keep in mind that smart contracts still rely on experimental technology.\n */\n\npragma solidity ^0.4.23;\n\nimport \"openzeppelin-solidity/contracts/token/ERC20/ERC20.sol\";\n\n/** @title Interactive Coin Offering\n *  This contract implements the Interactive Coin Offering token sale as described in this paper:\n *  https://people.cs.uchicago.edu/~teutsch/papers/ico.pdf\n *  Implementation details and modifications compared to the paper:\n *  -A fixed amount of tokens is sold. This allows more flexibility for the distribution of the remaining tokens (rounds, team tokens which can be preallocated, non-initial sell of some cryptographic assets).\n *  -The valuation pointer is only moved when the sale is over. This greatly reduces the amount of write operations and code complexity. However, at least one party must make one or multiple calls to finalize the sale.\n *  -Buckets are not used as they are not required and increase code complexity.\n *  -The bid submitter must provide the insertion spot. A search of the insertion spot is still done in the contract just in case the one provided was wrong or other bids were added between when the TX got signed and executed, but giving the search starting point greatly lowers gas consumption.\n *  -Automatic withdrawals are only possible at the end of the sale. This decreases code complexity and possible interactions between different parts of the code.\n *  -We put a full bonus, free withdrawal period at the beginning. This allows everyone to have a chance to place bids with full bonus and avoids clogging the network just after the sale starts. Note that at this moment, no information can be taken for granted as parties can withdraw freely.\n *  -Calling the fallback function while sending ETH places a bid with an infinite maximum valuation. This allows buyers who want to buy no matter the price not need to use a specific interface and just send ETH. Without ETH, a call to the fallback function redeems the bids of the caller.\n */\ncontract IICO {\n\n    /* *** General *** */\n    address public owner;       // The one setting up the contract.\n    address public beneficiary; // The address which will get the funds.\n\n    /* *** Bid *** */\n    uint constant HEAD = 0;            // Minimum value used for both the maxValuation and bidID of the head of the linked list.\n    uint constant TAIL = uint(-1);     // Maximum value used for both the maxValuation and bidID of the tail of the linked list.\n    uint constant INFINITY = uint(-2); // A value so high that a bid using it is guaranteed to succeed. Still lower than TAIL to be placed before TAIL.\n    // A bid to buy tokens as long as the personal maximum valuation is not exceeded.\n    // Bids are in a sorted doubly linked list.\n    // They are sorted in ascending order by (maxValuation,bidID) where bidID is the ID and key of the bid in the mapping.\n    // The list contains two artificial bids HEAD and TAIL having respectively the minimum and maximum bidID and maxValuation.\n    struct Bid {\n        /* ***     Bid Members     *** */\n        uint maxValuation;    // Maximum valuation in wei beyond which the contributor prefers refund.\n        uint personalMin;\n        uint contrib;         // Contribution in wei.\n        uint bonus;           // The numerator of the bonus that will be divided by BONUS_DIVISOR.\n        address contributor;  // The contributor who placed the bid.\n        bool withdrawn;       // True if the bid has been withdrawn.\n        bool redeemed;        // True if the ETH or tokens have been redeemed.\n\n\t\tuint minBucketID;\n\t\tuint maxBucketID;\n    }\n\n    struct BidBucket {\n        uint valuation;         // the max cap/personal min valuation of bids in this bucket\n        address creator;        // The creator of this bucket for gas refund at the end. \n        uint[] maxCapBids;\n        uint[] personalMinBids;\n    }\n\n    mapping (uint => Bid) public bids; // Map bidID to bid.\n    mapping (uint => BidBucket) public buckets; // Map bucketID to bucket.\n    mapping (address => uint[]) public contributorBidIDs; // Map contributor to a list of its bid ID.\n    uint public lastBidID = 0; // The last bidID not accounting TAIL.\n\tuint public currentValuation = 0;\n\n    /* *** Sale parameters *** */\n    uint public startTime;                      // When the sale starts.\n    uint public endFullBonusTime;               // When the full bonus period ends.\n    uint public withdrawalLockTime;             // When the contributors can't withdraw their bids manually anymore.\n    uint public endTime;                        // When the sale ends.\n    ERC20 public token;                         // The token which is sold.\n    uint public tokensForSale;                  // The amount of tokens which will be sold.\n    uint public maxBonus;                       // The maximum bonus. Will be normalized by BONUS_DIVISOR. For example for a 20% bonus, _maxBonus must be 0.2 * BONUS_DIVISOR.\n    uint public minValuation;\n    uint public maxValuation;\n    uint public increment;\n    uint public numBuckets;\n    uint constant BONUS_DIVISOR = 1E9;          // The quantity we need to divide by to normalize the bonus.\n\n    /* *** Finalization variables *** */\n    bool public finalized;                 // True when the cutting bid has been found. The following variables are final only after finalized==true.\n    uint public cutOffBidID = TAIL;        // The first accepted bid. All bids after it are accepted.\n    uint public sumAcceptedContrib;        // The sum of accepted contributions.\n    uint public sumAcceptedVirtualContrib; // The sum of virtual (taking into account bonuses) contributions.\n\n    /* *** Events *** */\n    event BidSubmitted(address indexed contributor, uint indexed bidID, uint indexed time);\n\tevent Poked(address indexed poker, uint indexed bucketID);\n\n    /* *** Modifiers *** */\n    modifier onlyOwner{ require(owner == msg.sender); _; }\n\n    /* *** Functions Modifying the state *** */\n\n    /** @dev Constructor. First contract set up (tokens will also need to be transferred to the contract and then setToken needs to be called to finish the setup).\n     *  @param _startTime Time the sale will start in seconds since the Unix Epoch.\n     *  @param _fullBonusLength Amount of seconds the sale lasts in the full bonus period.\n     *  @param _partialWithdrawalLength Amount of seconds the sale lasts in the partial withdrawal period.\n     *  @param _withdrawalLockUpLength Amount of seconds the sale lasts in the withdrawal lockup period.\n     *  @param _maxBonus The maximum bonus. Will be normalized by BONUS_DIVISOR. For example for a 20% bonus, _maxBonus must be 0.2 * BONUS_DIVISOR.\n     *  @param _beneficiary The party which will get the funds of the token sale.\n     */\n    function IICO(uint _startTime, uint _fullBonusLength, uint _partialWithdrawalLength, uint _withdrawalLockUpLength, uint _maxBonus, address _beneficiary, uint _minValuation, uint _maxValuation, uint _increment) public {\n        owner = msg.sender;\n        startTime = _startTime;\n        endFullBonusTime = startTime + _fullBonusLength;\n        withdrawalLockTime = endFullBonusTime + _partialWithdrawalLength;\n        endTime = withdrawalLockTime + _withdrawalLockUpLength;\n        maxBonus = _maxBonus;\n        beneficiary = _beneficiary;\n        maxValuation = _maxValuation;\n        minValuation = _minValuation;\n        increment = _increment;\n        numBuckets = ((maxValuation - minValuation) / increment) + 1;\n        \n        // Add the first and the last buckets.\n        buckets[0] = BidBucket({\n            valuation: minValuation,\n            maxCapBids: new uint[](0),\n            personalMinBids: new uint[](0),\n            creator: msg.sender\n        });\n\n        buckets[uint(numBuckets-1)] = BidBucket({\n            valuation: maxValuation,\n            maxCapBids: new uint[](0),\n            personalMinBids: new uint[](0),\n            creator: msg.sender\n        });\n    }\n\n    /** @dev Set the token. Must only be called after the IICO contract receives the tokens to be sold.\n     *  @param _token The token to be sold.\n     */\n    function setToken(ERC20 _token) public onlyOwner {\n        require(address(token) == address(0)); // Make sure the token is not already set.\n\n        token = _token;\n        tokensForSale = token.balanceOf(this);\n    }\n\n    /** @dev Submit a bid. The caller must give the exact position the bid must be inserted into in the list.\n     *  In practice, use searchAndBid to avoid the position being incorrect due to a new bid being inserted and changing the position the bid must be inserted at.\n     *  @param _maxCap The maximum cap accepted by this bid.\n     *  @param _personalMin The minimum sale value for the bid to be included.\n     */\n    function submitBid(uint _maxCap, uint _personalMin) public payable {\n        // Make sure the two valuations are multiples of the increment\n        require(now >= startTime && now < endTime); // Check that the bids are still open.\n        require(_maxCap >= minValuation && _maxCap > _personalMin);\n        require( (_maxCap - minValuation) % increment == 0);\n        require( (_personalMin - minValuation) % increment == 0);\n\n        uint minBucketID = (_personalMin - minValuation) / increment;\n        uint maxBucketID = (_maxCap - minValuation) / increment; \n\n\n\t\t// TODO: decide what min should be so that the bid is always\n\t\t//\t\t\tin 2 buckets at a time.\n        if (buckets[minBucketID].creator == address(0x0)) {\n            buckets[minBucketID] = BidBucket({\n                valuation: _personalMin,\n                maxCapBids: new uint[](0),\n                personalMinBids: new uint[](0),\n                creator: msg.sender\n            });\n        }\n\n        if (buckets[maxBucketID].creator == address(0x0)) {\n            buckets[maxBucketID] = BidBucket({\n                valuation: _maxCap,\n                maxCapBids: new uint[](0),\n                personalMinBids: new uint[](0),\n                creator: msg.sender\n            });\n        }\n\n        BidBucket storage bucket = buckets[maxBucketID];\n        ++lastBidID;\n\n        bids[lastBidID] = Bid({\n            maxValuation: _maxCap,\n            personalMin: _personalMin,\n            contrib: msg.value,\n            bonus: bonus(),\n            contributor: msg.sender,\n            withdrawn: false,\n            redeemed: false,\n\t\t\tminBucketID: minBucketID,\n\t\t\tmaxBucketID: maxBucketID\n        });\n\n\t\t/* Update the current valuation and the buckets. */\n\t\t/* At this point someone may be able to poke a bucket which has inactive bids */\n\t\tcurrentValuation = currentValuation + msg.value;\n        buckets[maxBucketID].maxCapBids.push(lastBidID);\n        buckets[minBucketID].personalMinBids.push(lastBidID); \n\n        contributorBidIDs[msg.sender].push(lastBidID);\n        emit BidSubmitted(msg.sender, lastBidID, now); \n\n    }\n\t\n\n    /** @dev Withdraw a bid. Can only be called before the end of the withdrawal lock period.\n     *  Withdrawing a bid reduces its bonus by 1/3.\n     *  For retrieving ETH after an automatic withdrawal, use the redeem function.\n     *  @param _bidID The ID of the bid to withdraw.\n     */\n    function withdraw(uint _bidID) public {\n        Bid storage bid = bids[_bidID];\n        require(msg.sender == bid.contributor);\n        require(now < withdrawalLockTime);\n        require(!bid.withdrawn);\n\n        bid.withdrawn = true;\n\n        // Before endFullBonusTime, everything is refunded. Otherwise, an amount decreasing linearly from endFullBonusTime to withdrawalLockTime is refunded.\n        uint refund = (now < endFullBonusTime) ? bid.contrib : (bid.contrib * (withdrawalLockTime - now)) / (withdrawalLockTime - endFullBonusTime);\n        assert(refund <= bid.contrib); // Make sure that we don't refund more than the contribution. Would a bug arise, we prefer blocking withdrawal than letting someone steal money.\n        bid.contrib -= refund;\n        bid.bonus = (bid.bonus * 2) / 3; // Reduce the bonus by 1/3.\n\n\t\t/* Only subtract the refund. */\n\t\tcurrentValuation -= refund; \n\n        msg.sender.transfer(refund);\n    }\n\n\n    /** @dev Finalize by finding the cut-off bid.\n     *  Since the amount of bids is not bounded, this function may have to be called multiple times.\n     *  The function is O(min(n,_maxIt)) where n is the amount of bids. In total it will perform O(n) computations, possibly in multiple calls.\n     *  Each call only has a O(1) storage write operations.\n     *  @param _maxIt The maximum amount of bids to go through. This value must be set in order to not exceed the gas limit.\n     */\n//    function finalize(uint _maxIt) public {\n//        require(now >= endTime);\n//        require(!finalized);\n//\n//        // Make local copies of the finalization variables in order to avoid modifying storage in order to save gas.\n//        uint localCutOffBidID = cutOffBidID;\n//        uint localSumAcceptedContrib = sumAcceptedContrib;\n//        uint localSumAcceptedVirtualContrib = sumAcceptedVirtualContrib;\n//\n//        // Search for the cut-off bid while adding the contributions.\n//        for (uint it = 0; it < _maxIt && !finalized; ++it) {\n//            Bid storage bid = bids[localCutOffBidID];\n//            if (bid.contrib+localSumAcceptedContrib < bid.maxValuation) { // We haven't found the cut-off yet.\n//                localSumAcceptedContrib        += bid.contrib;\n//                localSumAcceptedVirtualContrib += bid.contrib + (bid.contrib * bid.bonus) / BONUS_DIVISOR;\n//                localCutOffBidID = bid.prev; // Go to the previous bid.\n//            } else { // We found the cut-off. This bid will be taken partially.\n//                finalized = true;\n//                uint contribCutOff = bid.maxValuation >= localSumAcceptedContrib ? bid.maxValuation - localSumAcceptedContrib : 0; // The amount of the contribution of the cut-off bid that can stay in the sale without spilling over the maxValuation.\n//                contribCutOff = contribCutOff < bid.contrib ? contribCutOff : bid.contrib; // The amount that stays in the sale should not be more than the original contribution. This line is not required but it is added as an extra security measure.\n//                bid.contributor.send(bid.contrib-contribCutOff); // Send the non-accepted part. Use send in order to not block if the contributor's fallback reverts.\n//                bid.contrib = contribCutOff; // Update the contribution value.\n//                localSumAcceptedContrib += bid.contrib;\n//                localSumAcceptedVirtualContrib += bid.contrib + (bid.contrib * bid.bonus) / BONUS_DIVISOR;\n//                beneficiary.send(localSumAcceptedContrib); // Use send in order to not block if the beneficiary's fallback reverts.\n//            }\n//        }\n//\n//        // Update storage.\n//        cutOffBidID = localCutOffBidID;\n//        sumAcceptedContrib = localSumAcceptedContrib;\n//        sumAcceptedVirtualContrib = localSumAcceptedVirtualContrib;\n//    }\n\n    /** @dev Redeem a bid. If the bid is accepted, send the tokens, otherwise refund the ETH.\n     *  Note that anyone can call this function, not only the party which made the bid.\n     *  @param _bidID ID of the bid to withdraw.\n     */\n    function redeem(uint _bidID) public {\n        Bid storage bid = bids[_bidID];\n        Bid storage cutOffBid = bids[cutOffBidID];\n        require(finalized);\n        require(!bid.redeemed);\n\n        bid.redeemed=true;\n        if (bid.maxValuation > cutOffBid.maxValuation || (bid.maxValuation == cutOffBid.maxValuation && _bidID >= cutOffBidID)) // Give tokens if the bid is accepted.\n            require(token.transfer(bid.contributor, (tokensForSale * (bid.contrib + (bid.contrib * bid.bonus) / BONUS_DIVISOR)) / sumAcceptedVirtualContrib));\n        else                                                                                            // Reimburse ETH otherwise.\n            bid.contributor.transfer(bid.contrib);\n    }\n\n    /** @dev Fallback. Make a bid if ETH are sent. Redeem all the bids of the contributor otherwise.\n     *  Note that the contributor could make this function go out of gas if it has too much bids. This in not a problem as it is still possible to redeem using the redeem function directly.\n     *  This allows users to bid and get their tokens back using only send operations.\n     */\n    function () public payable {\n        if (msg.value != 0 && now >= startTime && now < endTime) // Make a bid with an infinite maxValuation if some ETH was sent.\n            submitBid(INFINITY, TAIL);\n        else if (msg.value == 0 && finalized)                    // Else, redeem all the non redeemed bids if no ETH was sent.\n            for (uint i = 0; i < contributorBidIDs[msg.sender].length; ++i)\n            {\n                if (!bids[contributorBidIDs[msg.sender][i]].redeemed)\n                    redeem(contributorBidIDs[msg.sender][i]);\n            }\n        else                                                     // Otherwise, no actions are possible.\n            revert();\n    }\n\n\tfunction poke(uint _bucketID) public {\n\t\temit Poked(msg.sender, _bucketID);\n\t}\n\n    /* *** View Functions *** */\n\n    /** @dev Return the current bonus. The bonus only changes in 1/BONUS_DIVISOR increments.\n     *  @return b The bonus expressed in 1/BONUS_DIVISOR. Will be normalized by BONUS_DIVISOR. For example for a 20% bonus, _maxBonus must be 0.2 * BONUS_DIVISOR.\n     */\n    function bonus() public view returns(uint b) {\n        if (now < endFullBonusTime) // Full bonus.\n            return maxBonus;\n        else if (now > endTime)     // Assume no bonus after end.\n            return 0;\n        else                        // Compute the bonus decreasing linearly from endFullBonusTime to endTime.\n            return (maxBonus * (endTime - now)) / (endTime - endFullBonusTime);\n    }\n\n    /** @dev Get the total contribution of an address.\n     *  This can be used for a KYC threshold.\n     *  This function is O(n) where n is the amount of bids made by the contributor.\n     *  This means that the contributor can make totalContrib(contributor) revert due to an out of gas error on purpose.\n     *  @param _contributor The contributor whose contribution will be returned.\n     *  @return contribution The total contribution of the contributor.\n     */\n    function totalContrib(address _contributor) public view returns (uint contribution) {\n        for (uint i = 0; i < contributorBidIDs[_contributor].length; ++i)\n            contribution += bids[contributorBidIDs[_contributor][i]].contrib;\n    }\n\n\n\t/** @dev Get the array of personal min bids from a bucket.\n\t  *\tThis can be used for getting data for visualization.\n      * @param _bucketid The ID of the bucket to get the list from.\n\t  * @return minBids The array of personal min bids in the bucket.\n\t  */\n\tfunction bucketMinBids(uint _bucketid) public view returns (uint[] memory minBids) {\n\t\tBidBucket storage bucket = buckets[_bucketid];\n\t\tif (bucket.creator == address(0x0)) {\n\t\t\treturn minBids;\n\t\t}\n\n\t\tminBids = new uint[](bucket.personalMinBids.length);\n\t\tuint i = 0;\n\n\t\tfor (i = 0; i < bucket.personalMinBids.length; i++) {\n\t\t\tminBids[i] = bucket.personalMinBids[i];\n\t\t}\n\n\t\treturn minBids;\n\t}\t\n\n\n\t/** @dev Get the array of maximum cap bids from a bucket.\n\t  *\tThis can be used for getting data for visualization.\n      * @param _bucketid The ID of the bucket to get the list from.\n\t  * @return maxBids The array of maximum cap bids in the bucket.\n\t  */\n\tfunction bucketMaxBids(uint _bucketid) public view returns (uint[] memory maxBids) {\n\t\tBidBucket storage bucket = buckets[_bucketid];\n\t\tif (bucket.creator == address(0x0)) {\n\t\t\treturn maxBids;\n\t\t}\n\n\t\tmaxBids = new uint[](bucket.maxCapBids.length);\n\t\tuint i = 0;\n\n\t\tfor (i = 0; i < bucket.maxCapBids.length; i++) {\n\t\t\tmaxBids[i] = bucket.maxCapBids[i];\n\t\t}\n\n\t\treturn maxBids;\n\t}\t\n\n}\n",
  "sourcePath": "/home/surya/projects/truebit/interactive-coin-offerings/truebit-implementation/contracts/IICO.sol",
  "compiler": {
    "name": "solc",
    "version": "0.4.24+commit.e67f0147.Emscripten.clang"
  },
  "schemaVersion": "2.0.1",
  "updatedAt": "2018-11-15T22:17:43.225Z"
}