{
  "contractName": "LevelWhitelistedIICO",
  "abi": [
    {
      "constant": true,
      "inputs": [],
      "name": "tokensForSale",
      "outputs": [
        {
          "name": "",
          "type": "uint256"
        }
      ],
      "payable": false,
      "stateMutability": "view",
      "type": "function"
    },
    {
      "constant": false,
      "inputs": [
        {
          "name": "_token",
          "type": "address"
        }
      ],
      "name": "setToken",
      "outputs": [],
      "payable": false,
      "stateMutability": "nonpayable",
      "type": "function"
    },
    {
      "constant": true,
      "inputs": [],
      "name": "sumAcceptedVirtualContrib",
      "outputs": [
        {
          "name": "",
          "type": "uint256"
        }
      ],
      "payable": false,
      "stateMutability": "view",
      "type": "function"
    },
    {
      "constant": true,
      "inputs": [],
      "name": "cutOffBidID",
      "outputs": [
        {
          "name": "",
          "type": "uint256"
        }
      ],
      "payable": false,
      "stateMutability": "view",
      "type": "function"
    },
    {
      "constant": true,
      "inputs": [
        {
          "name": "",
          "type": "address"
        },
        {
          "name": "",
          "type": "uint256"
        }
      ],
      "name": "contributorBidIDs",
      "outputs": [
        {
          "name": "",
          "type": "uint256"
        }
      ],
      "payable": false,
      "stateMutability": "view",
      "type": "function"
    },
    {
      "constant": true,
      "inputs": [],
      "name": "whitelister",
      "outputs": [
        {
          "name": "",
          "type": "address"
        }
      ],
      "payable": false,
      "stateMutability": "view",
      "type": "function"
    },
    {
      "constant": true,
      "inputs": [
        {
          "name": "",
          "type": "address"
        }
      ],
      "name": "baseWhitelist",
      "outputs": [
        {
          "name": "",
          "type": "bool"
        }
      ],
      "payable": false,
      "stateMutability": "view",
      "type": "function"
    },
    {
      "constant": false,
      "inputs": [
        {
          "name": "_bidID",
          "type": "uint256"
        }
      ],
      "name": "withdraw",
      "outputs": [],
      "payable": false,
      "stateMutability": "nonpayable",
      "type": "function"
    },
    {
      "constant": true,
      "inputs": [],
      "name": "endTime",
      "outputs": [
        {
          "name": "",
          "type": "uint256"
        }
      ],
      "payable": false,
      "stateMutability": "view",
      "type": "function"
    },
    {
      "constant": true,
      "inputs": [],
      "name": "withdrawalLockTime",
      "outputs": [
        {
          "name": "",
          "type": "uint256"
        }
      ],
      "payable": false,
      "stateMutability": "view",
      "type": "function"
    },
    {
      "constant": true,
      "inputs": [],
      "name": "beneficiary",
      "outputs": [
        {
          "name": "",
          "type": "address"
        }
      ],
      "payable": false,
      "stateMutability": "view",
      "type": "function"
    },
    {
      "constant": true,
      "inputs": [
        {
          "name": "",
          "type": "uint256"
        }
      ],
      "name": "bids",
      "outputs": [
        {
          "name": "maxValuation",
          "type": "uint256"
        },
        {
          "name": "personalMin",
          "type": "uint256"
        },
        {
          "name": "contrib",
          "type": "uint256"
        },
        {
          "name": "bonus",
          "type": "uint256"
        },
        {
          "name": "contributor",
          "type": "address"
        },
        {
          "name": "withdrawn",
          "type": "bool"
        },
        {
          "name": "redeemed",
          "type": "bool"
        },
        {
          "name": "active",
          "type": "bool"
        },
        {
          "name": "minBucketID",
          "type": "uint256"
        },
        {
          "name": "maxBucketID",
          "type": "uint256"
        }
      ],
      "payable": false,
      "stateMutability": "view",
      "type": "function"
    },
    {
      "constant": false,
      "inputs": [],
      "name": "finalize",
      "outputs": [],
      "payable": false,
      "stateMutability": "nonpayable",
      "type": "function"
    },
    {
      "constant": true,
      "inputs": [],
      "name": "maxBonus",
      "outputs": [
        {
          "name": "",
          "type": "uint256"
        }
      ],
      "payable": false,
      "stateMutability": "view",
      "type": "function"
    },
    {
      "constant": true,
      "inputs": [],
      "name": "lastBidID",
      "outputs": [
        {
          "name": "",
          "type": "uint256"
        }
      ],
      "payable": false,
      "stateMutability": "view",
      "type": "function"
    },
    {
      "constant": true,
      "inputs": [
        {
          "name": "_contributor",
          "type": "address"
        }
      ],
      "name": "totalContrib",
      "outputs": [
        {
          "name": "contribution",
          "type": "uint256"
        }
      ],
      "payable": false,
      "stateMutability": "view",
      "type": "function"
    },
    {
      "constant": true,
      "inputs": [
        {
          "name": "_bucketid",
          "type": "uint256"
        }
      ],
      "name": "bucketMaxBids",
      "outputs": [
        {
          "name": "maxBids",
          "type": "uint256[]"
        }
      ],
      "payable": false,
      "stateMutability": "view",
      "type": "function"
    },
    {
      "constant": true,
      "inputs": [],
      "name": "bonus",
      "outputs": [
        {
          "name": "b",
          "type": "uint256"
        }
      ],
      "payable": false,
      "stateMutability": "view",
      "type": "function"
    },
    {
      "constant": true,
      "inputs": [],
      "name": "startTime",
      "outputs": [
        {
          "name": "",
          "type": "uint256"
        }
      ],
      "payable": false,
      "stateMutability": "view",
      "type": "function"
    },
    {
      "constant": true,
      "inputs": [],
      "name": "owner",
      "outputs": [
        {
          "name": "",
          "type": "address"
        }
      ],
      "payable": false,
      "stateMutability": "view",
      "type": "function"
    },
    {
      "constant": true,
      "inputs": [
        {
          "name": "",
          "type": "uint256"
        }
      ],
      "name": "buckets",
      "outputs": [
        {
          "name": "valuation",
          "type": "uint256"
        },
        {
          "name": "creator",
          "type": "address"
        }
      ],
      "payable": false,
      "stateMutability": "view",
      "type": "function"
    },
    {
      "constant": true,
      "inputs": [],
      "name": "maxValuation",
      "outputs": [
        {
          "name": "",
          "type": "uint256"
        }
      ],
      "payable": false,
      "stateMutability": "view",
      "type": "function"
    },
    {
      "constant": true,
      "inputs": [],
      "name": "minValuation",
      "outputs": [
        {
          "name": "",
          "type": "uint256"
        }
      ],
      "payable": false,
      "stateMutability": "view",
      "type": "function"
    },
    {
      "constant": true,
      "inputs": [],
      "name": "maximumBaseContribution",
      "outputs": [
        {
          "name": "",
          "type": "uint256"
        }
      ],
      "payable": false,
      "stateMutability": "view",
      "type": "function"
    },
    {
      "constant": true,
      "inputs": [],
      "name": "finalized",
      "outputs": [
        {
          "name": "",
          "type": "bool"
        }
      ],
      "payable": false,
      "stateMutability": "view",
      "type": "function"
    },
    {
      "constant": true,
      "inputs": [],
      "name": "numBuckets",
      "outputs": [
        {
          "name": "",
          "type": "uint256"
        }
      ],
      "payable": false,
      "stateMutability": "view",
      "type": "function"
    },
    {
      "constant": true,
      "inputs": [
        {
          "name": "",
          "type": "address"
        }
      ],
      "name": "reinforcedWhitelist",
      "outputs": [
        {
          "name": "",
          "type": "bool"
        }
      ],
      "payable": false,
      "stateMutability": "view",
      "type": "function"
    },
    {
      "constant": true,
      "inputs": [],
      "name": "increment",
      "outputs": [
        {
          "name": "",
          "type": "uint256"
        }
      ],
      "payable": false,
      "stateMutability": "view",
      "type": "function"
    },
    {
      "constant": false,
      "inputs": [
        {
          "name": "_bidID",
          "type": "uint256"
        }
      ],
      "name": "redeem",
      "outputs": [],
      "payable": false,
      "stateMutability": "nonpayable",
      "type": "function"
    },
    {
      "constant": true,
      "inputs": [],
      "name": "sumAcceptedContrib",
      "outputs": [
        {
          "name": "",
          "type": "uint256"
        }
      ],
      "payable": false,
      "stateMutability": "view",
      "type": "function"
    },
    {
      "constant": true,
      "inputs": [
        {
          "name": "_bucketid",
          "type": "uint256"
        }
      ],
      "name": "bucketMinBids",
      "outputs": [
        {
          "name": "minBids",
          "type": "uint256[]"
        }
      ],
      "payable": false,
      "stateMutability": "view",
      "type": "function"
    },
    {
      "constant": true,
      "inputs": [],
      "name": "endFullBonusTime",
      "outputs": [
        {
          "name": "",
          "type": "uint256"
        }
      ],
      "payable": false,
      "stateMutability": "view",
      "type": "function"
    },
    {
      "constant": false,
      "inputs": [
        {
          "name": "_bids",
          "type": "uint256[]"
        }
      ],
      "name": "poke",
      "outputs": [],
      "payable": false,
      "stateMutability": "nonpayable",
      "type": "function"
    },
    {
      "constant": true,
      "inputs": [],
      "name": "token",
      "outputs": [
        {
          "name": "",
          "type": "address"
        }
      ],
      "payable": false,
      "stateMutability": "view",
      "type": "function"
    },
    {
      "inputs": [
        {
          "name": "_startTime",
          "type": "uint256"
        },
        {
          "name": "_fullBonusLength",
          "type": "uint256"
        },
        {
          "name": "_partialWithdrawalLength",
          "type": "uint256"
        },
        {
          "name": "_withdrawalLockUpLength",
          "type": "uint256"
        },
        {
          "name": "_maxBonus",
          "type": "uint256"
        },
        {
          "name": "_beneficiary",
          "type": "address"
        },
        {
          "name": "_maximumBaseContribution",
          "type": "uint256"
        },
        {
          "name": "_minValuation",
          "type": "uint256"
        },
        {
          "name": "_maxValuation",
          "type": "uint256"
        },
        {
          "name": "_increment",
          "type": "uint256"
        }
      ],
      "payable": false,
      "stateMutability": "nonpayable",
      "type": "constructor"
    },
    {
      "payable": true,
      "stateMutability": "payable",
      "type": "fallback"
    },
    {
      "anonymous": false,
      "inputs": [
        {
          "indexed": true,
          "name": "contributor",
          "type": "address"
        },
        {
          "indexed": true,
          "name": "bidID",
          "type": "uint256"
        },
        {
          "indexed": true,
          "name": "time",
          "type": "uint256"
        }
      ],
      "name": "BidSubmitted",
      "type": "event"
    },
    {
      "anonymous": false,
      "inputs": [
        {
          "indexed": true,
          "name": "poker",
          "type": "address"
        },
        {
          "indexed": true,
          "name": "bidID",
          "type": "uint256"
        }
      ],
      "name": "Poked",
      "type": "event"
    },
    {
      "constant": false,
      "inputs": [
        {
          "name": "_maxValuation",
          "type": "uint256"
        },
        {
          "name": "_next",
          "type": "uint256"
        }
      ],
      "name": "submitBid",
      "outputs": [],
      "payable": true,
      "stateMutability": "payable",
      "type": "function"
    },
    {
      "constant": false,
      "inputs": [
        {
          "name": "_whitelister",
          "type": "address"
        }
      ],
      "name": "setWhitelister",
      "outputs": [],
      "payable": false,
      "stateMutability": "nonpayable",
      "type": "function"
    },
    {
      "constant": false,
      "inputs": [
        {
          "name": "_buyersToWhitelist",
          "type": "address[]"
        }
      ],
      "name": "addBaseWhitelist",
      "outputs": [],
      "payable": false,
      "stateMutability": "nonpayable",
      "type": "function"
    },
    {
      "constant": false,
      "inputs": [
        {
          "name": "_buyersToWhitelist",
          "type": "address[]"
        }
      ],
      "name": "addReinforcedWhitelist",
      "outputs": [],
      "payable": false,
      "stateMutability": "nonpayable",
      "type": "function"
    },
    {
      "constant": false,
      "inputs": [
        {
          "name": "_buyersToRemove",
          "type": "address[]"
        }
      ],
      "name": "removeBaseWhitelist",
      "outputs": [],
      "payable": false,
      "stateMutability": "nonpayable",
      "type": "function"
    },
    {
      "constant": false,
      "inputs": [
        {
          "name": "_buyersToRemove",
          "type": "address[]"
        }
      ],
      "name": "removeReinforcedWhitelist",
      "outputs": [],
      "payable": false,
      "stateMutability": "nonpayable",
      "type": "function"
    }
  ],
  "bytecode": "0x608060405260006005557fffffffffffffffffffffffffffffffffffffffffffffffffffffffffffffffff6012553480156200003a57600080fd5b506040516101408062002f0583398101806040528101908080519060200190929190805190602001909291908051906020019092919080519060200190929190805190602001909291908051906020019092919080519060200190929190805190602001909291908051906020019092919080519060200190929190505050898989898989888888336000806101000a81548173ffffffffffffffffffffffffffffffffffffffff021916908373ffffffffffffffffffffffffffffffffffffffff1602179055508860068190555087600654016007819055508660075401600881905550856008540160098190555084600c8190555083600160006101000a81548173ffffffffffffffffffffffffffffffffffffffff021916908373ffffffffffffffffffffffffffffffffffffffff16021790555081600e8190555082600d8190555080600f819055506001600f54600d54600e54038115156200019d57fe5b0401601081905550608060405190810160405280600d5481526020013373ffffffffffffffffffffffffffffffffffffffff1681526020016000604051908082528060200260200182016040528015620002065781602001602082028038833980820191505090505b50815260200160006040519080825280602002602001820160405280156200023d5781602001602082028038833980820191505090505b50815250600360008081526020019081526020016000206000820151816000015560208201518160010160006101000a81548173ffffffffffffffffffffffffffffffffffffffff021916908373ffffffffffffffffffffffffffffffffffffffff1602179055506040820151816002019080519060200190620002c39291906200044c565b506060820151816003019080519060200190620002e29291906200044c565b50905050608060405190810160405280600e5481526020013373ffffffffffffffffffffffffffffffffffffffff1681526020016000604051908082528060200260200182016040528015620003475781602001602082028038833980820191505090505b50815260200160006040519080825280602002602001820160405280156200037e5781602001602082028038833980820191505090505b508152506003600060016010540381526020019081526020016000206000820151816000015560208201518160010160006101000a81548173ffffffffffffffffffffffffffffffffffffffff021916908373ffffffffffffffffffffffffffffffffffffffff1602179055506040820151816002019080519060200190620004099291906200044c565b506060820151816003019080519060200190620004289291906200044c565b509050505050505050505050508360158190555050505050505050505050620004c6565b8280548282559060005260206000209081019282156200048b579160200282015b828111156200048a5782518255916020019190600101906200046d565b5b5090506200049a91906200049e565b5090565b620004c391905b80821115620004bf576000816000905550600101620004a5565b5090565b90565b612a2f80620004d66000396000f3006080604052600436106101ee576000357c0100000000000000000000000000000000000000000000000000000000900463ffffffff168063106c6441146103cc57806312aef8c314610432578063144fa6d71461045d578063152713b3146104a05780631552cb04146104cb5780631ae9fe6a146105315780631def6bad1461055c57806322758a4a146105bd5780632c2f93d5146106145780632e1a7d4d1461066f5780633197cbb61461069c57806334f732e8146106c757806338af3eed146106f25780634423c5f1146107495780634bb278f31461080157806354c5b6961461081857806357f196fa146108435780635e7c85b11461086e57806372a2fee0146108c557806375b4d78c1461094757806378e979251461097257806380999b711461099d5780638da5cb5b14610a035780639b51fb0d14610a5a578063a79fb0c214610ace578063aac1660314610af9578063b196aabb14610b24578063b3f05b9714610b4f578063b821da1b14610b7e578063bfdcc9a214610ba8578063c1f6004514610bd3578063d09de08a14610c2e578063db006a7514610c59578063dc382cbf14610c86578063ea9ad4a514610cb1578063f0d6cc7014610d33578063f5e7f5d914610d5e578063f98f5b9214610dc4578063fc0c546a14610e07578063ffbd26ce14610e5e575b600080341415801561020257506006544210155b801561020f575060095442105b156102635761025e7ffffffffffffffffffffffffffffffffffffffffffffffffffffffffffffffffe7fffffffffffffffffffffffffffffffffffffffffffffffffffffffffffffffff610ec4565b6103c9565b60003414801561027f5750601160009054906101000a900460ff165b156103c357600090505b600460003373ffffffffffffffffffffffffffffffffffffffff1673ffffffffffffffffffffffffffffffffffffffff168152602001908152602001600020805490508110156103be5760026000600460003373ffffffffffffffffffffffffffffffffffffffff1673ffffffffffffffffffffffffffffffffffffffff1681526020019081526020016000208381548110151561032357fe5b9060005260206000200154815260200190815260200160002060040160159054906101000a900460ff1615156103b3576103b2600460003373ffffffffffffffffffffffffffffffffffffffff1673ffffffffffffffffffffffffffffffffffffffff168152602001908152602001600020828154811015156103a257fe5b9060005260206000200154610f96565b5b806001019050610289565b6103c8565b600080fd5b5b50005b3480156103d857600080fd5b5061043060048036038101908080359060200190820180359060200190808060200260200160405190810160405280939291908181526020018383602002808284378201915050505050509192919290505050611224565b005b34801561043e57600080fd5b5061044761130e565b6040518082815260200191505060405180910390f35b34801561046957600080fd5b5061049e600480360381019080803573ffffffffffffffffffffffffffffffffffffffff169060200190929190505050611314565b005b3480156104ac57600080fd5b506104b561150e565b6040518082815260200191505060405180910390f35b3480156104d757600080fd5b5061052f60048036038101908080359060200190820180359060200190808060200260200160405190810160405280939291908181526020018383602002808284378201915050505050509192919290505050611514565b005b34801561053d57600080fd5b506105466115fe565b6040518082815260200191505060405180910390f35b34801561056857600080fd5b506105a7600480360381019080803573ffffffffffffffffffffffffffffffffffffffff16906020019092919080359060200190929190505050611604565b6040518082815260200191505060405180910390f35b3480156105c957600080fd5b506105d2611634565b604051808273ffffffffffffffffffffffffffffffffffffffff1673ffffffffffffffffffffffffffffffffffffffff16815260200191505060405180910390f35b34801561062057600080fd5b50610655600480360381019080803573ffffffffffffffffffffffffffffffffffffffff16906020019092919050505061165a565b604051808215151515815260200191505060405180910390f35b34801561067b57600080fd5b5061069a6004803603810190808035906020019092919050505061167a565b005b3480156106a857600080fd5b506106b1611857565b6040518082815260200191505060405180910390f35b3480156106d357600080fd5b506106dc61185d565b6040518082815260200191505060405180910390f35b3480156106fe57600080fd5b50610707611863565b604051808273ffffffffffffffffffffffffffffffffffffffff1673ffffffffffffffffffffffffffffffffffffffff16815260200191505060405180910390f35b34801561075557600080fd5b5061077460048036038101908080359060200190929190505050611889565b604051808b81526020018a81526020018981526020018881526020018773ffffffffffffffffffffffffffffffffffffffff1673ffffffffffffffffffffffffffffffffffffffff1681526020018615151515815260200185151515158152602001841515151581526020018381526020018281526020019a505050505050505050505060405180910390f35b34801561080d57600080fd5b50610816611924565b005b34801561082457600080fd5b5061082d6119c8565b6040518082815260200191505060405180910390f35b34801561084f57600080fd5b506108586119ce565b6040518082815260200191505060405180910390f35b34801561087a57600080fd5b506108af600480360381019080803573ffffffffffffffffffffffffffffffffffffffff1690602001909291905050506119d4565b6040518082815260200191505060405180910390f35b3480156108d157600080fd5b506108f060048036038101908080359060200190929190505050611aa8565b6040518080602001828103825283818151815260200191508051906020019060200280838360005b83811015610933578082015181840152602081019050610918565b505050509050019250505060405180910390f35b34801561095357600080fd5b5061095c611bc4565b6040518082815260200191505060405180910390f35b34801561097e57600080fd5b50610987611c0d565b6040518082815260200191505060405180910390f35b3480156109a957600080fd5b50610a0160048036038101908080359060200190820180359060200190808060200260200160405190810160405280939291908181526020018383602002808284378201915050505050509192919290505050611c13565b005b348015610a0f57600080fd5b50610a18611cfd565b604051808273ffffffffffffffffffffffffffffffffffffffff1673ffffffffffffffffffffffffffffffffffffffff16815260200191505060405180910390f35b348015610a6657600080fd5b50610a8560048036038101908080359060200190929190505050611d22565b604051808381526020018273ffffffffffffffffffffffffffffffffffffffff1673ffffffffffffffffffffffffffffffffffffffff1681526020019250505060405180910390f35b348015610ada57600080fd5b50610ae3611d66565b6040518082815260200191505060405180910390f35b348015610b0557600080fd5b50610b0e611d6c565b6040518082815260200191505060405180910390f35b348015610b3057600080fd5b50610b39611d72565b6040518082815260200191505060405180910390f35b348015610b5b57600080fd5b50610b64611d78565b604051808215151515815260200191505060405180910390f35b610ba66004803603810190808035906020019092919080359060200190929190505050610ec4565b005b348015610bb457600080fd5b50610bbd611d8b565b6040518082815260200191505060405180910390f35b348015610bdf57600080fd5b50610c14600480360381019080803573ffffffffffffffffffffffffffffffffffffffff169060200190929190505050611d91565b604051808215151515815260200191505060405180910390f35b348015610c3a57600080fd5b50610c43611db1565b6040518082815260200191505060405180910390f35b348015610c6557600080fd5b50610c8460048036038101908080359060200190929190505050610f96565b005b348015610c9257600080fd5b50610c9b611db7565b6040518082815260200191505060405180910390f35b348015610cbd57600080fd5b50610cdc60048036038101908080359060200190929190505050611dbd565b6040518080602001828103825283818151815260200191508051906020019060200280838360005b83811015610d1f578082015181840152602081019050610d04565b505050509050019250505060405180910390f35b348015610d3f57600080fd5b50610d48611ed9565b6040518082815260200191505060405180910390f35b348015610d6a57600080fd5b50610dc260048036038101908080359060200190820180359060200190808060200260200160405190810160405280939291908181526020018383602002808284378201915050505050509192919290505050611edf565b005b348015610dd057600080fd5b50610e05600480360381019080803573ffffffffffffffffffffffffffffffffffffffff1690602001909291905050506120a8565b005b348015610e1357600080fd5b50610e1c612147565b604051808273ffffffffffffffffffffffffffffffffffffffff1673ffffffffffffffffffffffffffffffffffffffff16815260200191505060405180910390f35b348015610e6a57600080fd5b50610ec26004803603810190808035906020019082018035906020019080806020026020016040519081016040528093929190818152602001838360200280828437820191505050505050919291929050505061216d565b005b601760003373ffffffffffffffffffffffffffffffffffffffff1673ffffffffffffffffffffffffffffffffffffffff16815260200190815260200160002060009054906101000a900460ff1680610f7d5750601660003373ffffffffffffffffffffffffffffffffffffffff1673ffffffffffffffffffffffffffffffffffffffff16815260200190815260200160002060009054906101000a900460ff168015610f7c5750601554610f77336119d4565b340111155b5b1515610f8857600080fd5b610f928282612257565b5050565b6000806002600084815260200190815260200160002091506002600060125481526020019081526020016000209050601160009054906101000a900460ff161515610fe057600080fd5b8160040160159054906101000a900460ff16151515610ffe57600080fd5b60018260040160156101000a81548160ff02191690831515021790555080600001548260000154118061104657508060000154826000015414801561104557506012548310155b5b156111af57600a60009054906101000a900473ffffffffffffffffffffffffffffffffffffffff1673ffffffffffffffffffffffffffffffffffffffff1663a9059cbb8360040160009054906101000a900473ffffffffffffffffffffffffffffffffffffffff16601454633b9aca0086600301548760020154028115156110ca57fe5b04866002015401600b54028115156110de57fe5b046040518363ffffffff167c0100000000000000000000000000000000000000000000000000000000028152600401808373ffffffffffffffffffffffffffffffffffffffff1673ffffffffffffffffffffffffffffffffffffffff16815260200182815260200192505050602060405180830381600087803b15801561116457600080fd5b505af1158015611178573d6000803e3d6000fd5b505050506040513d602081101561118e57600080fd5b810190808051906020019092919050505015156111aa57600080fd5b61121f565b8160040160009054906101000a900473ffffffffffffffffffffffffffffffffffffffff1673ffffffffffffffffffffffffffffffffffffffff166108fc83600201549081150290604051600060405180830381858888f1935050505015801561121d573d6000803e3d6000fd5b505b505050565b60003373ffffffffffffffffffffffffffffffffffffffff16601860009054906101000a900473ffffffffffffffffffffffffffffffffffffffff1673ffffffffffffffffffffffffffffffffffffffff1614151561128257600080fd5b600090505b815181101561130a5760006017600084848151811015156112a457fe5b9060200190602002015173ffffffffffffffffffffffffffffffffffffffff1673ffffffffffffffffffffffffffffffffffffffff16815260200190815260200160002060006101000a81548160ff021916908315150217905550806001019050611287565b5050565b600b5481565b3373ffffffffffffffffffffffffffffffffffffffff166000809054906101000a900473ffffffffffffffffffffffffffffffffffffffff1673ffffffffffffffffffffffffffffffffffffffff1614151561136f57600080fd5b600073ffffffffffffffffffffffffffffffffffffffff16600a60009054906101000a900473ffffffffffffffffffffffffffffffffffffffff1673ffffffffffffffffffffffffffffffffffffffff161415156113cc57600080fd5b80600a60006101000a81548173ffffffffffffffffffffffffffffffffffffffff021916908373ffffffffffffffffffffffffffffffffffffffff160217905550600a60009054906101000a900473ffffffffffffffffffffffffffffffffffffffff1673ffffffffffffffffffffffffffffffffffffffff166370a08231306040518263ffffffff167c0100000000000000000000000000000000000000000000000000000000028152600401808273ffffffffffffffffffffffffffffffffffffffff1673ffffffffffffffffffffffffffffffffffffffff168152602001915050602060405180830381600087803b1580156114ca57600080fd5b505af11580156114de573d6000803e3d6000fd5b505050506040513d60208110156114f457600080fd5b8101908080519060200190929190505050600b8190555050565b60145481565b60003373ffffffffffffffffffffffffffffffffffffffff16601860009054906101000a900473ffffffffffffffffffffffffffffffffffffffff1673ffffffffffffffffffffffffffffffffffffffff1614151561157257600080fd5b600090505b81518110156115fa57600160166000848481518110151561159457fe5b9060200190602002015173ffffffffffffffffffffffffffffffffffffffff1673ffffffffffffffffffffffffffffffffffffffff16815260200190815260200160002060006101000a81548160ff021916908315150217905550806001019050611577565b5050565b60125481565b60046020528160005260406000208181548110151561161f57fe5b90600052602060002001600091509150505481565b601860009054906101000a900473ffffffffffffffffffffffffffffffffffffffff1681565b60166020528060005260406000206000915054906101000a900460ff1681565b6000806002600084815260200190815260200160002091508160040160009054906101000a900473ffffffffffffffffffffffffffffffffffffffff1673ffffffffffffffffffffffffffffffffffffffff163373ffffffffffffffffffffffffffffffffffffffff161415156116f057600080fd5b6008544210151561170057600080fd5b8160040160149054906101000a900460ff1615151561171e57600080fd5b60018260040160146101000a81548160ff02191690831515021790555060008260040160166101000a81548160ff02191690831515021790555060075442106117825760075460085403426008540383600201540281151561177c57fe5b04611788565b81600201545b90508160020154811115151561179a57fe5b808260020160008282540392505081905550600360028360030154028115156117bf57fe5b0482600301819055508060136000828254039250508190555080633b9aca00600202826003028460020154018460030154028115156117fa57fe5b04016014600082825403925050819055503373ffffffffffffffffffffffffffffffffffffffff166108fc829081150290604051600060405180830381858888f19350505050158015611851573d6000803e3d6000fd5b50505050565b60095481565b60085481565b600160009054906101000a900473ffffffffffffffffffffffffffffffffffffffff1681565b60026020528060005260406000206000915090508060000154908060010154908060020154908060030154908060040160009054906101000a900473ffffffffffffffffffffffffffffffffffffffff16908060040160149054906101000a900460ff16908060040160159054906101000a900460ff16908060040160169054906101000a900460ff1690806005015490806006015490508a565b600954421015151561193557600080fd5b601160009054906101000a900460ff1615151561195157600080fd5b6001601160006101000a81548160ff021916908315150217905550600160009054906101000a900473ffffffffffffffffffffffffffffffffffffffff1673ffffffffffffffffffffffffffffffffffffffff166108fc6013549081150290604051600060405180830381858888f1935050505050565b600c5481565b60055481565b600080600090505b600460008473ffffffffffffffffffffffffffffffffffffffff1673ffffffffffffffffffffffffffffffffffffffff16815260200190815260200160002080549050811015611aa25760026000600460008673ffffffffffffffffffffffffffffffffffffffff1673ffffffffffffffffffffffffffffffffffffffff16815260200190815260200160002083815481101515611a7657fe5b9060005260206000200154815260200190815260200160002060020154820191508060010190506119dc565b50919050565b6060600080600360008581526020019081526020016000209150600073ffffffffffffffffffffffffffffffffffffffff168260010160009054906101000a900473ffffffffffffffffffffffffffffffffffffffff1673ffffffffffffffffffffffffffffffffffffffff161415611b2357829250611bbd565b8160020180549050604051908082528060200260200182016040528015611b595781602001602082028038833980820191505090505b50925060009050600090505b8160020180549050811015611bb9578160020181815481101515611b8557fe5b90600052602060002001548382815181101515611b9e57fe5b90602001906020020181815250508080600101915050611b65565b8292505b5050919050565b6000600754421015611bda57600c549050611c0a565b600954421115611bed5760009050611c0a565b600754600954034260095403600c5402811515611c0657fe5b0490505b90565b60065481565b60003373ffffffffffffffffffffffffffffffffffffffff16601860009054906101000a900473ffffffffffffffffffffffffffffffffffffffff1673ffffffffffffffffffffffffffffffffffffffff16141515611c7157600080fd5b600090505b8151811015611cf9576000601660008484815181101515611c9357fe5b9060200190602002015173ffffffffffffffffffffffffffffffffffffffff1673ffffffffffffffffffffffffffffffffffffffff16815260200190815260200160002060006101000a81548160ff021916908315150217905550806001019050611c76565b5050565b6000809054906101000a900473ffffffffffffffffffffffffffffffffffffffff1681565b60036020528060005260406000206000915090508060000154908060010160009054906101000a900473ffffffffffffffffffffffffffffffffffffffff16905082565b600e5481565b600d5481565b60155481565b601160009054906101000a900460ff1681565b60105481565b60176020528060005260406000206000915054906101000a900460ff1681565b600f5481565b60135481565b6060600080600360008581526020019081526020016000209150600073ffffffffffffffffffffffffffffffffffffffff168260010160009054906101000a900473ffffffffffffffffffffffffffffffffffffffff1673ffffffffffffffffffffffffffffffffffffffff161415611e3857829250611ed2565b8160030180549050604051908082528060200260200182016040528015611e6e5781602001602082028038833980820191505090505b50925060009050600090505b8160030180549050811015611ece578160030181815481101515611e9a57fe5b90600052602060002001548382815181101515611eb357fe5b90602001906020020181815250508080600101915050611e7a565b8292505b5050919050565b60075481565b6000806000806013549350601454925060009150600260008081526020019081526020016000209050600091505b8451821015611f7e57600260008684815181101515611f2857fe5b90602001906020020151815260200190815260200160002090508060040160169054906101000a900460ff1615611f6757806002015484039350611f71565b8060020154840193505b8180600101925050611f0d565b600091505b845182101561202557600260008684815181101515611f9e57fe5b90602001906020020151815260200190815260200160002090508060040160169054906101000a900460ff1615611ff4578060000154841180611fe45750806001015484105b1515611fef57600080fd5b612018565b8060000154841115801561200c575080600101548410155b151561201757600080fd5b5b8180600101925050611f83565b600091505b845182101561209a5760026000868481518110151561204557fe5b90602001906020020151815260200190815260200160002090508060040160169054906101000a900460ff16158160040160166101000a81548160ff021916908315150217905550818060010192505061202a565b836013819055505050505050565b3373ffffffffffffffffffffffffffffffffffffffff166000809054906101000a900473ffffffffffffffffffffffffffffffffffffffff1673ffffffffffffffffffffffffffffffffffffffff1614151561210357600080fd5b80601860006101000a81548173ffffffffffffffffffffffffffffffffffffffff021916908373ffffffffffffffffffffffffffffffffffffffff16021790555050565b600a60009054906101000a900473ffffffffffffffffffffffffffffffffffffffff1681565b60003373ffffffffffffffffffffffffffffffffffffffff16601860009054906101000a900473ffffffffffffffffffffffffffffffffffffffff1673ffffffffffffffffffffffffffffffffffffffff161415156121cb57600080fd5b600090505b81518110156122535760016017600084848151811015156121ed57fe5b9060200190602002015173ffffffffffffffffffffffffffffffffffffffff1673ffffffffffffffffffffffffffffffffffffffff16815260200190815260200160002060006101000a81548160ff0219169083151502179055508060010190506121d0565b5050565b6000806000806006544210158015612270575060095442105b151561227b57600080fd5b600d54861015801561228c57508486115b151561229757600080fd5b6000600f54600d5488038115156122aa57fe5b061415156122b757600080fd5b6000600f54600d5487038115156122ca57fe5b061415156122d757600080fd5b600f54600d5486038115156122e857fe5b049350600f54600d5487038115156122fc57fe5b049250600073ffffffffffffffffffffffffffffffffffffffff166003600086815260200190815260200160002060010160009054906101000a900473ffffffffffffffffffffffffffffffffffffffff1673ffffffffffffffffffffffffffffffffffffffff1614156124a4576080604051908101604052808681526020013373ffffffffffffffffffffffffffffffffffffffff16815260200160006040519080825280602002602001820160405280156123c85781602001602082028038833980820191505090505b50815260200160006040519080825280602002602001820160405280156123fe5781602001602082028038833980820191505090505b50815250600360008681526020019081526020016000206000820151816000015560208201518160010160006101000a81548173ffffffffffffffffffffffffffffffffffffffff021916908373ffffffffffffffffffffffffffffffffffffffff1602179055506040820151816002019080519060200190612482929190612991565b50606082015181600301908051906020019061249f929190612991565b509050505b600073ffffffffffffffffffffffffffffffffffffffff166003600085815260200190815260200160002060010160009054906101000a900473ffffffffffffffffffffffffffffffffffffffff1673ffffffffffffffffffffffffffffffffffffffff161415612649576080604051908101604052808781526020013373ffffffffffffffffffffffffffffffffffffffff168152602001600060405190808252806020026020018201604052801561256d5781602001602082028038833980820191505090505b50815260200160006040519080825280602002602001820160405280156125a35781602001602082028038833980820191505090505b50815250600360008581526020019081526020016000206000820151816000015560208201518160010160006101000a81548173ffffffffffffffffffffffffffffffffffffffff021916908373ffffffffffffffffffffffffffffffffffffffff1602179055506040820151816002019080519060200190612627929190612991565b506060820151816003019080519060200190612644929190612991565b509050505b6003600084815260200190815260200160002091506005600081546001019190508190555061014060405190810160405280878152602001868152602001348152602001612695611bc4565b81526020013373ffffffffffffffffffffffffffffffffffffffff16815260200160001515815260200160001515815260200187346013540111806126dd5750863460135401105b6126e85760016126eb565b60005b15158152602001858152602001848152506002600060055481526020019081526020016000206000820151816000015560208201518160010155604082015181600201556060820151816003015560808201518160040160006101000a81548173ffffffffffffffffffffffffffffffffffffffff021916908373ffffffffffffffffffffffffffffffffffffffff16021790555060a08201518160040160146101000a81548160ff02191690831515021790555060c08201518160040160156101000a81548160ff02191690831515021790555060e08201518160040160166101000a81548160ff0219169083151502179055506101008201518160050155610120820151816006015590505060026000600554815260200190815260200160002090508060020154601360008282540192505081905550633b9aca00816003015482600201540281151561283d57fe5b04816002015401601460008282540192505081905550600360008481526020019081526020016000206002016005549080600181540180825580915050906001820390600052602060002001600090919290919091505550600360008581526020019081526020016000206003016005549080600181540180825580915050906001820390600052602060002001600090919290919091505550600460003373ffffffffffffffffffffffffffffffffffffffff1673ffffffffffffffffffffffffffffffffffffffff1681526020019081526020016000206005549080600181540180825580915050906001820390600052602060002001600090919290919091505550426005543373ffffffffffffffffffffffffffffffffffffffff167f84bee513033536a8de8a8260e2674a4a3eebd61ddce74615fdeca8a1499f5efe60405160405180910390a4505050505050565b8280548282559060005260206000209081019282156129cd579160200282015b828111156129cc5782518255916020019190600101906129b1565b5b5090506129da91906129de565b5090565b612a0091905b808211156129fc5760008160009055506001016129e4565b5090565b905600a165627a7a72305820fdeb2f87303b5b9625beec04c4351aabc7c8463e5e58198841e92982d516bbab0029",
  "source": "/** @title Level Whitelisted Interactive Coin Offering\n *  @author Clment Lesaege - <clement@lesaege.com>\n */\n\npragma solidity ^0.4.23;\n\nimport \"./IICO.sol\";\n\n/** @title Level Whitelisted Interactive Coin Offering\n *  This contract implements an Interactive Coin Offering with two whitelists:\n *  - The base one, with limited contribution.\n *  - The reinforced one, with unlimited contribution.\n */\ncontract LevelWhitelistedIICO is IICO {\n    \n    uint public maximumBaseContribution;\n    mapping (address => bool) public baseWhitelist; // True if in the base whitelist (has a contribution limit).\n    mapping (address => bool) public reinforcedWhitelist; // True if in the reinforced whitelist (does not have a contribution limit).\n    address public whitelister; // The party which can add or remove people from the whitelist.\n    \n    modifier onlyWhitelister{ require(whitelister == msg.sender); _; }\n    \n    /** @dev Constructor. First contract set up (tokens will also need to be transferred to the contract and then setToken needs to be called to finish the setup).\n     *  @param _startTime Time the sale will start in seconds since the Unix Epoch.\n     *  @param _fullBonusLength Amount of seconds the sale lasts in the full bonus period.\n     *  @param _partialWithdrawalLength Amount of seconds the sale lasts in the partial withdrawal period.\n     *  @param _withdrawalLockUpLength Amount of seconds the sale lasts in the withdrawal lockup period.\n     *  @param _maxBonus The maximum bonus. Will be normalized by BONUS_DIVISOR. For example for a 20% bonus, _maxBonus must be 0.2 * BONUS_DIVISOR.\n     *  @param _beneficiary The party which will get the funds of the token sale.\n     *  @param _maximumBaseContribution The maximum contribution for buyers on the base list.\n     */\n    function LevelWhitelistedIICO(uint _startTime, uint _fullBonusLength, uint _partialWithdrawalLength, uint _withdrawalLockUpLength, uint _maxBonus, address _beneficiary, uint _maximumBaseContribution, uint _minValuation, uint _maxValuation, uint _increment) IICO(_startTime,_fullBonusLength,_partialWithdrawalLength,_withdrawalLockUpLength,_maxBonus,_beneficiary,_minValuation,_maxValuation,_increment) public {\n        maximumBaseContribution=_maximumBaseContribution;\n    }\n    \n    /** @dev Submit a bid. The caller must give the exact position the bid must be inserted into in the list.\n     *  In practice, use searchAndBid to avoid the position being incorrect due to a new bid being inserted and changing the position the bid must be inserted at.\n     *  @param _maxValuation The maximum valuation given by the contributor. If the amount raised is higher, the bid is cancelled and the contributor refunded because it prefers a refund instead of this level of dilution. To buy no matter what, use INFINITY.\n     *  @param _next The bidID of the next bid in the list.\n     */\n    function submitBid(uint _maxValuation, uint _next) public payable {\n        require(reinforcedWhitelist[msg.sender] || (baseWhitelist[msg.sender] && (msg.value + totalContrib(msg.sender) <= maximumBaseContribution))); // Check if the buyer is in the reinforced whitelist or if it is on the base one and this would not make its total contribution exceed the limit.\n        super.submitBid(_maxValuation,_next);\n    }\n    \n    /** @dev Set the whitelister.\n     *  @param _whitelister The whitelister.\n     */\n    function setWhitelister(address _whitelister) public onlyOwner {\n        whitelister=_whitelister;\n    }\n    \n    /** @dev Add buyers to the base whitelist.\n     *  @param _buyersToWhitelist Buyers to add to the whitelist.\n     */\n    function addBaseWhitelist(address[] _buyersToWhitelist) public onlyWhitelister {\n        for(uint i=0;i<_buyersToWhitelist.length;++i)\n            baseWhitelist[_buyersToWhitelist[i]]=true;\n    }\n    \n    /** @dev Add buyers to the reinforced whitelist.\n     *  @param _buyersToWhitelist Buyers to add to the whitelist.\n     */\n    function addReinforcedWhitelist(address[] _buyersToWhitelist) public onlyWhitelister {\n        for(uint i=0;i<_buyersToWhitelist.length;++i)\n            reinforcedWhitelist[_buyersToWhitelist[i]]=true;\n    }\n    \n    /** @dev Remove buyers from the base whitelist.\n     *  @param _buyersToRemove Buyers to remove from the whitelist.\n     */\n    function removeBaseWhitelist(address[] _buyersToRemove) public onlyWhitelister {\n        for(uint i=0;i<_buyersToRemove.length;++i)\n            baseWhitelist[_buyersToRemove[i]]=false;\n    }\n    \n    /** @dev Remove buyers from the reinforced whitelist.\n     *  @param _buyersToRemove Buyers to remove from the whitelist.\n     */\n    function removeReinforcedWhitelist(address[] _buyersToRemove) public onlyWhitelister {\n        for(uint i=0;i<_buyersToRemove.length;++i)\n            reinforcedWhitelist[_buyersToRemove[i]]=false;\n    }\n\n}\n",
  "sourcePath": "/home/surya/projects/truebit/interactive-coin-offerings/truebit-implementation/contracts/LevelWhitelistedIICO.sol",
  "compiler": {
    "name": "solc",
    "version": "0.4.24+commit.e67f0147.Emscripten.clang"
  },
  "schemaVersion": "2.0.1",
  "updatedAt": "2018-12-07T22:50:05.598Z"
}