{
  "contractName": "LevelWhitelistedIICO",
  "abi": [
    {
      "constant": true,
      "inputs": [],
      "name": "tokensForSale",
      "outputs": [
        {
          "name": "",
          "type": "uint256"
        }
      ],
      "payable": false,
      "stateMutability": "view",
      "type": "function"
    },
    {
      "constant": false,
      "inputs": [
        {
          "name": "_token",
          "type": "address"
        }
      ],
      "name": "setToken",
      "outputs": [],
      "payable": false,
      "stateMutability": "nonpayable",
      "type": "function"
    },
    {
      "constant": true,
      "inputs": [],
      "name": "sumAcceptedVirtualContrib",
      "outputs": [
        {
          "name": "",
          "type": "uint256"
        }
      ],
      "payable": false,
      "stateMutability": "view",
      "type": "function"
    },
    {
      "constant": true,
      "inputs": [],
      "name": "cutOffBidID",
      "outputs": [
        {
          "name": "",
          "type": "uint256"
        }
      ],
      "payable": false,
      "stateMutability": "view",
      "type": "function"
    },
    {
      "constant": true,
      "inputs": [
        {
          "name": "",
          "type": "address"
        },
        {
          "name": "",
          "type": "uint256"
        }
      ],
      "name": "contributorBidIDs",
      "outputs": [
        {
          "name": "",
          "type": "uint256"
        }
      ],
      "payable": false,
      "stateMutability": "view",
      "type": "function"
    },
    {
      "constant": true,
      "inputs": [],
      "name": "whitelister",
      "outputs": [
        {
          "name": "",
          "type": "address"
        }
      ],
      "payable": false,
      "stateMutability": "view",
      "type": "function"
    },
    {
      "constant": true,
      "inputs": [
        {
          "name": "",
          "type": "address"
        }
      ],
      "name": "baseWhitelist",
      "outputs": [
        {
          "name": "",
          "type": "bool"
        }
      ],
      "payable": false,
      "stateMutability": "view",
      "type": "function"
    },
    {
      "constant": false,
      "inputs": [
        {
          "name": "_bidID",
          "type": "uint256"
        }
      ],
      "name": "withdraw",
      "outputs": [],
      "payable": false,
      "stateMutability": "nonpayable",
      "type": "function"
    },
    {
      "constant": true,
      "inputs": [],
      "name": "endTime",
      "outputs": [
        {
          "name": "",
          "type": "uint256"
        }
      ],
      "payable": false,
      "stateMutability": "view",
      "type": "function"
    },
    {
      "constant": false,
      "inputs": [
        {
          "name": "_bidID",
          "type": "uint256"
        }
      ],
      "name": "poke",
      "outputs": [],
      "payable": false,
      "stateMutability": "nonpayable",
      "type": "function"
    },
    {
      "constant": true,
      "inputs": [],
      "name": "withdrawalLockTime",
      "outputs": [
        {
          "name": "",
          "type": "uint256"
        }
      ],
      "payable": false,
      "stateMutability": "view",
      "type": "function"
    },
    {
      "constant": true,
      "inputs": [],
      "name": "beneficiary",
      "outputs": [
        {
          "name": "",
          "type": "address"
        }
      ],
      "payable": false,
      "stateMutability": "view",
      "type": "function"
    },
    {
      "constant": true,
      "inputs": [
        {
          "name": "",
          "type": "uint256"
        }
      ],
      "name": "bids",
      "outputs": [
        {
          "name": "maxValuation",
          "type": "uint256"
        },
        {
          "name": "personalMin",
          "type": "uint256"
        },
        {
          "name": "contrib",
          "type": "uint256"
        },
        {
          "name": "bonus",
          "type": "uint256"
        },
        {
          "name": "contributor",
          "type": "address"
        },
        {
          "name": "withdrawn",
          "type": "bool"
        },
        {
          "name": "redeemed",
          "type": "bool"
        },
        {
          "name": "active",
          "type": "bool"
        },
        {
          "name": "minBucketID",
          "type": "uint256"
        },
        {
          "name": "maxBucketID",
          "type": "uint256"
        }
      ],
      "payable": false,
      "stateMutability": "view",
      "type": "function"
    },
    {
      "constant": true,
      "inputs": [],
      "name": "maxBonus",
      "outputs": [
        {
          "name": "",
          "type": "uint256"
        }
      ],
      "payable": false,
      "stateMutability": "view",
      "type": "function"
    },
    {
      "constant": true,
      "inputs": [],
      "name": "lastBidID",
      "outputs": [
        {
          "name": "",
          "type": "uint256"
        }
      ],
      "payable": false,
      "stateMutability": "view",
      "type": "function"
    },
    {
      "constant": true,
      "inputs": [
        {
          "name": "_contributor",
          "type": "address"
        }
      ],
      "name": "totalContrib",
      "outputs": [
        {
          "name": "contribution",
          "type": "uint256"
        }
      ],
      "payable": false,
      "stateMutability": "view",
      "type": "function"
    },
    {
      "constant": true,
      "inputs": [
        {
          "name": "_bucketid",
          "type": "uint256"
        }
      ],
      "name": "bucketMaxBids",
      "outputs": [
        {
          "name": "maxBids",
          "type": "uint256[]"
        }
      ],
      "payable": false,
      "stateMutability": "view",
      "type": "function"
    },
    {
      "constant": true,
      "inputs": [],
      "name": "bonus",
      "outputs": [
        {
          "name": "b",
          "type": "uint256"
        }
      ],
      "payable": false,
      "stateMutability": "view",
      "type": "function"
    },
    {
      "constant": true,
      "inputs": [],
      "name": "startTime",
      "outputs": [
        {
          "name": "",
          "type": "uint256"
        }
      ],
      "payable": false,
      "stateMutability": "view",
      "type": "function"
    },
    {
      "constant": true,
      "inputs": [],
      "name": "owner",
      "outputs": [
        {
          "name": "",
          "type": "address"
        }
      ],
      "payable": false,
      "stateMutability": "view",
      "type": "function"
    },
    {
      "constant": true,
      "inputs": [
        {
          "name": "",
          "type": "uint256"
        }
      ],
      "name": "buckets",
      "outputs": [
        {
          "name": "valuation",
          "type": "uint256"
        },
        {
          "name": "creator",
          "type": "address"
        }
      ],
      "payable": false,
      "stateMutability": "view",
      "type": "function"
    },
    {
      "constant": true,
      "inputs": [],
      "name": "maxValuation",
      "outputs": [
        {
          "name": "",
          "type": "uint256"
        }
      ],
      "payable": false,
      "stateMutability": "view",
      "type": "function"
    },
    {
      "constant": true,
      "inputs": [],
      "name": "minValuation",
      "outputs": [
        {
          "name": "",
          "type": "uint256"
        }
      ],
      "payable": false,
      "stateMutability": "view",
      "type": "function"
    },
    {
      "constant": true,
      "inputs": [],
      "name": "maximumBaseContribution",
      "outputs": [
        {
          "name": "",
          "type": "uint256"
        }
      ],
      "payable": false,
      "stateMutability": "view",
      "type": "function"
    },
    {
      "constant": true,
      "inputs": [],
      "name": "finalized",
      "outputs": [
        {
          "name": "",
          "type": "bool"
        }
      ],
      "payable": false,
      "stateMutability": "view",
      "type": "function"
    },
    {
      "constant": true,
      "inputs": [],
      "name": "numBuckets",
      "outputs": [
        {
          "name": "",
          "type": "uint256"
        }
      ],
      "payable": false,
      "stateMutability": "view",
      "type": "function"
    },
    {
      "constant": true,
      "inputs": [
        {
          "name": "",
          "type": "address"
        }
      ],
      "name": "reinforcedWhitelist",
      "outputs": [
        {
          "name": "",
          "type": "bool"
        }
      ],
      "payable": false,
      "stateMutability": "view",
      "type": "function"
    },
    {
      "constant": true,
      "inputs": [],
      "name": "increment",
      "outputs": [
        {
          "name": "",
          "type": "uint256"
        }
      ],
      "payable": false,
      "stateMutability": "view",
      "type": "function"
    },
    {
      "constant": false,
      "inputs": [
        {
          "name": "_bidID",
          "type": "uint256"
        }
      ],
      "name": "redeem",
      "outputs": [],
      "payable": false,
      "stateMutability": "nonpayable",
      "type": "function"
    },
    {
      "constant": true,
      "inputs": [],
      "name": "sumAcceptedContrib",
      "outputs": [
        {
          "name": "",
          "type": "uint256"
        }
      ],
      "payable": false,
      "stateMutability": "view",
      "type": "function"
    },
    {
      "constant": true,
      "inputs": [
        {
          "name": "_bucketid",
          "type": "uint256"
        }
      ],
      "name": "bucketMinBids",
      "outputs": [
        {
          "name": "minBids",
          "type": "uint256[]"
        }
      ],
      "payable": false,
      "stateMutability": "view",
      "type": "function"
    },
    {
      "constant": true,
      "inputs": [],
      "name": "endFullBonusTime",
      "outputs": [
        {
          "name": "",
          "type": "uint256"
        }
      ],
      "payable": false,
      "stateMutability": "view",
      "type": "function"
    },
    {
      "constant": true,
      "inputs": [],
      "name": "token",
      "outputs": [
        {
          "name": "",
          "type": "address"
        }
      ],
      "payable": false,
      "stateMutability": "view",
      "type": "function"
    },
    {
      "inputs": [
        {
          "name": "_startTime",
          "type": "uint256"
        },
        {
          "name": "_fullBonusLength",
          "type": "uint256"
        },
        {
          "name": "_partialWithdrawalLength",
          "type": "uint256"
        },
        {
          "name": "_withdrawalLockUpLength",
          "type": "uint256"
        },
        {
          "name": "_maxBonus",
          "type": "uint256"
        },
        {
          "name": "_beneficiary",
          "type": "address"
        },
        {
          "name": "_maximumBaseContribution",
          "type": "uint256"
        },
        {
          "name": "_minValuation",
          "type": "uint256"
        },
        {
          "name": "_maxValuation",
          "type": "uint256"
        },
        {
          "name": "_increment",
          "type": "uint256"
        }
      ],
      "payable": false,
      "stateMutability": "nonpayable",
      "type": "constructor"
    },
    {
      "payable": true,
      "stateMutability": "payable",
      "type": "fallback"
    },
    {
      "anonymous": false,
      "inputs": [
        {
          "indexed": true,
          "name": "contributor",
          "type": "address"
        },
        {
          "indexed": true,
          "name": "bidID",
          "type": "uint256"
        },
        {
          "indexed": true,
          "name": "time",
          "type": "uint256"
        }
      ],
      "name": "BidSubmitted",
      "type": "event"
    },
    {
      "anonymous": false,
      "inputs": [
        {
          "indexed": true,
          "name": "poker",
          "type": "address"
        },
        {
          "indexed": true,
          "name": "bidID",
          "type": "uint256"
        }
      ],
      "name": "Poked",
      "type": "event"
    },
    {
      "constant": false,
      "inputs": [
        {
          "name": "_maxValuation",
          "type": "uint256"
        },
        {
          "name": "_next",
          "type": "uint256"
        }
      ],
      "name": "submitBid",
      "outputs": [],
      "payable": true,
      "stateMutability": "payable",
      "type": "function"
    },
    {
      "constant": false,
      "inputs": [
        {
          "name": "_whitelister",
          "type": "address"
        }
      ],
      "name": "setWhitelister",
      "outputs": [],
      "payable": false,
      "stateMutability": "nonpayable",
      "type": "function"
    },
    {
      "constant": false,
      "inputs": [
        {
          "name": "_buyersToWhitelist",
          "type": "address[]"
        }
      ],
      "name": "addBaseWhitelist",
      "outputs": [],
      "payable": false,
      "stateMutability": "nonpayable",
      "type": "function"
    },
    {
      "constant": false,
      "inputs": [
        {
          "name": "_buyersToWhitelist",
          "type": "address[]"
        }
      ],
      "name": "addReinforcedWhitelist",
      "outputs": [],
      "payable": false,
      "stateMutability": "nonpayable",
      "type": "function"
    },
    {
      "constant": false,
      "inputs": [
        {
          "name": "_buyersToRemove",
          "type": "address[]"
        }
      ],
      "name": "removeBaseWhitelist",
      "outputs": [],
      "payable": false,
      "stateMutability": "nonpayable",
      "type": "function"
    },
    {
      "constant": false,
      "inputs": [
        {
          "name": "_buyersToRemove",
          "type": "address[]"
        }
      ],
      "name": "removeReinforcedWhitelist",
      "outputs": [],
      "payable": false,
      "stateMutability": "nonpayable",
      "type": "function"
    }
  ],
  "bytecode": "0x608060405260006005557fffffffffffffffffffffffffffffffffffffffffffffffffffffffffffffffff6012553480156200003a57600080fd5b506040516101408062002e5c83398101806040528101908080519060200190929190805190602001909291908051906020019092919080519060200190929190805190602001909291908051906020019092919080519060200190929190805190602001909291908051906020019092919080519060200190929190505050898989898989888888336000806101000a81548173ffffffffffffffffffffffffffffffffffffffff021916908373ffffffffffffffffffffffffffffffffffffffff1602179055508860068190555087600654016007819055508660075401600881905550856008540160098190555084600c8190555083600160006101000a81548173ffffffffffffffffffffffffffffffffffffffff021916908373ffffffffffffffffffffffffffffffffffffffff16021790555081600e8190555082600d8190555080600f819055506001600f54600d54600e54038115156200019d57fe5b0401601081905550608060405190810160405280600d5481526020013373ffffffffffffffffffffffffffffffffffffffff1681526020016000604051908082528060200260200182016040528015620002065781602001602082028038833980820191505090505b50815260200160006040519080825280602002602001820160405280156200023d5781602001602082028038833980820191505090505b50815250600360008081526020019081526020016000206000820151816000015560208201518160010160006101000a81548173ffffffffffffffffffffffffffffffffffffffff021916908373ffffffffffffffffffffffffffffffffffffffff1602179055506040820151816002019080519060200190620002c39291906200044c565b506060820151816003019080519060200190620002e29291906200044c565b50905050608060405190810160405280600e5481526020013373ffffffffffffffffffffffffffffffffffffffff1681526020016000604051908082528060200260200182016040528015620003475781602001602082028038833980820191505090505b50815260200160006040519080825280602002602001820160405280156200037e5781602001602082028038833980820191505090505b508152506003600060016010540381526020019081526020016000206000820151816000015560208201518160010160006101000a81548173ffffffffffffffffffffffffffffffffffffffff021916908373ffffffffffffffffffffffffffffffffffffffff1602179055506040820151816002019080519060200190620004099291906200044c565b506060820151816003019080519060200190620004289291906200044c565b509050505050505050505050508360158190555050505050505050505050620004c6565b8280548282559060005260206000209081019282156200048b579160200282015b828111156200048a5782518255916020019190600101906200046d565b5b5090506200049a91906200049e565b5090565b620004c391905b80821115620004bf576000816000905550600101620004a5565b5090565b90565b61298680620004d66000396000f3006080604052600436106101e3576000357c0100000000000000000000000000000000000000000000000000000000900463ffffffff168063106c6441146103c157806312aef8c314610427578063144fa6d714610452578063152713b3146104955780631552cb04146104c05780631ae9fe6a146105265780631def6bad1461055157806322758a4a146105b25780632c2f93d5146106095780632e1a7d4d146106645780633197cbb61461069157806332145f90146106bc57806334f732e8146106e957806338af3eed146107145780634423c5f11461076b57806354c5b6961461082357806357f196fa1461084e5780635e7c85b11461087957806372a2fee0146108d057806375b4d78c1461095257806378e979251461097d57806380999b71146109a85780638da5cb5b14610a0e5780639b51fb0d14610a65578063a79fb0c214610ad9578063aac1660314610b04578063b196aabb14610b2f578063b3f05b9714610b5a578063b821da1b14610b89578063bfdcc9a214610bb3578063c1f6004514610bde578063d09de08a14610c39578063db006a7514610c64578063dc382cbf14610c91578063ea9ad4a514610cbc578063f0d6cc7014610d3e578063f98f5b9214610d69578063fc0c546a14610dac578063ffbd26ce14610e03575b60008034141580156101f757506006544210155b8015610204575060095442105b15610258576102537ffffffffffffffffffffffffffffffffffffffffffffffffffffffffffffffffe7fffffffffffffffffffffffffffffffffffffffffffffffffffffffffffffffff610e69565b6103be565b6000341480156102745750601160009054906101000a900460ff165b156103b857600090505b600460003373ffffffffffffffffffffffffffffffffffffffff1673ffffffffffffffffffffffffffffffffffffffff168152602001908152602001600020805490508110156103b35760026000600460003373ffffffffffffffffffffffffffffffffffffffff1673ffffffffffffffffffffffffffffffffffffffff1681526020019081526020016000208381548110151561031857fe5b9060005260206000200154815260200190815260200160002060040160159054906101000a900460ff1615156103a8576103a7600460003373ffffffffffffffffffffffffffffffffffffffff1673ffffffffffffffffffffffffffffffffffffffff1681526020019081526020016000208281548110151561039757fe5b9060005260206000200154610f3b565b5b80600101905061027e565b6103bd565b600080fd5b5b50005b3480156103cd57600080fd5b50610425600480360381019080803590602001908201803590602001908080602002602001604051908101604052809392919081815260200183836020028082843782019150505050505091929192905050506111c9565b005b34801561043357600080fd5b5061043c6112b3565b6040518082815260200191505060405180910390f35b34801561045e57600080fd5b50610493600480360381019080803573ffffffffffffffffffffffffffffffffffffffff1690602001909291905050506112b9565b005b3480156104a157600080fd5b506104aa6114b3565b6040518082815260200191505060405180910390f35b3480156104cc57600080fd5b50610524600480360381019080803590602001908201803590602001908080602002602001604051908101604052809392919081815260200183836020028082843782019150505050505091929192905050506114b9565b005b34801561053257600080fd5b5061053b6115a3565b6040518082815260200191505060405180910390f35b34801561055d57600080fd5b5061059c600480360381019080803573ffffffffffffffffffffffffffffffffffffffff169060200190929190803590602001909291905050506115a9565b6040518082815260200191505060405180910390f35b3480156105be57600080fd5b506105c76115d9565b604051808273ffffffffffffffffffffffffffffffffffffffff1673ffffffffffffffffffffffffffffffffffffffff16815260200191505060405180910390f35b34801561061557600080fd5b5061064a600480360381019080803573ffffffffffffffffffffffffffffffffffffffff1690602001909291905050506115ff565b604051808215151515815260200191505060405180910390f35b34801561067057600080fd5b5061068f6004803603810190808035906020019092919050505061161f565b005b34801561069d57600080fd5b506106a66117fc565b6040518082815260200191505060405180910390f35b3480156106c857600080fd5b506106e760048036038101908080359060200190929190505050611802565b005b3480156106f557600080fd5b506106fe611a21565b6040518082815260200191505060405180910390f35b34801561072057600080fd5b50610729611a27565b604051808273ffffffffffffffffffffffffffffffffffffffff1673ffffffffffffffffffffffffffffffffffffffff16815260200191505060405180910390f35b34801561077757600080fd5b5061079660048036038101908080359060200190929190505050611a4d565b604051808b81526020018a81526020018981526020018881526020018773ffffffffffffffffffffffffffffffffffffffff1673ffffffffffffffffffffffffffffffffffffffff1681526020018615151515815260200185151515158152602001841515151581526020018381526020018281526020019a505050505050505050505060405180910390f35b34801561082f57600080fd5b50610838611ae8565b6040518082815260200191505060405180910390f35b34801561085a57600080fd5b50610863611aee565b6040518082815260200191505060405180910390f35b34801561088557600080fd5b506108ba600480360381019080803573ffffffffffffffffffffffffffffffffffffffff169060200190929190505050611af4565b6040518082815260200191505060405180910390f35b3480156108dc57600080fd5b506108fb60048036038101908080359060200190929190505050611bc8565b6040518080602001828103825283818151815260200191508051906020019060200280838360005b8381101561093e578082015181840152602081019050610923565b505050509050019250505060405180910390f35b34801561095e57600080fd5b50610967611ce4565b6040518082815260200191505060405180910390f35b34801561098957600080fd5b50610992611d2d565b6040518082815260200191505060405180910390f35b3480156109b457600080fd5b50610a0c60048036038101908080359060200190820180359060200190808060200260200160405190810160405280939291908181526020018383602002808284378201915050505050509192919290505050611d33565b005b348015610a1a57600080fd5b50610a23611e1d565b604051808273ffffffffffffffffffffffffffffffffffffffff1673ffffffffffffffffffffffffffffffffffffffff16815260200191505060405180910390f35b348015610a7157600080fd5b50610a9060048036038101908080359060200190929190505050611e42565b604051808381526020018273ffffffffffffffffffffffffffffffffffffffff1673ffffffffffffffffffffffffffffffffffffffff1681526020019250505060405180910390f35b348015610ae557600080fd5b50610aee611e86565b6040518082815260200191505060405180910390f35b348015610b1057600080fd5b50610b19611e8c565b6040518082815260200191505060405180910390f35b348015610b3b57600080fd5b50610b44611e92565b6040518082815260200191505060405180910390f35b348015610b6657600080fd5b50610b6f611e98565b604051808215151515815260200191505060405180910390f35b610bb16004803603810190808035906020019092919080359060200190929190505050610e69565b005b348015610bbf57600080fd5b50610bc8611eab565b6040518082815260200191505060405180910390f35b348015610bea57600080fd5b50610c1f600480360381019080803573ffffffffffffffffffffffffffffffffffffffff169060200190929190505050611eb1565b604051808215151515815260200191505060405180910390f35b348015610c4557600080fd5b50610c4e611ed1565b6040518082815260200191505060405180910390f35b348015610c7057600080fd5b50610c8f60048036038101908080359060200190929190505050610f3b565b005b348015610c9d57600080fd5b50610ca6611ed7565b6040518082815260200191505060405180910390f35b348015610cc857600080fd5b50610ce760048036038101908080359060200190929190505050611edd565b6040518080602001828103825283818151815260200191508051906020019060200280838360005b83811015610d2a578082015181840152602081019050610d0f565b505050509050019250505060405180910390f35b348015610d4a57600080fd5b50610d53611ff9565b6040518082815260200191505060405180910390f35b348015610d7557600080fd5b50610daa600480360381019080803573ffffffffffffffffffffffffffffffffffffffff169060200190929190505050611fff565b005b348015610db857600080fd5b50610dc161209e565b604051808273ffffffffffffffffffffffffffffffffffffffff1673ffffffffffffffffffffffffffffffffffffffff16815260200191505060405180910390f35b348015610e0f57600080fd5b50610e67600480360381019080803590602001908201803590602001908080602002602001604051908101604052809392919081815260200183836020028082843782019150505050505091929192905050506120c4565b005b601760003373ffffffffffffffffffffffffffffffffffffffff1673ffffffffffffffffffffffffffffffffffffffff16815260200190815260200160002060009054906101000a900460ff1680610f225750601660003373ffffffffffffffffffffffffffffffffffffffff1673ffffffffffffffffffffffffffffffffffffffff16815260200190815260200160002060009054906101000a900460ff168015610f215750601554610f1c33611af4565b340111155b5b1515610f2d57600080fd5b610f3782826121ae565b5050565b6000806002600084815260200190815260200160002091506002600060125481526020019081526020016000209050601160009054906101000a900460ff161515610f8557600080fd5b8160040160159054906101000a900460ff16151515610fa357600080fd5b60018260040160156101000a81548160ff021916908315150217905550806000015482600001541180610feb575080600001548260000154148015610fea57506012548310155b5b1561115457600a60009054906101000a900473ffffffffffffffffffffffffffffffffffffffff1673ffffffffffffffffffffffffffffffffffffffff1663a9059cbb8360040160009054906101000a900473ffffffffffffffffffffffffffffffffffffffff16601454633b9aca00866003015487600201540281151561106f57fe5b04866002015401600b540281151561108357fe5b046040518363ffffffff167c0100000000000000000000000000000000000000000000000000000000028152600401808373ffffffffffffffffffffffffffffffffffffffff1673ffffffffffffffffffffffffffffffffffffffff16815260200182815260200192505050602060405180830381600087803b15801561110957600080fd5b505af115801561111d573d6000803e3d6000fd5b505050506040513d602081101561113357600080fd5b8101908080519060200190929190505050151561114f57600080fd5b6111c4565b8160040160009054906101000a900473ffffffffffffffffffffffffffffffffffffffff1673ffffffffffffffffffffffffffffffffffffffff166108fc83600201549081150290604051600060405180830381858888f193505050501580156111c2573d6000803e3d6000fd5b505b505050565b60003373ffffffffffffffffffffffffffffffffffffffff16601860009054906101000a900473ffffffffffffffffffffffffffffffffffffffff1673ffffffffffffffffffffffffffffffffffffffff1614151561122757600080fd5b600090505b81518110156112af57600060176000848481518110151561124957fe5b9060200190602002015173ffffffffffffffffffffffffffffffffffffffff1673ffffffffffffffffffffffffffffffffffffffff16815260200190815260200160002060006101000a81548160ff02191690831515021790555080600101905061122c565b5050565b600b5481565b3373ffffffffffffffffffffffffffffffffffffffff166000809054906101000a900473ffffffffffffffffffffffffffffffffffffffff1673ffffffffffffffffffffffffffffffffffffffff1614151561131457600080fd5b600073ffffffffffffffffffffffffffffffffffffffff16600a60009054906101000a900473ffffffffffffffffffffffffffffffffffffffff1673ffffffffffffffffffffffffffffffffffffffff1614151561137157600080fd5b80600a60006101000a81548173ffffffffffffffffffffffffffffffffffffffff021916908373ffffffffffffffffffffffffffffffffffffffff160217905550600a60009054906101000a900473ffffffffffffffffffffffffffffffffffffffff1673ffffffffffffffffffffffffffffffffffffffff166370a08231306040518263ffffffff167c0100000000000000000000000000000000000000000000000000000000028152600401808273ffffffffffffffffffffffffffffffffffffffff1673ffffffffffffffffffffffffffffffffffffffff168152602001915050602060405180830381600087803b15801561146f57600080fd5b505af1158015611483573d6000803e3d6000fd5b505050506040513d602081101561149957600080fd5b8101908080519060200190929190505050600b8190555050565b60145481565b60003373ffffffffffffffffffffffffffffffffffffffff16601860009054906101000a900473ffffffffffffffffffffffffffffffffffffffff1673ffffffffffffffffffffffffffffffffffffffff1614151561151757600080fd5b600090505b815181101561159f57600160166000848481518110151561153957fe5b9060200190602002015173ffffffffffffffffffffffffffffffffffffffff1673ffffffffffffffffffffffffffffffffffffffff16815260200190815260200160002060006101000a81548160ff02191690831515021790555080600101905061151c565b5050565b60125481565b6004602052816000526040600020818154811015156115c457fe5b90600052602060002001600091509150505481565b601860009054906101000a900473ffffffffffffffffffffffffffffffffffffffff1681565b60166020528060005260406000206000915054906101000a900460ff1681565b6000806002600084815260200190815260200160002091508160040160009054906101000a900473ffffffffffffffffffffffffffffffffffffffff1673ffffffffffffffffffffffffffffffffffffffff163373ffffffffffffffffffffffffffffffffffffffff1614151561169557600080fd5b600854421015156116a557600080fd5b8160040160149054906101000a900460ff161515156116c357600080fd5b60018260040160146101000a81548160ff02191690831515021790555060008260040160166101000a81548160ff02191690831515021790555060075442106117275760075460085403426008540383600201540281151561172157fe5b0461172d565b81600201545b90508160020154811115151561173f57fe5b8082600201600082825403925050819055506003600283600301540281151561176457fe5b0482600301819055508060136000828254039250508190555080633b9aca006002028260030284600201540184600301540281151561179f57fe5b04016014600082825403925050819055503373ffffffffffffffffffffffffffffffffffffffff166108fc829081150290604051600060405180830381858888f193505050501580156117f6573d6000803e3d6000fd5b50505050565b60095481565b6000600260008381526020019081526020016000209050600073ffffffffffffffffffffffffffffffffffffffff168160040160009054906101000a900473ffffffffffffffffffffffffffffffffffffffff1673ffffffffffffffffffffffffffffffffffffffff161415151561187957600080fd5b8060040160169054906101000a900460ff161561195857806000015460135411806118a957508060010154601354105b156119535760008160040160166101000a81548160ff0219169083151502179055508060020154601360008282540392505081905550633b9aca0081600301548260020154028115156118f857fe5b04816002015401601460008282540392505081905550813373ffffffffffffffffffffffffffffffffffffffff167f4889d7d38c1d1f265318505a98367d07d41591d6b7f9cc000f37ea92b8311daa60405160405180910390a35b611a1d565b806000015460135410801561197257508060010154601354115b15611a1c5760018160040160166101000a81548160ff0219169083151502179055508060020154601360008282540192505081905550633b9aca0081600301548260020154028115156119c157fe5b04816002015401601460008282540192505081905550813373ffffffffffffffffffffffffffffffffffffffff167f4889d7d38c1d1f265318505a98367d07d41591d6b7f9cc000f37ea92b8311daa60405160405180910390a35b5b5050565b60085481565b600160009054906101000a900473ffffffffffffffffffffffffffffffffffffffff1681565b60026020528060005260406000206000915090508060000154908060010154908060020154908060030154908060040160009054906101000a900473ffffffffffffffffffffffffffffffffffffffff16908060040160149054906101000a900460ff16908060040160159054906101000a900460ff16908060040160169054906101000a900460ff1690806005015490806006015490508a565b600c5481565b60055481565b600080600090505b600460008473ffffffffffffffffffffffffffffffffffffffff1673ffffffffffffffffffffffffffffffffffffffff16815260200190815260200160002080549050811015611bc25760026000600460008673ffffffffffffffffffffffffffffffffffffffff1673ffffffffffffffffffffffffffffffffffffffff16815260200190815260200160002083815481101515611b9657fe5b906000526020600020015481526020019081526020016000206002015482019150806001019050611afc565b50919050565b6060600080600360008581526020019081526020016000209150600073ffffffffffffffffffffffffffffffffffffffff168260010160009054906101000a900473ffffffffffffffffffffffffffffffffffffffff1673ffffffffffffffffffffffffffffffffffffffff161415611c4357829250611cdd565b8160020180549050604051908082528060200260200182016040528015611c795781602001602082028038833980820191505090505b50925060009050600090505b8160020180549050811015611cd9578160020181815481101515611ca557fe5b90600052602060002001548382815181101515611cbe57fe5b90602001906020020181815250508080600101915050611c85565b8292505b5050919050565b6000600754421015611cfa57600c549050611d2a565b600954421115611d0d5760009050611d2a565b600754600954034260095403600c5402811515611d2657fe5b0490505b90565b60065481565b60003373ffffffffffffffffffffffffffffffffffffffff16601860009054906101000a900473ffffffffffffffffffffffffffffffffffffffff1673ffffffffffffffffffffffffffffffffffffffff16141515611d9157600080fd5b600090505b8151811015611e19576000601660008484815181101515611db357fe5b9060200190602002015173ffffffffffffffffffffffffffffffffffffffff1673ffffffffffffffffffffffffffffffffffffffff16815260200190815260200160002060006101000a81548160ff021916908315150217905550806001019050611d96565b5050565b6000809054906101000a900473ffffffffffffffffffffffffffffffffffffffff1681565b60036020528060005260406000206000915090508060000154908060010160009054906101000a900473ffffffffffffffffffffffffffffffffffffffff16905082565b600e5481565b600d5481565b60155481565b601160009054906101000a900460ff1681565b60105481565b60176020528060005260406000206000915054906101000a900460ff1681565b600f5481565b60135481565b6060600080600360008581526020019081526020016000209150600073ffffffffffffffffffffffffffffffffffffffff168260010160009054906101000a900473ffffffffffffffffffffffffffffffffffffffff1673ffffffffffffffffffffffffffffffffffffffff161415611f5857829250611ff2565b8160030180549050604051908082528060200260200182016040528015611f8e5781602001602082028038833980820191505090505b50925060009050600090505b8160030180549050811015611fee578160030181815481101515611fba57fe5b90600052602060002001548382815181101515611fd357fe5b90602001906020020181815250508080600101915050611f9a565b8292505b5050919050565b60075481565b3373ffffffffffffffffffffffffffffffffffffffff166000809054906101000a900473ffffffffffffffffffffffffffffffffffffffff1673ffffffffffffffffffffffffffffffffffffffff1614151561205a57600080fd5b80601860006101000a81548173ffffffffffffffffffffffffffffffffffffffff021916908373ffffffffffffffffffffffffffffffffffffffff16021790555050565b600a60009054906101000a900473ffffffffffffffffffffffffffffffffffffffff1681565b60003373ffffffffffffffffffffffffffffffffffffffff16601860009054906101000a900473ffffffffffffffffffffffffffffffffffffffff1673ffffffffffffffffffffffffffffffffffffffff1614151561212257600080fd5b600090505b81518110156121aa57600160176000848481518110151561214457fe5b9060200190602002015173ffffffffffffffffffffffffffffffffffffffff1673ffffffffffffffffffffffffffffffffffffffff16815260200190815260200160002060006101000a81548160ff021916908315150217905550806001019050612127565b5050565b60008060008060065442101580156121c7575060095442105b15156121d257600080fd5b600d5486101580156121e357508486115b15156121ee57600080fd5b6000600f54600d54880381151561220157fe5b0614151561220e57600080fd5b6000600f54600d54870381151561222157fe5b0614151561222e57600080fd5b600f54600d54860381151561223f57fe5b049350600f54600d54870381151561225357fe5b049250600073ffffffffffffffffffffffffffffffffffffffff166003600086815260200190815260200160002060010160009054906101000a900473ffffffffffffffffffffffffffffffffffffffff1673ffffffffffffffffffffffffffffffffffffffff1614156123fb576080604051908101604052808681526020013373ffffffffffffffffffffffffffffffffffffffff168152602001600060405190808252806020026020018201604052801561231f5781602001602082028038833980820191505090505b50815260200160006040519080825280602002602001820160405280156123555781602001602082028038833980820191505090505b50815250600360008681526020019081526020016000206000820151816000015560208201518160010160006101000a81548173ffffffffffffffffffffffffffffffffffffffff021916908373ffffffffffffffffffffffffffffffffffffffff16021790555060408201518160020190805190602001906123d99291906128e8565b5060608201518160030190805190602001906123f69291906128e8565b509050505b600073ffffffffffffffffffffffffffffffffffffffff166003600085815260200190815260200160002060010160009054906101000a900473ffffffffffffffffffffffffffffffffffffffff1673ffffffffffffffffffffffffffffffffffffffff1614156125a0576080604051908101604052808781526020013373ffffffffffffffffffffffffffffffffffffffff16815260200160006040519080825280602002602001820160405280156124c45781602001602082028038833980820191505090505b50815260200160006040519080825280602002602001820160405280156124fa5781602001602082028038833980820191505090505b50815250600360008581526020019081526020016000206000820151816000015560208201518160010160006101000a81548173ffffffffffffffffffffffffffffffffffffffff021916908373ffffffffffffffffffffffffffffffffffffffff160217905550604082015181600201908051906020019061257e9291906128e8565b50606082015181600301908051906020019061259b9291906128e8565b509050505b60036000848152602001908152602001600020915060056000815460010191905081905550610140604051908101604052808781526020018681526020013481526020016125ec611ce4565b81526020013373ffffffffffffffffffffffffffffffffffffffff16815260200160001515815260200160001515815260200187346013540111806126345750863460135401105b61263f576001612642565b60005b15158152602001858152602001848152506002600060055481526020019081526020016000206000820151816000015560208201518160010155604082015181600201556060820151816003015560808201518160040160006101000a81548173ffffffffffffffffffffffffffffffffffffffff021916908373ffffffffffffffffffffffffffffffffffffffff16021790555060a08201518160040160146101000a81548160ff02191690831515021790555060c08201518160040160156101000a81548160ff02191690831515021790555060e08201518160040160166101000a81548160ff0219169083151502179055506101008201518160050155610120820151816006015590505060026000600554815260200190815260200160002090508060020154601360008282540192505081905550633b9aca00816003015482600201540281151561279457fe5b04816002015401601460008282540192505081905550600360008481526020019081526020016000206002016005549080600181540180825580915050906001820390600052602060002001600090919290919091505550600360008581526020019081526020016000206003016005549080600181540180825580915050906001820390600052602060002001600090919290919091505550600460003373ffffffffffffffffffffffffffffffffffffffff1673ffffffffffffffffffffffffffffffffffffffff1681526020019081526020016000206005549080600181540180825580915050906001820390600052602060002001600090919290919091505550426005543373ffffffffffffffffffffffffffffffffffffffff167f84bee513033536a8de8a8260e2674a4a3eebd61ddce74615fdeca8a1499f5efe60405160405180910390a4505050505050565b828054828255906000526020600020908101928215612924579160200282015b82811115612923578251825591602001919060010190612908565b5b5090506129319190612935565b5090565b61295791905b8082111561295357600081600090555060010161293b565b5090565b905600a165627a7a723058206f13c57792f35537cc1ebf52e3650d77430440898123d5b3524763140458cb5a0029",
  "source": "/** @title Level Whitelisted Interactive Coin Offering\n *  @author Clment Lesaege - <clement@lesaege.com>\n */\n\npragma solidity ^0.4.23;\n\nimport \"./IICO.sol\";\n\n/** @title Level Whitelisted Interactive Coin Offering\n *  This contract implements an Interactive Coin Offering with two whitelists:\n *  - The base one, with limited contribution.\n *  - The reinforced one, with unlimited contribution.\n */\ncontract LevelWhitelistedIICO is IICO {\n    \n    uint public maximumBaseContribution;\n    mapping (address => bool) public baseWhitelist; // True if in the base whitelist (has a contribution limit).\n    mapping (address => bool) public reinforcedWhitelist; // True if in the reinforced whitelist (does not have a contribution limit).\n    address public whitelister; // The party which can add or remove people from the whitelist.\n    \n    modifier onlyWhitelister{ require(whitelister == msg.sender); _; }\n    \n    /** @dev Constructor. First contract set up (tokens will also need to be transferred to the contract and then setToken needs to be called to finish the setup).\n     *  @param _startTime Time the sale will start in seconds since the Unix Epoch.\n     *  @param _fullBonusLength Amount of seconds the sale lasts in the full bonus period.\n     *  @param _partialWithdrawalLength Amount of seconds the sale lasts in the partial withdrawal period.\n     *  @param _withdrawalLockUpLength Amount of seconds the sale lasts in the withdrawal lockup period.\n     *  @param _maxBonus The maximum bonus. Will be normalized by BONUS_DIVISOR. For example for a 20% bonus, _maxBonus must be 0.2 * BONUS_DIVISOR.\n     *  @param _beneficiary The party which will get the funds of the token sale.\n     *  @param _maximumBaseContribution The maximum contribution for buyers on the base list.\n     */\n    function LevelWhitelistedIICO(uint _startTime, uint _fullBonusLength, uint _partialWithdrawalLength, uint _withdrawalLockUpLength, uint _maxBonus, address _beneficiary, uint _maximumBaseContribution, uint _minValuation, uint _maxValuation, uint _increment) IICO(_startTime,_fullBonusLength,_partialWithdrawalLength,_withdrawalLockUpLength,_maxBonus,_beneficiary,_minValuation,_maxValuation,_increment) public {\n        maximumBaseContribution=_maximumBaseContribution;\n    }\n    \n    /** @dev Submit a bid. The caller must give the exact position the bid must be inserted into in the list.\n     *  In practice, use searchAndBid to avoid the position being incorrect due to a new bid being inserted and changing the position the bid must be inserted at.\n     *  @param _maxValuation The maximum valuation given by the contributor. If the amount raised is higher, the bid is cancelled and the contributor refunded because it prefers a refund instead of this level of dilution. To buy no matter what, use INFINITY.\n     *  @param _next The bidID of the next bid in the list.\n     */\n    function submitBid(uint _maxValuation, uint _next) public payable {\n        require(reinforcedWhitelist[msg.sender] || (baseWhitelist[msg.sender] && (msg.value + totalContrib(msg.sender) <= maximumBaseContribution))); // Check if the buyer is in the reinforced whitelist or if it is on the base one and this would not make its total contribution exceed the limit.\n        super.submitBid(_maxValuation,_next);\n    }\n    \n    /** @dev Set the whitelister.\n     *  @param _whitelister The whitelister.\n     */\n    function setWhitelister(address _whitelister) public onlyOwner {\n        whitelister=_whitelister;\n    }\n    \n    /** @dev Add buyers to the base whitelist.\n     *  @param _buyersToWhitelist Buyers to add to the whitelist.\n     */\n    function addBaseWhitelist(address[] _buyersToWhitelist) public onlyWhitelister {\n        for(uint i=0;i<_buyersToWhitelist.length;++i)\n            baseWhitelist[_buyersToWhitelist[i]]=true;\n    }\n    \n    /** @dev Add buyers to the reinforced whitelist.\n     *  @param _buyersToWhitelist Buyers to add to the whitelist.\n     */\n    function addReinforcedWhitelist(address[] _buyersToWhitelist) public onlyWhitelister {\n        for(uint i=0;i<_buyersToWhitelist.length;++i)\n            reinforcedWhitelist[_buyersToWhitelist[i]]=true;\n    }\n    \n    /** @dev Remove buyers from the base whitelist.\n     *  @param _buyersToRemove Buyers to remove from the whitelist.\n     */\n    function removeBaseWhitelist(address[] _buyersToRemove) public onlyWhitelister {\n        for(uint i=0;i<_buyersToRemove.length;++i)\n            baseWhitelist[_buyersToRemove[i]]=false;\n    }\n    \n    /** @dev Remove buyers from the reinforced whitelist.\n     *  @param _buyersToRemove Buyers to remove from the whitelist.\n     */\n    function removeReinforcedWhitelist(address[] _buyersToRemove) public onlyWhitelister {\n        for(uint i=0;i<_buyersToRemove.length;++i)\n            reinforcedWhitelist[_buyersToRemove[i]]=false;\n    }\n\n}\n",
  "sourcePath": "/home/surya/projects/truebit/interactive-coin-offerings/truebit-implementation/contracts/LevelWhitelistedIICO.sol",
  "compiler": {
    "name": "solc",
    "version": "0.4.24+commit.e67f0147.Emscripten.clang"
  },
  "schemaVersion": "2.0.1",
  "updatedAt": "2018-11-25T22:07:22.247Z"
}