{
  "contractName": "LevelWhitelistedIICO",
  "abi": [
    {
      "constant": true,
      "inputs": [],
      "name": "tokensForSale",
      "outputs": [
        {
          "name": "",
          "type": "uint256"
        }
      ],
      "payable": false,
      "stateMutability": "view",
      "type": "function"
    },
    {
      "constant": false,
      "inputs": [
        {
          "name": "_token",
          "type": "address"
        }
      ],
      "name": "setToken",
      "outputs": [],
      "payable": false,
      "stateMutability": "nonpayable",
      "type": "function"
    },
    {
      "constant": true,
      "inputs": [],
      "name": "sumAcceptedVirtualContrib",
      "outputs": [
        {
          "name": "",
          "type": "uint256"
        }
      ],
      "payable": false,
      "stateMutability": "view",
      "type": "function"
    },
    {
      "constant": true,
      "inputs": [],
      "name": "cutOffBidID",
      "outputs": [
        {
          "name": "",
          "type": "uint256"
        }
      ],
      "payable": false,
      "stateMutability": "view",
      "type": "function"
    },
    {
      "constant": true,
      "inputs": [
        {
          "name": "",
          "type": "address"
        },
        {
          "name": "",
          "type": "uint256"
        }
      ],
      "name": "contributorBidIDs",
      "outputs": [
        {
          "name": "",
          "type": "uint256"
        }
      ],
      "payable": false,
      "stateMutability": "view",
      "type": "function"
    },
    {
      "constant": true,
      "inputs": [],
      "name": "whitelister",
      "outputs": [
        {
          "name": "",
          "type": "address"
        }
      ],
      "payable": false,
      "stateMutability": "view",
      "type": "function"
    },
    {
      "constant": true,
      "inputs": [],
      "name": "currentValuation",
      "outputs": [
        {
          "name": "",
          "type": "uint256"
        }
      ],
      "payable": false,
      "stateMutability": "view",
      "type": "function"
    },
    {
      "constant": true,
      "inputs": [
        {
          "name": "",
          "type": "address"
        }
      ],
      "name": "baseWhitelist",
      "outputs": [
        {
          "name": "",
          "type": "bool"
        }
      ],
      "payable": false,
      "stateMutability": "view",
      "type": "function"
    },
    {
      "constant": false,
      "inputs": [
        {
          "name": "_bidID",
          "type": "uint256"
        }
      ],
      "name": "withdraw",
      "outputs": [],
      "payable": false,
      "stateMutability": "nonpayable",
      "type": "function"
    },
    {
      "constant": true,
      "inputs": [],
      "name": "endTime",
      "outputs": [
        {
          "name": "",
          "type": "uint256"
        }
      ],
      "payable": false,
      "stateMutability": "view",
      "type": "function"
    },
    {
      "constant": false,
      "inputs": [
        {
          "name": "_bucketID",
          "type": "uint256"
        }
      ],
      "name": "poke",
      "outputs": [],
      "payable": false,
      "stateMutability": "nonpayable",
      "type": "function"
    },
    {
      "constant": true,
      "inputs": [],
      "name": "withdrawalLockTime",
      "outputs": [
        {
          "name": "",
          "type": "uint256"
        }
      ],
      "payable": false,
      "stateMutability": "view",
      "type": "function"
    },
    {
      "constant": true,
      "inputs": [],
      "name": "beneficiary",
      "outputs": [
        {
          "name": "",
          "type": "address"
        }
      ],
      "payable": false,
      "stateMutability": "view",
      "type": "function"
    },
    {
      "constant": true,
      "inputs": [
        {
          "name": "",
          "type": "uint256"
        }
      ],
      "name": "bids",
      "outputs": [
        {
          "name": "maxValuation",
          "type": "uint256"
        },
        {
          "name": "personalMin",
          "type": "uint256"
        },
        {
          "name": "contrib",
          "type": "uint256"
        },
        {
          "name": "bonus",
          "type": "uint256"
        },
        {
          "name": "contributor",
          "type": "address"
        },
        {
          "name": "withdrawn",
          "type": "bool"
        },
        {
          "name": "redeemed",
          "type": "bool"
        },
        {
          "name": "minBucketID",
          "type": "uint256"
        },
        {
          "name": "maxBucketID",
          "type": "uint256"
        }
      ],
      "payable": false,
      "stateMutability": "view",
      "type": "function"
    },
    {
      "constant": true,
      "inputs": [],
      "name": "maxBonus",
      "outputs": [
        {
          "name": "",
          "type": "uint256"
        }
      ],
      "payable": false,
      "stateMutability": "view",
      "type": "function"
    },
    {
      "constant": true,
      "inputs": [],
      "name": "lastBidID",
      "outputs": [
        {
          "name": "",
          "type": "uint256"
        }
      ],
      "payable": false,
      "stateMutability": "view",
      "type": "function"
    },
    {
      "constant": true,
      "inputs": [
        {
          "name": "_contributor",
          "type": "address"
        }
      ],
      "name": "totalContrib",
      "outputs": [
        {
          "name": "contribution",
          "type": "uint256"
        }
      ],
      "payable": false,
      "stateMutability": "view",
      "type": "function"
    },
    {
      "constant": true,
      "inputs": [
        {
          "name": "_bucketid",
          "type": "uint256"
        }
      ],
      "name": "bucketMaxBids",
      "outputs": [
        {
          "name": "maxBids",
          "type": "uint256[]"
        }
      ],
      "payable": false,
      "stateMutability": "view",
      "type": "function"
    },
    {
      "constant": true,
      "inputs": [],
      "name": "bonus",
      "outputs": [
        {
          "name": "b",
          "type": "uint256"
        }
      ],
      "payable": false,
      "stateMutability": "view",
      "type": "function"
    },
    {
      "constant": true,
      "inputs": [],
      "name": "startTime",
      "outputs": [
        {
          "name": "",
          "type": "uint256"
        }
      ],
      "payable": false,
      "stateMutability": "view",
      "type": "function"
    },
    {
      "constant": true,
      "inputs": [],
      "name": "owner",
      "outputs": [
        {
          "name": "",
          "type": "address"
        }
      ],
      "payable": false,
      "stateMutability": "view",
      "type": "function"
    },
    {
      "constant": true,
      "inputs": [
        {
          "name": "",
          "type": "uint256"
        }
      ],
      "name": "buckets",
      "outputs": [
        {
          "name": "valuation",
          "type": "uint256"
        },
        {
          "name": "creator",
          "type": "address"
        }
      ],
      "payable": false,
      "stateMutability": "view",
      "type": "function"
    },
    {
      "constant": true,
      "inputs": [],
      "name": "maxValuation",
      "outputs": [
        {
          "name": "",
          "type": "uint256"
        }
      ],
      "payable": false,
      "stateMutability": "view",
      "type": "function"
    },
    {
      "constant": true,
      "inputs": [],
      "name": "minValuation",
      "outputs": [
        {
          "name": "",
          "type": "uint256"
        }
      ],
      "payable": false,
      "stateMutability": "view",
      "type": "function"
    },
    {
      "constant": true,
      "inputs": [],
      "name": "maximumBaseContribution",
      "outputs": [
        {
          "name": "",
          "type": "uint256"
        }
      ],
      "payable": false,
      "stateMutability": "view",
      "type": "function"
    },
    {
      "constant": true,
      "inputs": [],
      "name": "finalized",
      "outputs": [
        {
          "name": "",
          "type": "bool"
        }
      ],
      "payable": false,
      "stateMutability": "view",
      "type": "function"
    },
    {
      "constant": true,
      "inputs": [],
      "name": "numBuckets",
      "outputs": [
        {
          "name": "",
          "type": "uint256"
        }
      ],
      "payable": false,
      "stateMutability": "view",
      "type": "function"
    },
    {
      "constant": true,
      "inputs": [
        {
          "name": "",
          "type": "address"
        }
      ],
      "name": "reinforcedWhitelist",
      "outputs": [
        {
          "name": "",
          "type": "bool"
        }
      ],
      "payable": false,
      "stateMutability": "view",
      "type": "function"
    },
    {
      "constant": true,
      "inputs": [],
      "name": "increment",
      "outputs": [
        {
          "name": "",
          "type": "uint256"
        }
      ],
      "payable": false,
      "stateMutability": "view",
      "type": "function"
    },
    {
      "constant": false,
      "inputs": [
        {
          "name": "_bidID",
          "type": "uint256"
        }
      ],
      "name": "redeem",
      "outputs": [],
      "payable": false,
      "stateMutability": "nonpayable",
      "type": "function"
    },
    {
      "constant": true,
      "inputs": [],
      "name": "sumAcceptedContrib",
      "outputs": [
        {
          "name": "",
          "type": "uint256"
        }
      ],
      "payable": false,
      "stateMutability": "view",
      "type": "function"
    },
    {
      "constant": true,
      "inputs": [
        {
          "name": "_bucketid",
          "type": "uint256"
        }
      ],
      "name": "bucketMinBids",
      "outputs": [
        {
          "name": "minBids",
          "type": "uint256[]"
        }
      ],
      "payable": false,
      "stateMutability": "view",
      "type": "function"
    },
    {
      "constant": true,
      "inputs": [],
      "name": "endFullBonusTime",
      "outputs": [
        {
          "name": "",
          "type": "uint256"
        }
      ],
      "payable": false,
      "stateMutability": "view",
      "type": "function"
    },
    {
      "constant": true,
      "inputs": [],
      "name": "token",
      "outputs": [
        {
          "name": "",
          "type": "address"
        }
      ],
      "payable": false,
      "stateMutability": "view",
      "type": "function"
    },
    {
      "inputs": [
        {
          "name": "_startTime",
          "type": "uint256"
        },
        {
          "name": "_fullBonusLength",
          "type": "uint256"
        },
        {
          "name": "_partialWithdrawalLength",
          "type": "uint256"
        },
        {
          "name": "_withdrawalLockUpLength",
          "type": "uint256"
        },
        {
          "name": "_maxBonus",
          "type": "uint256"
        },
        {
          "name": "_beneficiary",
          "type": "address"
        },
        {
          "name": "_maximumBaseContribution",
          "type": "uint256"
        },
        {
          "name": "_minValuation",
          "type": "uint256"
        },
        {
          "name": "_maxValuation",
          "type": "uint256"
        },
        {
          "name": "_increment",
          "type": "uint256"
        }
      ],
      "payable": false,
      "stateMutability": "nonpayable",
      "type": "constructor"
    },
    {
      "payable": true,
      "stateMutability": "payable",
      "type": "fallback"
    },
    {
      "anonymous": false,
      "inputs": [
        {
          "indexed": true,
          "name": "contributor",
          "type": "address"
        },
        {
          "indexed": true,
          "name": "bidID",
          "type": "uint256"
        },
        {
          "indexed": true,
          "name": "time",
          "type": "uint256"
        }
      ],
      "name": "BidSubmitted",
      "type": "event"
    },
    {
      "anonymous": false,
      "inputs": [
        {
          "indexed": true,
          "name": "poker",
          "type": "address"
        },
        {
          "indexed": true,
          "name": "bucketID",
          "type": "uint256"
        }
      ],
      "name": "Poked",
      "type": "event"
    },
    {
      "constant": false,
      "inputs": [
        {
          "name": "_maxValuation",
          "type": "uint256"
        },
        {
          "name": "_next",
          "type": "uint256"
        }
      ],
      "name": "submitBid",
      "outputs": [],
      "payable": true,
      "stateMutability": "payable",
      "type": "function"
    },
    {
      "constant": false,
      "inputs": [
        {
          "name": "_whitelister",
          "type": "address"
        }
      ],
      "name": "setWhitelister",
      "outputs": [],
      "payable": false,
      "stateMutability": "nonpayable",
      "type": "function"
    },
    {
      "constant": false,
      "inputs": [
        {
          "name": "_buyersToWhitelist",
          "type": "address[]"
        }
      ],
      "name": "addBaseWhitelist",
      "outputs": [],
      "payable": false,
      "stateMutability": "nonpayable",
      "type": "function"
    },
    {
      "constant": false,
      "inputs": [
        {
          "name": "_buyersToWhitelist",
          "type": "address[]"
        }
      ],
      "name": "addReinforcedWhitelist",
      "outputs": [],
      "payable": false,
      "stateMutability": "nonpayable",
      "type": "function"
    },
    {
      "constant": false,
      "inputs": [
        {
          "name": "_buyersToRemove",
          "type": "address[]"
        }
      ],
      "name": "removeBaseWhitelist",
      "outputs": [],
      "payable": false,
      "stateMutability": "nonpayable",
      "type": "function"
    },
    {
      "constant": false,
      "inputs": [
        {
          "name": "_buyersToRemove",
          "type": "address[]"
        }
      ],
      "name": "removeReinforcedWhitelist",
      "outputs": [],
      "payable": false,
      "stateMutability": "nonpayable",
      "type": "function"
    }
  ],
  "bytecode": "0x6080604052600060055560006006557fffffffffffffffffffffffffffffffffffffffffffffffffffffffffffffffff6013553480156200003f57600080fd5b506040516101408062002bbb83398101806040528101908080519060200190929190805190602001909291908051906020019092919080519060200190929190805190602001909291908051906020019092919080519060200190929190805190602001909291908051906020019092919080519060200190929190505050898989898989888888336000806101000a81548173ffffffffffffffffffffffffffffffffffffffff021916908373ffffffffffffffffffffffffffffffffffffffff16021790555088600781905550876007540160088190555086600854016009819055508560095401600a8190555084600d8190555083600160006101000a81548173ffffffffffffffffffffffffffffffffffffffff021916908373ffffffffffffffffffffffffffffffffffffffff16021790555081600f8190555082600e81905550806010819055506001601054600e54600f5403811515620001a257fe5b0401601181905550608060405190810160405280600e5481526020013373ffffffffffffffffffffffffffffffffffffffff16815260200160006040519080825280602002602001820160405280156200020b5781602001602082028038833980820191505090505b5081526020016000604051908082528060200260200182016040528015620002425781602001602082028038833980820191505090505b50815250600360008081526020019081526020016000206000820151816000015560208201518160010160006101000a81548173ffffffffffffffffffffffffffffffffffffffff021916908373ffffffffffffffffffffffffffffffffffffffff1602179055506040820151816002019080519060200190620002c892919062000451565b506060820151816003019080519060200190620002e792919062000451565b50905050608060405190810160405280600f5481526020013373ffffffffffffffffffffffffffffffffffffffff16815260200160006040519080825280602002602001820160405280156200034c5781602001602082028038833980820191505090505b5081526020016000604051908082528060200260200182016040528015620003835781602001602082028038833980820191505090505b508152506003600060016011540381526020019081526020016000206000820151816000015560208201518160010160006101000a81548173ffffffffffffffffffffffffffffffffffffffff021916908373ffffffffffffffffffffffffffffffffffffffff16021790555060408201518160020190805190602001906200040e92919062000451565b5060608201518160030190805190602001906200042d92919062000451565b509050505050505050505050508360168190555050505050505050505050620004cb565b82805482825590600052602060002090810192821562000490579160200282015b828111156200048f57825182559160200191906001019062000472565b5b5090506200049f9190620004a3565b5090565b620004c891905b80821115620004c4576000816000905550600101620004aa565b5090565b90565b6126e080620004db6000396000f3006080604052600436106101ee576000357c0100000000000000000000000000000000000000000000000000000000900463ffffffff168063106c6441146103cc57806312aef8c314610432578063144fa6d71461045d578063152713b3146104a05780631552cb04146104cb5780631ae9fe6a146105315780631def6bad1461055c57806322758a4a146105bd57806325c3adff146106145780632c2f93d51461063f5780632e1a7d4d1461069a5780633197cbb6146106c757806332145f90146106f257806334f732e81461071f57806338af3eed1461074a5780634423c5f1146107a157806354c5b6961461084e57806357f196fa146108795780635e7c85b1146108a457806372a2fee0146108fb57806375b4d78c1461097d57806378e97925146109a857806380999b71146109d35780638da5cb5b14610a395780639b51fb0d14610a90578063a79fb0c214610b04578063aac1660314610b2f578063b196aabb14610b5a578063b3f05b9714610b85578063b821da1b14610bb4578063bfdcc9a214610bde578063c1f6004514610c09578063d09de08a14610c64578063db006a7514610c8f578063dc382cbf14610cbc578063ea9ad4a514610ce7578063f0d6cc7014610d69578063f98f5b9214610d94578063fc0c546a14610dd7578063ffbd26ce14610e2e575b600080341415801561020257506007544210155b801561020f5750600a5442105b156102635761025e7ffffffffffffffffffffffffffffffffffffffffffffffffffffffffffffffffe7fffffffffffffffffffffffffffffffffffffffffffffffffffffffffffffffff610e94565b6103c9565b60003414801561027f5750601260009054906101000a900460ff165b156103c357600090505b600460003373ffffffffffffffffffffffffffffffffffffffff1673ffffffffffffffffffffffffffffffffffffffff168152602001908152602001600020805490508110156103be5760026000600460003373ffffffffffffffffffffffffffffffffffffffff1673ffffffffffffffffffffffffffffffffffffffff1681526020019081526020016000208381548110151561032357fe5b9060005260206000200154815260200190815260200160002060040160159054906101000a900460ff1615156103b3576103b2600460003373ffffffffffffffffffffffffffffffffffffffff1673ffffffffffffffffffffffffffffffffffffffff168152602001908152602001600020828154811015156103a257fe5b9060005260206000200154610f66565b5b806001019050610289565b6103c8565b600080fd5b5b50005b3480156103d857600080fd5b50610430600480360381019080803590602001908201803590602001908080602002602001604051908101604052809392919081815260200183836020028082843782019150505050505091929192905050506111f4565b005b34801561043e57600080fd5b506104476112de565b6040518082815260200191505060405180910390f35b34801561046957600080fd5b5061049e600480360381019080803573ffffffffffffffffffffffffffffffffffffffff1690602001909291905050506112e4565b005b3480156104ac57600080fd5b506104b56114de565b6040518082815260200191505060405180910390f35b3480156104d757600080fd5b5061052f600480360381019080803590602001908201803590602001908080602002602001604051908101604052809392919081815260200183836020028082843782019150505050505091929192905050506114e4565b005b34801561053d57600080fd5b506105466115ce565b6040518082815260200191505060405180910390f35b34801561056857600080fd5b506105a7600480360381019080803573ffffffffffffffffffffffffffffffffffffffff169060200190929190803590602001909291905050506115d4565b6040518082815260200191505060405180910390f35b3480156105c957600080fd5b506105d2611604565b604051808273ffffffffffffffffffffffffffffffffffffffff1673ffffffffffffffffffffffffffffffffffffffff16815260200191505060405180910390f35b34801561062057600080fd5b5061062961162a565b6040518082815260200191505060405180910390f35b34801561064b57600080fd5b50610680600480360381019080803573ffffffffffffffffffffffffffffffffffffffff169060200190929190505050611630565b604051808215151515815260200191505060405180910390f35b3480156106a657600080fd5b506106c560048036038101908080359060200190929190505050611650565b005b3480156106d357600080fd5b506106dc6117dd565b6040518082815260200191505060405180910390f35b3480156106fe57600080fd5b5061071d600480360381019080803590602001909291905050506117e3565b005b34801561072b57600080fd5b5061073461182a565b6040518082815260200191505060405180910390f35b34801561075657600080fd5b5061075f611830565b604051808273ffffffffffffffffffffffffffffffffffffffff1673ffffffffffffffffffffffffffffffffffffffff16815260200191505060405180910390f35b3480156107ad57600080fd5b506107cc60048036038101908080359060200190929190505050611856565b604051808a81526020018981526020018881526020018781526020018673ffffffffffffffffffffffffffffffffffffffff1673ffffffffffffffffffffffffffffffffffffffff1681526020018515151515815260200184151515158152602001838152602001828152602001995050505050505050505060405180910390f35b34801561085a57600080fd5b506108636118de565b6040518082815260200191505060405180910390f35b34801561088557600080fd5b5061088e6118e4565b6040518082815260200191505060405180910390f35b3480156108b057600080fd5b506108e5600480360381019080803573ffffffffffffffffffffffffffffffffffffffff1690602001909291905050506118ea565b6040518082815260200191505060405180910390f35b34801561090757600080fd5b50610926600480360381019080803590602001909291905050506119be565b6040518080602001828103825283818151815260200191508051906020019060200280838360005b8381101561096957808201518184015260208101905061094e565b505050509050019250505060405180910390f35b34801561098957600080fd5b50610992611ada565b6040518082815260200191505060405180910390f35b3480156109b457600080fd5b506109bd611b23565b6040518082815260200191505060405180910390f35b3480156109df57600080fd5b50610a3760048036038101908080359060200190820180359060200190808060200260200160405190810160405280939291908181526020018383602002808284378201915050505050509192919290505050611b29565b005b348015610a4557600080fd5b50610a4e611c13565b604051808273ffffffffffffffffffffffffffffffffffffffff1673ffffffffffffffffffffffffffffffffffffffff16815260200191505060405180910390f35b348015610a9c57600080fd5b50610abb60048036038101908080359060200190929190505050611c38565b604051808381526020018273ffffffffffffffffffffffffffffffffffffffff1673ffffffffffffffffffffffffffffffffffffffff1681526020019250505060405180910390f35b348015610b1057600080fd5b50610b19611c7c565b6040518082815260200191505060405180910390f35b348015610b3b57600080fd5b50610b44611c82565b6040518082815260200191505060405180910390f35b348015610b6657600080fd5b50610b6f611c88565b6040518082815260200191505060405180910390f35b348015610b9157600080fd5b50610b9a611c8e565b604051808215151515815260200191505060405180910390f35b610bdc6004803603810190808035906020019092919080359060200190929190505050610e94565b005b348015610bea57600080fd5b50610bf3611ca1565b6040518082815260200191505060405180910390f35b348015610c1557600080fd5b50610c4a600480360381019080803573ffffffffffffffffffffffffffffffffffffffff169060200190929190505050611ca7565b604051808215151515815260200191505060405180910390f35b348015610c7057600080fd5b50610c79611cc7565b6040518082815260200191505060405180910390f35b348015610c9b57600080fd5b50610cba60048036038101908080359060200190929190505050610f66565b005b348015610cc857600080fd5b50610cd1611ccd565b6040518082815260200191505060405180910390f35b348015610cf357600080fd5b50610d1260048036038101908080359060200190929190505050611cd3565b6040518080602001828103825283818151815260200191508051906020019060200280838360005b83811015610d55578082015181840152602081019050610d3a565b505050509050019250505060405180910390f35b348015610d7557600080fd5b50610d7e611def565b6040518082815260200191505060405180910390f35b348015610da057600080fd5b50610dd5600480360381019080803573ffffffffffffffffffffffffffffffffffffffff169060200190929190505050611df5565b005b348015610de357600080fd5b50610dec611e94565b604051808273ffffffffffffffffffffffffffffffffffffffff1673ffffffffffffffffffffffffffffffffffffffff16815260200191505060405180910390f35b348015610e3a57600080fd5b50610e9260048036038101908080359060200190820180359060200190808060200260200160405190810160405280939291908181526020018383602002808284378201915050505050509192919290505050611eba565b005b601860003373ffffffffffffffffffffffffffffffffffffffff1673ffffffffffffffffffffffffffffffffffffffff16815260200190815260200160002060009054906101000a900460ff1680610f4d5750601760003373ffffffffffffffffffffffffffffffffffffffff1673ffffffffffffffffffffffffffffffffffffffff16815260200190815260200160002060009054906101000a900460ff168015610f4c5750601654610f47336118ea565b340111155b5b1515610f5857600080fd5b610f628282611fa4565b5050565b6000806002600084815260200190815260200160002091506002600060135481526020019081526020016000209050601260009054906101000a900460ff161515610fb057600080fd5b8160040160159054906101000a900460ff16151515610fce57600080fd5b60018260040160156101000a81548160ff02191690831515021790555080600001548260000154118061101657508060000154826000015414801561101557506013548310155b5b1561117f57600b60009054906101000a900473ffffffffffffffffffffffffffffffffffffffff1673ffffffffffffffffffffffffffffffffffffffff1663a9059cbb8360040160009054906101000a900473ffffffffffffffffffffffffffffffffffffffff16601554633b9aca00866003015487600201540281151561109a57fe5b04866002015401600c54028115156110ae57fe5b046040518363ffffffff167c0100000000000000000000000000000000000000000000000000000000028152600401808373ffffffffffffffffffffffffffffffffffffffff1673ffffffffffffffffffffffffffffffffffffffff16815260200182815260200192505050602060405180830381600087803b15801561113457600080fd5b505af1158015611148573d6000803e3d6000fd5b505050506040513d602081101561115e57600080fd5b8101908080519060200190929190505050151561117a57600080fd5b6111ef565b8160040160009054906101000a900473ffffffffffffffffffffffffffffffffffffffff1673ffffffffffffffffffffffffffffffffffffffff166108fc83600201549081150290604051600060405180830381858888f193505050501580156111ed573d6000803e3d6000fd5b505b505050565b60003373ffffffffffffffffffffffffffffffffffffffff16601960009054906101000a900473ffffffffffffffffffffffffffffffffffffffff1673ffffffffffffffffffffffffffffffffffffffff1614151561125257600080fd5b600090505b81518110156112da57600060186000848481518110151561127457fe5b9060200190602002015173ffffffffffffffffffffffffffffffffffffffff1673ffffffffffffffffffffffffffffffffffffffff16815260200190815260200160002060006101000a81548160ff021916908315150217905550806001019050611257565b5050565b600c5481565b3373ffffffffffffffffffffffffffffffffffffffff166000809054906101000a900473ffffffffffffffffffffffffffffffffffffffff1673ffffffffffffffffffffffffffffffffffffffff1614151561133f57600080fd5b600073ffffffffffffffffffffffffffffffffffffffff16600b60009054906101000a900473ffffffffffffffffffffffffffffffffffffffff1673ffffffffffffffffffffffffffffffffffffffff1614151561139c57600080fd5b80600b60006101000a81548173ffffffffffffffffffffffffffffffffffffffff021916908373ffffffffffffffffffffffffffffffffffffffff160217905550600b60009054906101000a900473ffffffffffffffffffffffffffffffffffffffff1673ffffffffffffffffffffffffffffffffffffffff166370a08231306040518263ffffffff167c0100000000000000000000000000000000000000000000000000000000028152600401808273ffffffffffffffffffffffffffffffffffffffff1673ffffffffffffffffffffffffffffffffffffffff168152602001915050602060405180830381600087803b15801561149a57600080fd5b505af11580156114ae573d6000803e3d6000fd5b505050506040513d60208110156114c457600080fd5b8101908080519060200190929190505050600c8190555050565b60155481565b60003373ffffffffffffffffffffffffffffffffffffffff16601960009054906101000a900473ffffffffffffffffffffffffffffffffffffffff1673ffffffffffffffffffffffffffffffffffffffff1614151561154257600080fd5b600090505b81518110156115ca57600160176000848481518110151561156457fe5b9060200190602002015173ffffffffffffffffffffffffffffffffffffffff1673ffffffffffffffffffffffffffffffffffffffff16815260200190815260200160002060006101000a81548160ff021916908315150217905550806001019050611547565b5050565b60135481565b6004602052816000526040600020818154811015156115ef57fe5b90600052602060002001600091509150505481565b601960009054906101000a900473ffffffffffffffffffffffffffffffffffffffff1681565b60065481565b60176020528060005260406000206000915054906101000a900460ff1681565b6000806002600084815260200190815260200160002091508160040160009054906101000a900473ffffffffffffffffffffffffffffffffffffffff1673ffffffffffffffffffffffffffffffffffffffff163373ffffffffffffffffffffffffffffffffffffffff161415156116c657600080fd5b600954421015156116d657600080fd5b8160040160149054906101000a900460ff161515156116f457600080fd5b60018260040160146101000a81548160ff021916908315150217905550600854421061173b5760085460095403426009540383600201540281151561173557fe5b04611741565b81600201545b90508160020154811115151561175357fe5b8082600201600082825403925050819055506003600283600301540281151561177857fe5b048260030181905550806006600082825403925050819055503373ffffffffffffffffffffffffffffffffffffffff166108fc829081150290604051600060405180830381858888f193505050501580156117d7573d6000803e3d6000fd5b50505050565b600a5481565b803373ffffffffffffffffffffffffffffffffffffffff167f4889d7d38c1d1f265318505a98367d07d41591d6b7f9cc000f37ea92b8311daa60405160405180910390a350565b60095481565b600160009054906101000a900473ffffffffffffffffffffffffffffffffffffffff1681565b60026020528060005260406000206000915090508060000154908060010154908060020154908060030154908060040160009054906101000a900473ffffffffffffffffffffffffffffffffffffffff16908060040160149054906101000a900460ff16908060040160159054906101000a900460ff16908060050154908060060154905089565b600d5481565b60055481565b600080600090505b600460008473ffffffffffffffffffffffffffffffffffffffff1673ffffffffffffffffffffffffffffffffffffffff168152602001908152602001600020805490508110156119b85760026000600460008673ffffffffffffffffffffffffffffffffffffffff1673ffffffffffffffffffffffffffffffffffffffff1681526020019081526020016000208381548110151561198c57fe5b9060005260206000200154815260200190815260200160002060020154820191508060010190506118f2565b50919050565b6060600080600360008581526020019081526020016000209150600073ffffffffffffffffffffffffffffffffffffffff168260010160009054906101000a900473ffffffffffffffffffffffffffffffffffffffff1673ffffffffffffffffffffffffffffffffffffffff161415611a3957829250611ad3565b8160020180549050604051908082528060200260200182016040528015611a6f5781602001602082028038833980820191505090505b50925060009050600090505b8160020180549050811015611acf578160020181815481101515611a9b57fe5b90600052602060002001548382815181101515611ab457fe5b90602001906020020181815250508080600101915050611a7b565b8292505b5050919050565b6000600854421015611af057600d549050611b20565b600a54421115611b035760009050611b20565b600854600a540342600a5403600d5402811515611b1c57fe5b0490505b90565b60075481565b60003373ffffffffffffffffffffffffffffffffffffffff16601960009054906101000a900473ffffffffffffffffffffffffffffffffffffffff1673ffffffffffffffffffffffffffffffffffffffff16141515611b8757600080fd5b600090505b8151811015611c0f576000601760008484815181101515611ba957fe5b9060200190602002015173ffffffffffffffffffffffffffffffffffffffff1673ffffffffffffffffffffffffffffffffffffffff16815260200190815260200160002060006101000a81548160ff021916908315150217905550806001019050611b8c565b5050565b6000809054906101000a900473ffffffffffffffffffffffffffffffffffffffff1681565b60036020528060005260406000206000915090508060000154908060010160009054906101000a900473ffffffffffffffffffffffffffffffffffffffff16905082565b600f5481565b600e5481565b60165481565b601260009054906101000a900460ff1681565b60115481565b60186020528060005260406000206000915054906101000a900460ff1681565b60105481565b60145481565b6060600080600360008581526020019081526020016000209150600073ffffffffffffffffffffffffffffffffffffffff168260010160009054906101000a900473ffffffffffffffffffffffffffffffffffffffff1673ffffffffffffffffffffffffffffffffffffffff161415611d4e57829250611de8565b8160030180549050604051908082528060200260200182016040528015611d845781602001602082028038833980820191505090505b50925060009050600090505b8160030180549050811015611de4578160030181815481101515611db057fe5b90600052602060002001548382815181101515611dc957fe5b90602001906020020181815250508080600101915050611d90565b8292505b5050919050565b60085481565b3373ffffffffffffffffffffffffffffffffffffffff166000809054906101000a900473ffffffffffffffffffffffffffffffffffffffff1673ffffffffffffffffffffffffffffffffffffffff16141515611e5057600080fd5b80601960006101000a81548173ffffffffffffffffffffffffffffffffffffffff021916908373ffffffffffffffffffffffffffffffffffffffff16021790555050565b600b60009054906101000a900473ffffffffffffffffffffffffffffffffffffffff1681565b60003373ffffffffffffffffffffffffffffffffffffffff16601960009054906101000a900473ffffffffffffffffffffffffffffffffffffffff1673ffffffffffffffffffffffffffffffffffffffff16141515611f1857600080fd5b600090505b8151811015611fa0576001601860008484815181101515611f3a57fe5b9060200190602002015173ffffffffffffffffffffffffffffffffffffffff1673ffffffffffffffffffffffffffffffffffffffff16815260200190815260200160002060006101000a81548160ff021916908315150217905550806001019050611f1d565b5050565b60008060006007544210158015611fbc5750600a5442105b1515611fc757600080fd5b600e548510158015611fd857508385115b1515611fe357600080fd5b6000601054600e548703811515611ff657fe5b0614151561200357600080fd5b6000601054600e54860381151561201657fe5b0614151561202357600080fd5b601054600e54850381151561203457fe5b049250601054600e54860381151561204857fe5b049150600073ffffffffffffffffffffffffffffffffffffffff166003600085815260200190815260200160002060010160009054906101000a900473ffffffffffffffffffffffffffffffffffffffff1673ffffffffffffffffffffffffffffffffffffffff1614156121f0576080604051908101604052808581526020013373ffffffffffffffffffffffffffffffffffffffff16815260200160006040519080825280602002602001820160405280156121145781602001602082028038833980820191505090505b508152602001600060405190808252806020026020018201604052801561214a5781602001602082028038833980820191505090505b50815250600360008581526020019081526020016000206000820151816000015560208201518160010160006101000a81548173ffffffffffffffffffffffffffffffffffffffff021916908373ffffffffffffffffffffffffffffffffffffffff16021790555060408201518160020190805190602001906121ce929190612642565b5060608201518160030190805190602001906121eb929190612642565b509050505b600073ffffffffffffffffffffffffffffffffffffffff166003600084815260200190815260200160002060010160009054906101000a900473ffffffffffffffffffffffffffffffffffffffff1673ffffffffffffffffffffffffffffffffffffffff161415612395576080604051908101604052808681526020013373ffffffffffffffffffffffffffffffffffffffff16815260200160006040519080825280602002602001820160405280156122b95781602001602082028038833980820191505090505b50815260200160006040519080825280602002602001820160405280156122ef5781602001602082028038833980820191505090505b50815250600360008481526020019081526020016000206000820151816000015560208201518160010160006101000a81548173ffffffffffffffffffffffffffffffffffffffff021916908373ffffffffffffffffffffffffffffffffffffffff1602179055506040820151816002019080519060200190612373929190612642565b506060820151816003019080519060200190612390929190612642565b509050505b60036000838152602001908152602001600020905060056000815460010191905081905550610120604051908101604052808681526020018581526020013481526020016123e1611ada565b81526020013373ffffffffffffffffffffffffffffffffffffffff168152602001600015158152602001600015158152602001848152602001838152506002600060055481526020019081526020016000206000820151816000015560208201518160010155604082015181600201556060820151816003015560808201518160040160006101000a81548173ffffffffffffffffffffffffffffffffffffffff021916908373ffffffffffffffffffffffffffffffffffffffff16021790555060a08201518160040160146101000a81548160ff02191690831515021790555060c08201518160040160156101000a81548160ff02191690831515021790555060e0820151816005015561010082015181600601559050503460065401600681905550600360008381526020019081526020016000206002016005549080600181540180825580915050906001820390600052602060002001600090919290919091505550600360008481526020019081526020016000206003016005549080600181540180825580915050906001820390600052602060002001600090919290919091505550600460003373ffffffffffffffffffffffffffffffffffffffff1673ffffffffffffffffffffffffffffffffffffffff1681526020019081526020016000206005549080600181540180825580915050906001820390600052602060002001600090919290919091505550426005543373ffffffffffffffffffffffffffffffffffffffff167f84bee513033536a8de8a8260e2674a4a3eebd61ddce74615fdeca8a1499f5efe60405160405180910390a45050505050565b82805482825590600052602060002090810192821561267e579160200282015b8281111561267d578251825591602001919060010190612662565b5b50905061268b919061268f565b5090565b6126b191905b808211156126ad576000816000905550600101612695565b5090565b905600a165627a7a72305820608e07363aa254207b229edb49a90cbba63d3f41ce1fec03e2eb71174731b1680029",
  "source": "/** @title Level Whitelisted Interactive Coin Offering\n *  @author Clment Lesaege - <clement@lesaege.com>\n */\n\npragma solidity ^0.4.23;\n\nimport \"./IICO.sol\";\n\n/** @title Level Whitelisted Interactive Coin Offering\n *  This contract implements an Interactive Coin Offering with two whitelists:\n *  - The base one, with limited contribution.\n *  - The reinforced one, with unlimited contribution.\n */\ncontract LevelWhitelistedIICO is IICO {\n    \n    uint public maximumBaseContribution;\n    mapping (address => bool) public baseWhitelist; // True if in the base whitelist (has a contribution limit).\n    mapping (address => bool) public reinforcedWhitelist; // True if in the reinforced whitelist (does not have a contribution limit).\n    address public whitelister; // The party which can add or remove people from the whitelist.\n    \n    modifier onlyWhitelister{ require(whitelister == msg.sender); _; }\n    \n    /** @dev Constructor. First contract set up (tokens will also need to be transferred to the contract and then setToken needs to be called to finish the setup).\n     *  @param _startTime Time the sale will start in seconds since the Unix Epoch.\n     *  @param _fullBonusLength Amount of seconds the sale lasts in the full bonus period.\n     *  @param _partialWithdrawalLength Amount of seconds the sale lasts in the partial withdrawal period.\n     *  @param _withdrawalLockUpLength Amount of seconds the sale lasts in the withdrawal lockup period.\n     *  @param _maxBonus The maximum bonus. Will be normalized by BONUS_DIVISOR. For example for a 20% bonus, _maxBonus must be 0.2 * BONUS_DIVISOR.\n     *  @param _beneficiary The party which will get the funds of the token sale.\n     *  @param _maximumBaseContribution The maximum contribution for buyers on the base list.\n     */\n    function LevelWhitelistedIICO(uint _startTime, uint _fullBonusLength, uint _partialWithdrawalLength, uint _withdrawalLockUpLength, uint _maxBonus, address _beneficiary, uint _maximumBaseContribution, uint _minValuation, uint _maxValuation, uint _increment) IICO(_startTime,_fullBonusLength,_partialWithdrawalLength,_withdrawalLockUpLength,_maxBonus,_beneficiary,_minValuation,_maxValuation,_increment) public {\n        maximumBaseContribution=_maximumBaseContribution;\n    }\n    \n    /** @dev Submit a bid. The caller must give the exact position the bid must be inserted into in the list.\n     *  In practice, use searchAndBid to avoid the position being incorrect due to a new bid being inserted and changing the position the bid must be inserted at.\n     *  @param _maxValuation The maximum valuation given by the contributor. If the amount raised is higher, the bid is cancelled and the contributor refunded because it prefers a refund instead of this level of dilution. To buy no matter what, use INFINITY.\n     *  @param _next The bidID of the next bid in the list.\n     */\n    function submitBid(uint _maxValuation, uint _next) public payable {\n        require(reinforcedWhitelist[msg.sender] || (baseWhitelist[msg.sender] && (msg.value + totalContrib(msg.sender) <= maximumBaseContribution))); // Check if the buyer is in the reinforced whitelist or if it is on the base one and this would not make its total contribution exceed the limit.\n        super.submitBid(_maxValuation,_next);\n    }\n    \n    /** @dev Set the whitelister.\n     *  @param _whitelister The whitelister.\n     */\n    function setWhitelister(address _whitelister) public onlyOwner {\n        whitelister=_whitelister;\n    }\n    \n    /** @dev Add buyers to the base whitelist.\n     *  @param _buyersToWhitelist Buyers to add to the whitelist.\n     */\n    function addBaseWhitelist(address[] _buyersToWhitelist) public onlyWhitelister {\n        for(uint i=0;i<_buyersToWhitelist.length;++i)\n            baseWhitelist[_buyersToWhitelist[i]]=true;\n    }\n    \n    /** @dev Add buyers to the reinforced whitelist.\n     *  @param _buyersToWhitelist Buyers to add to the whitelist.\n     */\n    function addReinforcedWhitelist(address[] _buyersToWhitelist) public onlyWhitelister {\n        for(uint i=0;i<_buyersToWhitelist.length;++i)\n            reinforcedWhitelist[_buyersToWhitelist[i]]=true;\n    }\n    \n    /** @dev Remove buyers from the base whitelist.\n     *  @param _buyersToRemove Buyers to remove from the whitelist.\n     */\n    function removeBaseWhitelist(address[] _buyersToRemove) public onlyWhitelister {\n        for(uint i=0;i<_buyersToRemove.length;++i)\n            baseWhitelist[_buyersToRemove[i]]=false;\n    }\n    \n    /** @dev Remove buyers from the reinforced whitelist.\n     *  @param _buyersToRemove Buyers to remove from the whitelist.\n     */\n    function removeReinforcedWhitelist(address[] _buyersToRemove) public onlyWhitelister {\n        for(uint i=0;i<_buyersToRemove.length;++i)\n            reinforcedWhitelist[_buyersToRemove[i]]=false;\n    }\n\n}\n",
  "sourcePath": "/home/surya/projects/truebit/interactive-coin-offerings/truebit-implementation/contracts/LevelWhitelistedIICO.sol",
  "compiler": {
    "name": "solc",
    "version": "0.4.24+commit.e67f0147.Emscripten.clang"
  },
  "schemaVersion": "2.0.1",
  "updatedAt": "2018-11-15T22:17:43.198Z"
}