{
  "contractName": "LevelWhitelistedIICO",
  "abi": [
    {
      "constant": true,
      "inputs": [],
      "name": "tokensForSale",
      "outputs": [
        {
          "name": "",
          "type": "uint256"
        }
      ],
      "payable": false,
      "stateMutability": "view",
      "type": "function"
    },
    {
      "constant": false,
      "inputs": [
        {
          "name": "_token",
          "type": "address"
        }
      ],
      "name": "setToken",
      "outputs": [],
      "payable": false,
      "stateMutability": "nonpayable",
      "type": "function"
    },
    {
      "constant": true,
      "inputs": [],
      "name": "sumAcceptedVirtualContrib",
      "outputs": [
        {
          "name": "",
          "type": "uint256"
        }
      ],
      "payable": false,
      "stateMutability": "view",
      "type": "function"
    },
    {
      "constant": true,
      "inputs": [],
      "name": "cutOffBidID",
      "outputs": [
        {
          "name": "",
          "type": "uint256"
        }
      ],
      "payable": false,
      "stateMutability": "view",
      "type": "function"
    },
    {
      "constant": true,
      "inputs": [
        {
          "name": "",
          "type": "address"
        },
        {
          "name": "",
          "type": "uint256"
        }
      ],
      "name": "contributorBidIDs",
      "outputs": [
        {
          "name": "",
          "type": "uint256"
        }
      ],
      "payable": false,
      "stateMutability": "view",
      "type": "function"
    },
    {
      "constant": true,
      "inputs": [],
      "name": "whitelister",
      "outputs": [
        {
          "name": "",
          "type": "address"
        }
      ],
      "payable": false,
      "stateMutability": "view",
      "type": "function"
    },
    {
      "constant": true,
      "inputs": [
        {
          "name": "",
          "type": "address"
        }
      ],
      "name": "baseWhitelist",
      "outputs": [
        {
          "name": "",
          "type": "bool"
        }
      ],
      "payable": false,
      "stateMutability": "view",
      "type": "function"
    },
    {
      "constant": false,
      "inputs": [
        {
          "name": "_bidID",
          "type": "uint256"
        }
      ],
      "name": "withdraw",
      "outputs": [],
      "payable": false,
      "stateMutability": "nonpayable",
      "type": "function"
    },
    {
      "constant": true,
      "inputs": [],
      "name": "endTime",
      "outputs": [
        {
          "name": "",
          "type": "uint256"
        }
      ],
      "payable": false,
      "stateMutability": "view",
      "type": "function"
    },
    {
      "constant": true,
      "inputs": [],
      "name": "withdrawalLockTime",
      "outputs": [
        {
          "name": "",
          "type": "uint256"
        }
      ],
      "payable": false,
      "stateMutability": "view",
      "type": "function"
    },
    {
      "constant": true,
      "inputs": [],
      "name": "beneficiary",
      "outputs": [
        {
          "name": "",
          "type": "address"
        }
      ],
      "payable": false,
      "stateMutability": "view",
      "type": "function"
    },
    {
      "constant": true,
      "inputs": [
        {
          "name": "",
          "type": "uint256"
        }
      ],
      "name": "bids",
      "outputs": [
        {
          "name": "maxValuation",
          "type": "uint256"
        },
        {
          "name": "personalMin",
          "type": "uint256"
        },
        {
          "name": "contrib",
          "type": "uint256"
        },
        {
          "name": "bonus",
          "type": "uint256"
        },
        {
          "name": "contributor",
          "type": "address"
        },
        {
          "name": "withdrawn",
          "type": "bool"
        },
        {
          "name": "redeemed",
          "type": "bool"
        },
        {
          "name": "active",
          "type": "bool"
        },
        {
          "name": "minBucketID",
          "type": "uint256"
        },
        {
          "name": "maxBucketID",
          "type": "uint256"
        },
        {
          "name": "creationBlock",
          "type": "uint256"
        }
      ],
      "payable": false,
      "stateMutability": "view",
      "type": "function"
    },
    {
      "constant": false,
      "inputs": [],
      "name": "finalize",
      "outputs": [],
      "payable": false,
      "stateMutability": "nonpayable",
      "type": "function"
    },
    {
      "constant": false,
      "inputs": [
        {
          "name": "_bids",
          "type": "uint256[]"
        }
      ],
      "name": "pokeOut",
      "outputs": [],
      "payable": false,
      "stateMutability": "nonpayable",
      "type": "function"
    },
    {
      "constant": true,
      "inputs": [],
      "name": "maxBonus",
      "outputs": [
        {
          "name": "",
          "type": "uint256"
        }
      ],
      "payable": false,
      "stateMutability": "view",
      "type": "function"
    },
    {
      "constant": true,
      "inputs": [],
      "name": "lastBidID",
      "outputs": [
        {
          "name": "",
          "type": "uint256"
        }
      ],
      "payable": false,
      "stateMutability": "view",
      "type": "function"
    },
    {
      "constant": true,
      "inputs": [
        {
          "name": "_contributor",
          "type": "address"
        }
      ],
      "name": "totalContrib",
      "outputs": [
        {
          "name": "contribution",
          "type": "uint256"
        }
      ],
      "payable": false,
      "stateMutability": "view",
      "type": "function"
    },
    {
      "constant": true,
      "inputs": [],
      "name": "bidBufferUint",
      "outputs": [
        {
          "name": "",
          "type": "uint256[]"
        },
        {
          "name": "",
          "type": "uint256[]"
        },
        {
          "name": "",
          "type": "uint256[]"
        },
        {
          "name": "",
          "type": "uint256[]"
        },
        {
          "name": "",
          "type": "uint256[]"
        }
      ],
      "payable": false,
      "stateMutability": "view",
      "type": "function"
    },
    {
      "constant": true,
      "inputs": [],
      "name": "pokeReward",
      "outputs": [
        {
          "name": "",
          "type": "uint256"
        }
      ],
      "payable": false,
      "stateMutability": "view",
      "type": "function"
    },
    {
      "constant": true,
      "inputs": [
        {
          "name": "_bucketid",
          "type": "uint256"
        }
      ],
      "name": "bucketMaxBids",
      "outputs": [
        {
          "name": "maxBids",
          "type": "uint256[]"
        }
      ],
      "payable": false,
      "stateMutability": "view",
      "type": "function"
    },
    {
      "constant": true,
      "inputs": [],
      "name": "bonus",
      "outputs": [
        {
          "name": "b",
          "type": "uint256"
        }
      ],
      "payable": false,
      "stateMutability": "view",
      "type": "function"
    },
    {
      "constant": true,
      "inputs": [],
      "name": "startTime",
      "outputs": [
        {
          "name": "",
          "type": "uint256"
        }
      ],
      "payable": false,
      "stateMutability": "view",
      "type": "function"
    },
    {
      "constant": true,
      "inputs": [],
      "name": "owner",
      "outputs": [
        {
          "name": "",
          "type": "address"
        }
      ],
      "payable": false,
      "stateMutability": "view",
      "type": "function"
    },
    {
      "constant": true,
      "inputs": [
        {
          "name": "",
          "type": "uint256"
        }
      ],
      "name": "buckets",
      "outputs": [
        {
          "name": "valuation",
          "type": "uint256"
        },
        {
          "name": "creator",
          "type": "address"
        }
      ],
      "payable": false,
      "stateMutability": "view",
      "type": "function"
    },
    {
      "constant": true,
      "inputs": [],
      "name": "maxValuation",
      "outputs": [
        {
          "name": "",
          "type": "uint256"
        }
      ],
      "payable": false,
      "stateMutability": "view",
      "type": "function"
    },
    {
      "constant": true,
      "inputs": [],
      "name": "minValuation",
      "outputs": [
        {
          "name": "",
          "type": "uint256"
        }
      ],
      "payable": false,
      "stateMutability": "view",
      "type": "function"
    },
    {
      "constant": true,
      "inputs": [],
      "name": "maximumBaseContribution",
      "outputs": [
        {
          "name": "",
          "type": "uint256"
        }
      ],
      "payable": false,
      "stateMutability": "view",
      "type": "function"
    },
    {
      "constant": true,
      "inputs": [],
      "name": "finalized",
      "outputs": [
        {
          "name": "",
          "type": "bool"
        }
      ],
      "payable": false,
      "stateMutability": "view",
      "type": "function"
    },
    {
      "constant": false,
      "inputs": [
        {
          "name": "_bids",
          "type": "uint256[]"
        }
      ],
      "name": "pokeIn",
      "outputs": [],
      "payable": false,
      "stateMutability": "nonpayable",
      "type": "function"
    },
    {
      "constant": true,
      "inputs": [],
      "name": "numBuckets",
      "outputs": [
        {
          "name": "",
          "type": "uint256"
        }
      ],
      "payable": false,
      "stateMutability": "view",
      "type": "function"
    },
    {
      "constant": true,
      "inputs": [
        {
          "name": "",
          "type": "address"
        }
      ],
      "name": "reinforcedWhitelist",
      "outputs": [
        {
          "name": "",
          "type": "bool"
        }
      ],
      "payable": false,
      "stateMutability": "view",
      "type": "function"
    },
    {
      "constant": true,
      "inputs": [],
      "name": "increment",
      "outputs": [
        {
          "name": "",
          "type": "uint256"
        }
      ],
      "payable": false,
      "stateMutability": "view",
      "type": "function"
    },
    {
      "constant": false,
      "inputs": [
        {
          "name": "_bidID",
          "type": "uint256"
        }
      ],
      "name": "redeem",
      "outputs": [],
      "payable": false,
      "stateMutability": "nonpayable",
      "type": "function"
    },
    {
      "constant": true,
      "inputs": [],
      "name": "sumAcceptedContrib",
      "outputs": [
        {
          "name": "",
          "type": "uint256"
        }
      ],
      "payable": false,
      "stateMutability": "view",
      "type": "function"
    },
    {
      "constant": true,
      "inputs": [
        {
          "name": "_bucketid",
          "type": "uint256"
        }
      ],
      "name": "bucketMinBids",
      "outputs": [
        {
          "name": "minBids",
          "type": "uint256[]"
        }
      ],
      "payable": false,
      "stateMutability": "view",
      "type": "function"
    },
    {
      "constant": true,
      "inputs": [],
      "name": "endFullBonusTime",
      "outputs": [
        {
          "name": "",
          "type": "uint256"
        }
      ],
      "payable": false,
      "stateMutability": "view",
      "type": "function"
    },
    {
      "constant": true,
      "inputs": [],
      "name": "token",
      "outputs": [
        {
          "name": "",
          "type": "address"
        }
      ],
      "payable": false,
      "stateMutability": "view",
      "type": "function"
    },
    {
      "inputs": [
        {
          "name": "_startTime",
          "type": "uint256"
        },
        {
          "name": "_fullBonusLength",
          "type": "uint256"
        },
        {
          "name": "_partialWithdrawalLength",
          "type": "uint256"
        },
        {
          "name": "_withdrawalLockUpLength",
          "type": "uint256"
        },
        {
          "name": "_maxBonus",
          "type": "uint256"
        },
        {
          "name": "_beneficiary",
          "type": "address"
        },
        {
          "name": "_maximumBaseContribution",
          "type": "uint256"
        },
        {
          "name": "_minValuation",
          "type": "uint256"
        },
        {
          "name": "_maxValuation",
          "type": "uint256"
        },
        {
          "name": "_increment",
          "type": "uint256"
        }
      ],
      "payable": false,
      "stateMutability": "nonpayable",
      "type": "constructor"
    },
    {
      "payable": true,
      "stateMutability": "payable",
      "type": "fallback"
    },
    {
      "anonymous": false,
      "inputs": [
        {
          "indexed": true,
          "name": "contributor",
          "type": "address"
        },
        {
          "indexed": true,
          "name": "bidID",
          "type": "uint256"
        },
        {
          "indexed": true,
          "name": "time",
          "type": "uint256"
        }
      ],
      "name": "BidSubmitted",
      "type": "event"
    },
    {
      "anonymous": false,
      "inputs": [
        {
          "indexed": true,
          "name": "poker",
          "type": "address"
        },
        {
          "indexed": true,
          "name": "bidID",
          "type": "uint256"
        }
      ],
      "name": "PokeIn",
      "type": "event"
    },
    {
      "anonymous": false,
      "inputs": [
        {
          "indexed": true,
          "name": "poker",
          "type": "address"
        },
        {
          "indexed": true,
          "name": "bidID",
          "type": "uint256"
        }
      ],
      "name": "PokeOut",
      "type": "event"
    },
    {
      "constant": false,
      "inputs": [
        {
          "name": "_maxValuation",
          "type": "uint256"
        },
        {
          "name": "_next",
          "type": "uint256"
        }
      ],
      "name": "submitBid",
      "outputs": [],
      "payable": true,
      "stateMutability": "payable",
      "type": "function"
    },
    {
      "constant": false,
      "inputs": [
        {
          "name": "_whitelister",
          "type": "address"
        }
      ],
      "name": "setWhitelister",
      "outputs": [],
      "payable": false,
      "stateMutability": "nonpayable",
      "type": "function"
    },
    {
      "constant": false,
      "inputs": [
        {
          "name": "_buyersToWhitelist",
          "type": "address[]"
        }
      ],
      "name": "addBaseWhitelist",
      "outputs": [],
      "payable": false,
      "stateMutability": "nonpayable",
      "type": "function"
    },
    {
      "constant": false,
      "inputs": [
        {
          "name": "_buyersToWhitelist",
          "type": "address[]"
        }
      ],
      "name": "addReinforcedWhitelist",
      "outputs": [],
      "payable": false,
      "stateMutability": "nonpayable",
      "type": "function"
    },
    {
      "constant": false,
      "inputs": [
        {
          "name": "_buyersToRemove",
          "type": "address[]"
        }
      ],
      "name": "removeBaseWhitelist",
      "outputs": [],
      "payable": false,
      "stateMutability": "nonpayable",
      "type": "function"
    },
    {
      "constant": false,
      "inputs": [
        {
          "name": "_buyersToRemove",
          "type": "address[]"
        }
      ],
      "name": "removeReinforcedWhitelist",
      "outputs": [],
      "payable": false,
      "stateMutability": "nonpayable",
      "type": "function"
    }
  ],
  "bytecode": "0x608060405260006005557fffffffffffffffffffffffffffffffffffffffffffffffffffffffffffffffff6012553480156200003a57600080fd5b5060405161014080620033f383398101806040528101908080519060200190929190805190602001909291908051906020019092919080519060200190929190805190602001909291908051906020019092919080519060200190929190805190602001909291908051906020019092919080519060200190929190505050898989898989888888336000806101000a81548173ffffffffffffffffffffffffffffffffffffffff021916908373ffffffffffffffffffffffffffffffffffffffff1602179055508860068190555087600654016007819055508660075401600881905550856008540160098190555084600c8190555083600160006101000a81548173ffffffffffffffffffffffffffffffffffffffff021916908373ffffffffffffffffffffffffffffffffffffffff16021790555081600e8190555082600d8190555080600f819055506001600f54600d54600e54038115156200019d57fe5b0401601081905550608060405190810160405280600d5481526020013373ffffffffffffffffffffffffffffffffffffffff1681526020016000604051908082528060200260200182016040528015620002065781602001602082028038833980820191505090505b50815260200160006040519080825280602002602001820160405280156200023d5781602001602082028038833980820191505090505b50815250600360008081526020019081526020016000206000820151816000015560208201518160010160006101000a81548173ffffffffffffffffffffffffffffffffffffffff021916908373ffffffffffffffffffffffffffffffffffffffff1602179055506040820151816002019080519060200190620002c39291906200044c565b506060820151816003019080519060200190620002e29291906200044c565b50905050608060405190810160405280600e5481526020013373ffffffffffffffffffffffffffffffffffffffff1681526020016000604051908082528060200260200182016040528015620003475781602001602082028038833980820191505090505b50815260200160006040519080825280602002602001820160405280156200037e5781602001602082028038833980820191505090505b508152506003600060016010540381526020019081526020016000206000820151816000015560208201518160010160006101000a81548173ffffffffffffffffffffffffffffffffffffffff021916908373ffffffffffffffffffffffffffffffffffffffff1602179055506040820151816002019080519060200190620004099291906200044c565b506060820151816003019080519060200190620004289291906200044c565b509050505050505050505050508360158190555050505050505050505050620004c6565b8280548282559060005260206000209081019282156200048b579160200282015b828111156200048a5782518255916020019190600101906200046d565b5b5090506200049a91906200049e565b5090565b620004c391905b80821115620004bf576000816000905550600101620004a5565b5090565b90565b612f1d80620004d66000396000f30060806040526004361061020f576000357c0100000000000000000000000000000000000000000000000000000000900463ffffffff168063106c6441146103ed57806312aef8c314610453578063144fa6d71461047e578063152713b3146104c15780631552cb04146104ec5780631ae9fe6a146105525780631def6bad1461057d57806322758a4a146105de5780632c2f93d5146106355780632e1a7d4d146106905780633197cbb6146106bd57806334f732e8146106e857806338af3eed146107135780634423c5f11461076a5780634bb278f31461082957806352952ce61461084057806354c5b696146108a657806357f196fa146108d15780635e7c85b1146108fc578063655dd7d914610953578063694133bd14610adf57806372a2fee014610b0a57806375b4d78c14610b8c57806378e9792514610bb757806380999b7114610be25780638da5cb5b14610c485780639b51fb0d14610c9f578063a79fb0c214610d13578063aac1660314610d3e578063b196aabb14610d69578063b3f05b9714610d94578063b821da1b14610dc3578063bf972dfa14610ded578063bfdcc9a214610e53578063c1f6004514610e7e578063d09de08a14610ed9578063db006a7514610f04578063dc382cbf14610f31578063ea9ad4a514610f5c578063f0d6cc7014610fde578063f98f5b9214611009578063fc0c546a1461104c578063ffbd26ce146110a3575b600080341415801561022357506006544210155b8015610230575060095442105b156102845761027f7ffffffffffffffffffffffffffffffffffffffffffffffffffffffffffffffffe7fffffffffffffffffffffffffffffffffffffffffffffffffffffffffffffffff611109565b6103ea565b6000341480156102a05750601160009054906101000a900460ff165b156103e457600090505b600460003373ffffffffffffffffffffffffffffffffffffffff1673ffffffffffffffffffffffffffffffffffffffff168152602001908152602001600020805490508110156103df5760026000600460003373ffffffffffffffffffffffffffffffffffffffff1673ffffffffffffffffffffffffffffffffffffffff1681526020019081526020016000208381548110151561034457fe5b9060005260206000200154815260200190815260200160002060040160159054906101000a900460ff1615156103d4576103d3600460003373ffffffffffffffffffffffffffffffffffffffff1673ffffffffffffffffffffffffffffffffffffffff168152602001908152602001600020828154811015156103c357fe5b90600052602060002001546111db565b5b8060010190506102aa565b6103e9565b600080fd5b5b50005b3480156103f957600080fd5b5061045160048036038101908080359060200190820180359060200190808060200260200160405190810160405280939291908181526020018383602002808284378201915050505050509192919290505050611469565b005b34801561045f57600080fd5b50610468611553565b6040518082815260200191505060405180910390f35b34801561048a57600080fd5b506104bf600480360381019080803573ffffffffffffffffffffffffffffffffffffffff169060200190929190505050611559565b005b3480156104cd57600080fd5b506104d6611753565b6040518082815260200191505060405180910390f35b3480156104f857600080fd5b5061055060048036038101908080359060200190820180359060200190808060200260200160405190810160405280939291908181526020018383602002808284378201915050505050509192919290505050611759565b005b34801561055e57600080fd5b50610567611843565b6040518082815260200191505060405180910390f35b34801561058957600080fd5b506105c8600480360381019080803573ffffffffffffffffffffffffffffffffffffffff16906020019092919080359060200190929190505050611849565b6040518082815260200191505060405180910390f35b3480156105ea57600080fd5b506105f3611879565b604051808273ffffffffffffffffffffffffffffffffffffffff1673ffffffffffffffffffffffffffffffffffffffff16815260200191505060405180910390f35b34801561064157600080fd5b50610676600480360381019080803573ffffffffffffffffffffffffffffffffffffffff16906020019092919050505061189f565b604051808215151515815260200191505060405180910390f35b34801561069c57600080fd5b506106bb600480360381019080803590602001909291905050506118bf565b005b3480156106c957600080fd5b506106d2611a9c565b6040518082815260200191505060405180910390f35b3480156106f457600080fd5b506106fd611aa2565b6040518082815260200191505060405180910390f35b34801561071f57600080fd5b50610728611aa8565b604051808273ffffffffffffffffffffffffffffffffffffffff1673ffffffffffffffffffffffffffffffffffffffff16815260200191505060405180910390f35b34801561077657600080fd5b5061079560048036038101908080359060200190929190505050611ace565b604051808c81526020018b81526020018a81526020018981526020018873ffffffffffffffffffffffffffffffffffffffff1673ffffffffffffffffffffffffffffffffffffffff1681526020018715151515815260200186151515158152602001851515151581526020018481526020018381526020018281526020019b50505050505050505050505060405180910390f35b34801561083557600080fd5b5061083e611b6f565b005b34801561084c57600080fd5b506108a460048036038101908080359060200190820180359060200190808060200260200160405190810160405280939291908181526020018383602002808284378201915050505050509192919290505050611c13565b005b3480156108b257600080fd5b506108bb611d37565b6040518082815260200191505060405180910390f35b3480156108dd57600080fd5b506108e6611d3d565b6040518082815260200191505060405180910390f35b34801561090857600080fd5b5061093d600480360381019080803573ffffffffffffffffffffffffffffffffffffffff169060200190929190505050611d43565b6040518082815260200191505060405180910390f35b34801561095f57600080fd5b50610968611e17565b60405180806020018060200180602001806020018060200186810386528b818151815260200191508051906020019060200280838360005b838110156109bb5780820151818401526020810190506109a0565b5050505090500186810385528a818151815260200191508051906020019060200280838360005b838110156109fd5780820151818401526020810190506109e2565b50505050905001868103845289818151815260200191508051906020019060200280838360005b83811015610a3f578082015181840152602081019050610a24565b50505050905001868103835288818151815260200191508051906020019060200280838360005b83811015610a81578082015181840152602081019050610a66565b50505050905001868103825287818151815260200191508051906020019060200280838360005b83811015610ac3578082015181840152602081019050610aa8565b505050509050019a505050505050505050505060405180910390f35b348015610aeb57600080fd5b50610af4612024565b6040518082815260200191505060405180910390f35b348015610b1657600080fd5b50610b3560048036038101908080359060200190929190505050612029565b6040518080602001828103825283818151815260200191508051906020019060200280838360005b83811015610b78578082015181840152602081019050610b5d565b505050509050019250505060405180910390f35b348015610b9857600080fd5b50610ba1612145565b6040518082815260200191505060405180910390f35b348015610bc357600080fd5b50610bcc61218e565b6040518082815260200191505060405180910390f35b348015610bee57600080fd5b50610c4660048036038101908080359060200190820180359060200190808060200260200160405190810160405280939291908181526020018383602002808284378201915050505050509192919290505050612194565b005b348015610c5457600080fd5b50610c5d61227e565b604051808273ffffffffffffffffffffffffffffffffffffffff1673ffffffffffffffffffffffffffffffffffffffff16815260200191505060405180910390f35b348015610cab57600080fd5b50610cca600480360381019080803590602001909291905050506122a3565b604051808381526020018273ffffffffffffffffffffffffffffffffffffffff1673ffffffffffffffffffffffffffffffffffffffff1681526020019250505060405180910390f35b348015610d1f57600080fd5b50610d286122e7565b6040518082815260200191505060405180910390f35b348015610d4a57600080fd5b50610d536122ed565b6040518082815260200191505060405180910390f35b348015610d7557600080fd5b50610d7e6122f3565b6040518082815260200191505060405180910390f35b348015610da057600080fd5b50610da96122f9565b604051808215151515815260200191505060405180910390f35b610deb6004803603810190808035906020019092919080359060200190929190505050611109565b005b348015610df957600080fd5b50610e516004803603810190808035906020019082018035906020019080806020026020016040519081016040528093929190818152602001838360200280828437820191505050505050919291929050505061230c565b005b348015610e5f57600080fd5b50610e68612431565b6040518082815260200191505060405180910390f35b348015610e8a57600080fd5b50610ebf600480360381019080803573ffffffffffffffffffffffffffffffffffffffff169060200190929190505050612437565b604051808215151515815260200191505060405180910390f35b348015610ee557600080fd5b50610eee612457565b6040518082815260200191505060405180910390f35b348015610f1057600080fd5b50610f2f600480360381019080803590602001909291905050506111db565b005b348015610f3d57600080fd5b50610f4661245d565b6040518082815260200191505060405180910390f35b348015610f6857600080fd5b50610f8760048036038101908080359060200190929190505050612463565b6040518080602001828103825283818151815260200191508051906020019060200280838360005b83811015610fca578082015181840152602081019050610faf565b505050509050019250505060405180910390f35b348015610fea57600080fd5b50610ff361257f565b6040518082815260200191505060405180910390f35b34801561101557600080fd5b5061104a600480360381019080803573ffffffffffffffffffffffffffffffffffffffff169060200190929190505050612585565b005b34801561105857600080fd5b50611061612624565b604051808273ffffffffffffffffffffffffffffffffffffffff1673ffffffffffffffffffffffffffffffffffffffff16815260200191505060405180910390f35b3480156110af57600080fd5b506111076004803603810190808035906020019082018035906020019080806020026020016040519081016040528093929190818152602001838360200280828437820191505050505050919291929050505061264a565b005b601760003373ffffffffffffffffffffffffffffffffffffffff1673ffffffffffffffffffffffffffffffffffffffff16815260200190815260200160002060009054906101000a900460ff16806111c25750601660003373ffffffffffffffffffffffffffffffffffffffff1673ffffffffffffffffffffffffffffffffffffffff16815260200190815260200160002060009054906101000a900460ff1680156111c157506015546111bc33611d43565b340111155b5b15156111cd57600080fd5b6111d78282612734565b5050565b6000806002600084815260200190815260200160002091506002600060125481526020019081526020016000209050601160009054906101000a900460ff16151561122557600080fd5b8160040160159054906101000a900460ff1615151561124357600080fd5b60018260040160156101000a81548160ff02191690831515021790555080600001548260000154118061128b57508060000154826000015414801561128a57506012548310155b5b156113f457600a60009054906101000a900473ffffffffffffffffffffffffffffffffffffffff1673ffffffffffffffffffffffffffffffffffffffff1663a9059cbb8360040160009054906101000a900473ffffffffffffffffffffffffffffffffffffffff16601454633b9aca00866003015487600201540281151561130f57fe5b04866002015401600b540281151561132357fe5b046040518363ffffffff167c0100000000000000000000000000000000000000000000000000000000028152600401808373ffffffffffffffffffffffffffffffffffffffff1673ffffffffffffffffffffffffffffffffffffffff16815260200182815260200192505050602060405180830381600087803b1580156113a957600080fd5b505af11580156113bd573d6000803e3d6000fd5b505050506040513d60208110156113d357600080fd5b810190808051906020019092919050505015156113ef57600080fd5b611464565b8160040160009054906101000a900473ffffffffffffffffffffffffffffffffffffffff1673ffffffffffffffffffffffffffffffffffffffff166108fc83600201549081150290604051600060405180830381858888f19350505050158015611462573d6000803e3d6000fd5b505b505050565b60003373ffffffffffffffffffffffffffffffffffffffff16601860009054906101000a900473ffffffffffffffffffffffffffffffffffffffff1673ffffffffffffffffffffffffffffffffffffffff161415156114c757600080fd5b600090505b815181101561154f5760006017600084848151811015156114e957fe5b9060200190602002015173ffffffffffffffffffffffffffffffffffffffff1673ffffffffffffffffffffffffffffffffffffffff16815260200190815260200160002060006101000a81548160ff0219169083151502179055508060010190506114cc565b5050565b600b5481565b3373ffffffffffffffffffffffffffffffffffffffff166000809054906101000a900473ffffffffffffffffffffffffffffffffffffffff1673ffffffffffffffffffffffffffffffffffffffff161415156115b457600080fd5b600073ffffffffffffffffffffffffffffffffffffffff16600a60009054906101000a900473ffffffffffffffffffffffffffffffffffffffff1673ffffffffffffffffffffffffffffffffffffffff1614151561161157600080fd5b80600a60006101000a81548173ffffffffffffffffffffffffffffffffffffffff021916908373ffffffffffffffffffffffffffffffffffffffff160217905550600a60009054906101000a900473ffffffffffffffffffffffffffffffffffffffff1673ffffffffffffffffffffffffffffffffffffffff166370a08231306040518263ffffffff167c0100000000000000000000000000000000000000000000000000000000028152600401808273ffffffffffffffffffffffffffffffffffffffff1673ffffffffffffffffffffffffffffffffffffffff168152602001915050602060405180830381600087803b15801561170f57600080fd5b505af1158015611723573d6000803e3d6000fd5b505050506040513d602081101561173957600080fd5b8101908080519060200190929190505050600b8190555050565b60145481565b60003373ffffffffffffffffffffffffffffffffffffffff16601860009054906101000a900473ffffffffffffffffffffffffffffffffffffffff1673ffffffffffffffffffffffffffffffffffffffff161415156117b757600080fd5b600090505b815181101561183f5760016016600084848151811015156117d957fe5b9060200190602002015173ffffffffffffffffffffffffffffffffffffffff1673ffffffffffffffffffffffffffffffffffffffff16815260200190815260200160002060006101000a81548160ff0219169083151502179055508060010190506117bc565b5050565b60125481565b60046020528160005260406000208181548110151561186457fe5b90600052602060002001600091509150505481565b601860009054906101000a900473ffffffffffffffffffffffffffffffffffffffff1681565b60166020528060005260406000206000915054906101000a900460ff1681565b6000806002600084815260200190815260200160002091508160040160009054906101000a900473ffffffffffffffffffffffffffffffffffffffff1673ffffffffffffffffffffffffffffffffffffffff163373ffffffffffffffffffffffffffffffffffffffff1614151561193557600080fd5b6008544210151561194557600080fd5b8160040160149054906101000a900460ff1615151561196357600080fd5b60018260040160146101000a81548160ff02191690831515021790555060008260040160166101000a81548160ff02191690831515021790555060075442106119c7576007546008540342600854038360020154028115156119c157fe5b046119cd565b81600201545b9050816002015481111515156119df57fe5b80826002016000828254039250508190555060036002836003015402811515611a0457fe5b0482600301819055508060136000828254039250508190555080633b9aca0060020282600302846002015401846003015402811515611a3f57fe5b04016014600082825403925050819055503373ffffffffffffffffffffffffffffffffffffffff166108fc829081150290604051600060405180830381858888f19350505050158015611a96573d6000803e3d6000fd5b50505050565b60095481565b60085481565b600160009054906101000a900473ffffffffffffffffffffffffffffffffffffffff1681565b60026020528060005260406000206000915090508060000154908060010154908060020154908060030154908060040160009054906101000a900473ffffffffffffffffffffffffffffffffffffffff16908060040160149054906101000a900460ff16908060040160159054906101000a900460ff16908060040160169054906101000a900460ff1690806005015490806006015490806007015490508b565b6009544210151515611b8057600080fd5b601160009054906101000a900460ff16151515611b9c57600080fd5b6001601160006101000a81548160ff021916908315150217905550600160009054906101000a900473ffffffffffffffffffffffffffffffffffffffff1673ffffffffffffffffffffffffffffffffffffffff166108fc6013549081150290604051600060405180830381858888f1935050505050565b6000806000806013549350601454925060009150600260008081526020019081526020016000209050600091505b8451821015611d2957600260008684815181101515611c5c57fe5b90602001906020020151815260200190815260200160002090508060040160169054906101000a900460ff1615611d1c578060000154841115611d1b5760008160040160166101000a81548160ff0219169083151502179055508060020154840393508482815181101515611ccd57fe5b906020019060200201513373ffffffffffffffffffffffffffffffffffffffff167f18b9dfa9fe6aa9cb8eff6587f39f0d33b2362294ab57c0782dafff5356be207760405160405180910390a35b5b8180600101925050611c41565b836013819055505050505050565b600c5481565b60055481565b600080600090505b600460008473ffffffffffffffffffffffffffffffffffffffff1673ffffffffffffffffffffffffffffffffffffffff16815260200190815260200160002080549050811015611e115760026000600460008673ffffffffffffffffffffffffffffffffffffffff1673ffffffffffffffffffffffffffffffffffffffff16815260200190815260200160002083815481101515611de557fe5b906000526020600020015481526020019081526020016000206002015482019150806001019050611d4b565b50919050565b606080606080606080606080606080600080600554604051908082528060200260200182016040528015611e5a5781602001602082028038833980820191505090505b509650600554604051908082528060200260200182016040528015611e8e5781602001602082028038833980820191505090505b509550600554604051908082528060200260200182016040528015611ec25781602001602082028038833980820191505090505b509450600554604051908082528060200260200182016040528015611ef65781602001602082028038833980820191505090505b509350600554604051908082528060200260200182016040528015611f2a5781602001602082028038833980820191505090505b50925060009150600091505b6005548210156120075760026000838152602001908152602001600020905080600001548783815181101515611f6857fe5b906020019060200201818152505080600101548683815181101515611f8957fe5b906020019060200201818152505080600201548583815181101515611faa57fe5b906020019060200201818152505080600301548483815181101515611fcb57fe5b906020019060200201818152505080600701548383815181101515611fec57fe5b90602001906020020181815250508180600101925050611f36565b86868686869b509b509b509b509b50505050505050509091929394565b60c881565b6060600080600360008581526020019081526020016000209150600073ffffffffffffffffffffffffffffffffffffffff168260010160009054906101000a900473ffffffffffffffffffffffffffffffffffffffff1673ffffffffffffffffffffffffffffffffffffffff1614156120a45782925061213e565b81600201805490506040519080825280602002602001820160405280156120da5781602001602082028038833980820191505090505b50925060009050600090505b816002018054905081101561213a57816002018181548110151561210657fe5b9060005260206000200154838281518110151561211f57fe5b906020019060200201818152505080806001019150506120e6565b8292505b5050919050565b600060075442101561215b57600c54905061218b565b60095442111561216e576000905061218b565b600754600954034260095403600c540281151561218757fe5b0490505b90565b60065481565b60003373ffffffffffffffffffffffffffffffffffffffff16601860009054906101000a900473ffffffffffffffffffffffffffffffffffffffff1673ffffffffffffffffffffffffffffffffffffffff161415156121f257600080fd5b600090505b815181101561227a57600060166000848481518110151561221457fe5b9060200190602002015173ffffffffffffffffffffffffffffffffffffffff1673ffffffffffffffffffffffffffffffffffffffff16815260200190815260200160002060006101000a81548160ff0219169083151502179055508060010190506121f7565b5050565b6000809054906101000a900473ffffffffffffffffffffffffffffffffffffffff1681565b60036020528060005260406000206000915090508060000154908060010160009054906101000a900473ffffffffffffffffffffffffffffffffffffffff16905082565b600e5481565b600d5481565b60155481565b601160009054906101000a900460ff1681565b6000806000806013549350601454925060009150600260008081526020019081526020016000209050600091505b84518210156124235760026000868481518110151561235557fe5b90602001906020020151815260200190815260200160002090508060040160169054906101000a900460ff1615612416578060010154841015156124155760018160040160166101000a81548160ff02191690831515021790555080600201548401935084828151811015156123c757fe5b906020019060200201513373ffffffffffffffffffffffffffffffffffffffff167fd0c2ce06925abe5941bf2c1cdd601c2d8f05d7ea76403da9801e2245ea69b5ed60405160405180910390a35b5b818060010192505061233a565b836013819055505050505050565b60105481565b60176020528060005260406000206000915054906101000a900460ff1681565b600f5481565b60135481565b6060600080600360008581526020019081526020016000209150600073ffffffffffffffffffffffffffffffffffffffff168260010160009054906101000a900473ffffffffffffffffffffffffffffffffffffffff1673ffffffffffffffffffffffffffffffffffffffff1614156124de57829250612578565b81600301805490506040519080825280602002602001820160405280156125145781602001602082028038833980820191505090505b50925060009050600090505b816003018054905081101561257457816003018181548110151561254057fe5b9060005260206000200154838281518110151561255957fe5b90602001906020020181815250508080600101915050612520565b8292505b5050919050565b60075481565b3373ffffffffffffffffffffffffffffffffffffffff166000809054906101000a900473ffffffffffffffffffffffffffffffffffffffff1673ffffffffffffffffffffffffffffffffffffffff161415156125e057600080fd5b80601860006101000a81548173ffffffffffffffffffffffffffffffffffffffff021916908373ffffffffffffffffffffffffffffffffffffffff16021790555050565b600a60009054906101000a900473ffffffffffffffffffffffffffffffffffffffff1681565b60003373ffffffffffffffffffffffffffffffffffffffff16601860009054906101000a900473ffffffffffffffffffffffffffffffffffffffff1673ffffffffffffffffffffffffffffffffffffffff161415156126a857600080fd5b600090505b81518110156127305760016017600084848151811015156126ca57fe5b9060200190602002015173ffffffffffffffffffffffffffffffffffffffff1673ffffffffffffffffffffffffffffffffffffffff16815260200190815260200160002060006101000a81548160ff0219169083151502179055508060010190506126ad565b5050565b600080600080600654421015801561274d575060095442105b151561275857600080fd5b600d54861015801561276957508486115b151561277457600080fd5b6000600f54600d54880381151561278757fe5b0614151561279457600080fd5b6000600f54600d5487038115156127a757fe5b061415156127b457600080fd5b600f54600d5486038115156127c557fe5b049350600f54600d5487038115156127d957fe5b049250600073ffffffffffffffffffffffffffffffffffffffff166003600086815260200190815260200160002060010160009054906101000a900473ffffffffffffffffffffffffffffffffffffffff1673ffffffffffffffffffffffffffffffffffffffff161415612981576080604051908101604052808681526020013373ffffffffffffffffffffffffffffffffffffffff16815260200160006040519080825280602002602001820160405280156128a55781602001602082028038833980820191505090505b50815260200160006040519080825280602002602001820160405280156128db5781602001602082028038833980820191505090505b50815250600360008681526020019081526020016000206000820151816000015560208201518160010160006101000a81548173ffffffffffffffffffffffffffffffffffffffff021916908373ffffffffffffffffffffffffffffffffffffffff160217905550604082015181600201908051906020019061295f929190612e7f565b50606082015181600301908051906020019061297c929190612e7f565b509050505b600073ffffffffffffffffffffffffffffffffffffffff166003600085815260200190815260200160002060010160009054906101000a900473ffffffffffffffffffffffffffffffffffffffff1673ffffffffffffffffffffffffffffffffffffffff161415612b26576080604051908101604052808781526020013373ffffffffffffffffffffffffffffffffffffffff1681526020016000604051908082528060200260200182016040528015612a4a5781602001602082028038833980820191505090505b5081526020016000604051908082528060200260200182016040528015612a805781602001602082028038833980820191505090505b50815250600360008581526020019081526020016000206000820151816000015560208201518160010160006101000a81548173ffffffffffffffffffffffffffffffffffffffff021916908373ffffffffffffffffffffffffffffffffffffffff1602179055506040820151816002019080519060200190612b04929190612e7f565b506060820151816003019080519060200190612b21929190612e7f565b509050505b6003600084815260200190815260200160002091506005600081546001019190508190555061016060405190810160405280878152602001868152602001348152602001612b72612145565b81526020013373ffffffffffffffffffffffffffffffffffffffff1681526020016000151581526020016000151581526020018734601354011180612bba5750863460135401105b612bc5576001612bc8565b60005b15158152602001858152602001848152602001438152506002600060055481526020019081526020016000206000820151816000015560208201518160010155604082015181600201556060820151816003015560808201518160040160006101000a81548173ffffffffffffffffffffffffffffffffffffffff021916908373ffffffffffffffffffffffffffffffffffffffff16021790555060a08201518160040160146101000a81548160ff02191690831515021790555060c08201518160040160156101000a81548160ff02191690831515021790555060e08201518160040160166101000a81548160ff02191690831515021790555061010082015181600501556101208201518160060155610140820151816007015590505060026000600554815260200190815260200160002090508060020154601360008282540192505081905550633b9aca008160030154826002015402811515612d2b57fe5b04816002015401601460008282540192505081905550600360008481526020019081526020016000206002016005549080600181540180825580915050906001820390600052602060002001600090919290919091505550600360008581526020019081526020016000206003016005549080600181540180825580915050906001820390600052602060002001600090919290919091505550600460003373ffffffffffffffffffffffffffffffffffffffff1673ffffffffffffffffffffffffffffffffffffffff1681526020019081526020016000206005549080600181540180825580915050906001820390600052602060002001600090919290919091505550426005543373ffffffffffffffffffffffffffffffffffffffff167f84bee513033536a8de8a8260e2674a4a3eebd61ddce74615fdeca8a1499f5efe60405160405180910390a4505050505050565b828054828255906000526020600020908101928215612ebb579160200282015b82811115612eba578251825591602001919060010190612e9f565b5b509050612ec89190612ecc565b5090565b612eee91905b80821115612eea576000816000905550600101612ed2565b5090565b905600a165627a7a723058207aeff0c69283b401034099e2a87f583932acbdcc6a7fef5c3ce6c0def99e82440029",
  "source": "/** @title Level Whitelisted Interactive Coin Offering\n *  @author Clment Lesaege - <clement@lesaege.com>\n */\n\npragma solidity ^0.4.23;\n\nimport \"./IICO.sol\";\n\n/** @title Level Whitelisted Interactive Coin Offering\n *  This contract implements an Interactive Coin Offering with two whitelists:\n *  - The base one, with limited contribution.\n *  - The reinforced one, with unlimited contribution.\n */\ncontract LevelWhitelistedIICO is IICO {\n    \n    uint public maximumBaseContribution;\n    mapping (address => bool) public baseWhitelist; // True if in the base whitelist (has a contribution limit).\n    mapping (address => bool) public reinforcedWhitelist; // True if in the reinforced whitelist (does not have a contribution limit).\n    address public whitelister; // The party which can add or remove people from the whitelist.\n    \n    modifier onlyWhitelister{ require(whitelister == msg.sender); _; }\n    \n    /** @dev Constructor. First contract set up (tokens will also need to be transferred to the contract and then setToken needs to be called to finish the setup).\n     *  @param _startTime Time the sale will start in seconds since the Unix Epoch.\n     *  @param _fullBonusLength Amount of seconds the sale lasts in the full bonus period.\n     *  @param _partialWithdrawalLength Amount of seconds the sale lasts in the partial withdrawal period.\n     *  @param _withdrawalLockUpLength Amount of seconds the sale lasts in the withdrawal lockup period.\n     *  @param _maxBonus The maximum bonus. Will be normalized by BONUS_DIVISOR. For example for a 20% bonus, _maxBonus must be 0.2 * BONUS_DIVISOR.\n     *  @param _beneficiary The party which will get the funds of the token sale.\n     *  @param _maximumBaseContribution The maximum contribution for buyers on the base list.\n     */\n    function LevelWhitelistedIICO(uint _startTime, uint _fullBonusLength, uint _partialWithdrawalLength, uint _withdrawalLockUpLength, uint _maxBonus, address _beneficiary, uint _maximumBaseContribution, uint _minValuation, uint _maxValuation, uint _increment) IICO(_startTime,_fullBonusLength,_partialWithdrawalLength,_withdrawalLockUpLength,_maxBonus,_beneficiary,_minValuation,_maxValuation,_increment) public {\n        maximumBaseContribution=_maximumBaseContribution;\n    }\n    \n    /** @dev Submit a bid. The caller must give the exact position the bid must be inserted into in the list.\n     *  In practice, use searchAndBid to avoid the position being incorrect due to a new bid being inserted and changing the position the bid must be inserted at.\n     *  @param _maxValuation The maximum valuation given by the contributor. If the amount raised is higher, the bid is cancelled and the contributor refunded because it prefers a refund instead of this level of dilution. To buy no matter what, use INFINITY.\n     *  @param _next The bidID of the next bid in the list.\n     */\n    function submitBid(uint _maxValuation, uint _next) public payable {\n        require(reinforcedWhitelist[msg.sender] || (baseWhitelist[msg.sender] && (msg.value + totalContrib(msg.sender) <= maximumBaseContribution))); // Check if the buyer is in the reinforced whitelist or if it is on the base one and this would not make its total contribution exceed the limit.\n        super.submitBid(_maxValuation,_next);\n    }\n    \n    /** @dev Set the whitelister.\n     *  @param _whitelister The whitelister.\n     */\n    function setWhitelister(address _whitelister) public onlyOwner {\n        whitelister=_whitelister;\n    }\n    \n    /** @dev Add buyers to the base whitelist.\n     *  @param _buyersToWhitelist Buyers to add to the whitelist.\n     */\n    function addBaseWhitelist(address[] _buyersToWhitelist) public onlyWhitelister {\n        for(uint i=0;i<_buyersToWhitelist.length;++i)\n            baseWhitelist[_buyersToWhitelist[i]]=true;\n    }\n    \n    /** @dev Add buyers to the reinforced whitelist.\n     *  @param _buyersToWhitelist Buyers to add to the whitelist.\n     */\n    function addReinforcedWhitelist(address[] _buyersToWhitelist) public onlyWhitelister {\n        for(uint i=0;i<_buyersToWhitelist.length;++i)\n            reinforcedWhitelist[_buyersToWhitelist[i]]=true;\n    }\n    \n    /** @dev Remove buyers from the base whitelist.\n     *  @param _buyersToRemove Buyers to remove from the whitelist.\n     */\n    function removeBaseWhitelist(address[] _buyersToRemove) public onlyWhitelister {\n        for(uint i=0;i<_buyersToRemove.length;++i)\n            baseWhitelist[_buyersToRemove[i]]=false;\n    }\n    \n    /** @dev Remove buyers from the reinforced whitelist.\n     *  @param _buyersToRemove Buyers to remove from the whitelist.\n     */\n    function removeReinforcedWhitelist(address[] _buyersToRemove) public onlyWhitelister {\n        for(uint i=0;i<_buyersToRemove.length;++i)\n            reinforcedWhitelist[_buyersToRemove[i]]=false;\n    }\n\n}\n",
  "sourcePath": "/home/surya/projects/truebit/interactive-coin-offerings/truebit-implementation/contracts/LevelWhitelistedIICO.sol",
  "compiler": {
    "name": "solc",
    "version": "0.4.24+commit.e67f0147.Emscripten.clang"
  },
  "schemaVersion": "2.0.1",
  "updatedAt": "2019-02-06T03:52:08.266Z"
}