{
  "contractName": "LevelWhitelistedIICO",
  "abi": [
    {
      "constant": true,
      "inputs": [],
      "name": "tokensForSale",
      "outputs": [
        {
          "name": "",
          "type": "uint256"
        }
      ],
      "payable": false,
      "stateMutability": "view",
      "type": "function"
    },
    {
      "constant": false,
      "inputs": [
        {
          "name": "_token",
          "type": "address"
        }
      ],
      "name": "setToken",
      "outputs": [],
      "payable": false,
      "stateMutability": "nonpayable",
      "type": "function"
    },
    {
      "constant": true,
      "inputs": [],
      "name": "sumAcceptedVirtualContrib",
      "outputs": [
        {
          "name": "",
          "type": "uint256"
        }
      ],
      "payable": false,
      "stateMutability": "view",
      "type": "function"
    },
    {
      "constant": true,
      "inputs": [],
      "name": "cutOffBidID",
      "outputs": [
        {
          "name": "",
          "type": "uint256"
        }
      ],
      "payable": false,
      "stateMutability": "view",
      "type": "function"
    },
    {
      "constant": true,
      "inputs": [
        {
          "name": "",
          "type": "address"
        },
        {
          "name": "",
          "type": "uint256"
        }
      ],
      "name": "contributorBidIDs",
      "outputs": [
        {
          "name": "",
          "type": "uint256"
        }
      ],
      "payable": false,
      "stateMutability": "view",
      "type": "function"
    },
    {
      "constant": true,
      "inputs": [],
      "name": "whitelister",
      "outputs": [
        {
          "name": "",
          "type": "address"
        }
      ],
      "payable": false,
      "stateMutability": "view",
      "type": "function"
    },
    {
      "constant": true,
      "inputs": [
        {
          "name": "",
          "type": "address"
        }
      ],
      "name": "baseWhitelist",
      "outputs": [
        {
          "name": "",
          "type": "bool"
        }
      ],
      "payable": false,
      "stateMutability": "view",
      "type": "function"
    },
    {
      "constant": false,
      "inputs": [
        {
          "name": "_bidID",
          "type": "uint256"
        }
      ],
      "name": "withdraw",
      "outputs": [],
      "payable": false,
      "stateMutability": "nonpayable",
      "type": "function"
    },
    {
      "constant": true,
      "inputs": [],
      "name": "endTime",
      "outputs": [
        {
          "name": "",
          "type": "uint256"
        }
      ],
      "payable": false,
      "stateMutability": "view",
      "type": "function"
    },
    {
      "constant": true,
      "inputs": [],
      "name": "withdrawalLockTime",
      "outputs": [
        {
          "name": "",
          "type": "uint256"
        }
      ],
      "payable": false,
      "stateMutability": "view",
      "type": "function"
    },
    {
      "constant": true,
      "inputs": [],
      "name": "beneficiary",
      "outputs": [
        {
          "name": "",
          "type": "address"
        }
      ],
      "payable": false,
      "stateMutability": "view",
      "type": "function"
    },
    {
      "constant": true,
      "inputs": [
        {
          "name": "",
          "type": "uint256"
        }
      ],
      "name": "bids",
      "outputs": [
        {
          "name": "maxValuation",
          "type": "uint256"
        },
        {
          "name": "personalMin",
          "type": "uint256"
        },
        {
          "name": "contrib",
          "type": "uint256"
        },
        {
          "name": "bonus",
          "type": "uint256"
        },
        {
          "name": "contributor",
          "type": "address"
        },
        {
          "name": "withdrawn",
          "type": "bool"
        },
        {
          "name": "redeemed",
          "type": "bool"
        },
        {
          "name": "active",
          "type": "bool"
        },
        {
          "name": "minBucketID",
          "type": "uint256"
        },
        {
          "name": "maxBucketID",
          "type": "uint256"
        },
        {
          "name": "creationBlock",
          "type": "uint256"
        }
      ],
      "payable": false,
      "stateMutability": "view",
      "type": "function"
    },
    {
      "constant": false,
      "inputs": [],
      "name": "finalize",
      "outputs": [],
      "payable": false,
      "stateMutability": "nonpayable",
      "type": "function"
    },
    {
      "constant": true,
      "inputs": [],
      "name": "maxBonus",
      "outputs": [
        {
          "name": "",
          "type": "uint256"
        }
      ],
      "payable": false,
      "stateMutability": "view",
      "type": "function"
    },
    {
      "constant": true,
      "inputs": [],
      "name": "lastBidID",
      "outputs": [
        {
          "name": "",
          "type": "uint256"
        }
      ],
      "payable": false,
      "stateMutability": "view",
      "type": "function"
    },
    {
      "constant": true,
      "inputs": [
        {
          "name": "_contributor",
          "type": "address"
        }
      ],
      "name": "totalContrib",
      "outputs": [
        {
          "name": "contribution",
          "type": "uint256"
        }
      ],
      "payable": false,
      "stateMutability": "view",
      "type": "function"
    },
    {
      "constant": true,
      "inputs": [],
      "name": "bidBufferUint",
      "outputs": [
        {
          "name": "",
          "type": "uint256[]"
        },
        {
          "name": "",
          "type": "uint256[]"
        },
        {
          "name": "",
          "type": "uint256[]"
        },
        {
          "name": "",
          "type": "uint256[]"
        },
        {
          "name": "",
          "type": "uint256[]"
        }
      ],
      "payable": false,
      "stateMutability": "view",
      "type": "function"
    },
    {
      "constant": true,
      "inputs": [],
      "name": "pokeReward",
      "outputs": [
        {
          "name": "",
          "type": "uint256"
        }
      ],
      "payable": false,
      "stateMutability": "view",
      "type": "function"
    },
    {
      "constant": true,
      "inputs": [
        {
          "name": "_bucketid",
          "type": "uint256"
        }
      ],
      "name": "bucketMaxBids",
      "outputs": [
        {
          "name": "maxBids",
          "type": "uint256[]"
        }
      ],
      "payable": false,
      "stateMutability": "view",
      "type": "function"
    },
    {
      "constant": true,
      "inputs": [],
      "name": "bonus",
      "outputs": [
        {
          "name": "b",
          "type": "uint256"
        }
      ],
      "payable": false,
      "stateMutability": "view",
      "type": "function"
    },
    {
      "constant": true,
      "inputs": [],
      "name": "startTime",
      "outputs": [
        {
          "name": "",
          "type": "uint256"
        }
      ],
      "payable": false,
      "stateMutability": "view",
      "type": "function"
    },
    {
      "constant": true,
      "inputs": [],
      "name": "owner",
      "outputs": [
        {
          "name": "",
          "type": "address"
        }
      ],
      "payable": false,
      "stateMutability": "view",
      "type": "function"
    },
    {
      "constant": true,
      "inputs": [
        {
          "name": "",
          "type": "uint256"
        }
      ],
      "name": "buckets",
      "outputs": [
        {
          "name": "valuation",
          "type": "uint256"
        },
        {
          "name": "creator",
          "type": "address"
        }
      ],
      "payable": false,
      "stateMutability": "view",
      "type": "function"
    },
    {
      "constant": true,
      "inputs": [],
      "name": "maxValuation",
      "outputs": [
        {
          "name": "",
          "type": "uint256"
        }
      ],
      "payable": false,
      "stateMutability": "view",
      "type": "function"
    },
    {
      "constant": true,
      "inputs": [],
      "name": "minValuation",
      "outputs": [
        {
          "name": "",
          "type": "uint256"
        }
      ],
      "payable": false,
      "stateMutability": "view",
      "type": "function"
    },
    {
      "constant": true,
      "inputs": [],
      "name": "maximumBaseContribution",
      "outputs": [
        {
          "name": "",
          "type": "uint256"
        }
      ],
      "payable": false,
      "stateMutability": "view",
      "type": "function"
    },
    {
      "constant": true,
      "inputs": [],
      "name": "finalized",
      "outputs": [
        {
          "name": "",
          "type": "bool"
        }
      ],
      "payable": false,
      "stateMutability": "view",
      "type": "function"
    },
    {
      "constant": true,
      "inputs": [],
      "name": "numBuckets",
      "outputs": [
        {
          "name": "",
          "type": "uint256"
        }
      ],
      "payable": false,
      "stateMutability": "view",
      "type": "function"
    },
    {
      "constant": true,
      "inputs": [
        {
          "name": "",
          "type": "address"
        }
      ],
      "name": "reinforcedWhitelist",
      "outputs": [
        {
          "name": "",
          "type": "bool"
        }
      ],
      "payable": false,
      "stateMutability": "view",
      "type": "function"
    },
    {
      "constant": true,
      "inputs": [],
      "name": "increment",
      "outputs": [
        {
          "name": "",
          "type": "uint256"
        }
      ],
      "payable": false,
      "stateMutability": "view",
      "type": "function"
    },
    {
      "constant": false,
      "inputs": [
        {
          "name": "_bidID",
          "type": "uint256"
        }
      ],
      "name": "redeem",
      "outputs": [],
      "payable": false,
      "stateMutability": "nonpayable",
      "type": "function"
    },
    {
      "constant": true,
      "inputs": [],
      "name": "sumAcceptedContrib",
      "outputs": [
        {
          "name": "",
          "type": "uint256"
        }
      ],
      "payable": false,
      "stateMutability": "view",
      "type": "function"
    },
    {
      "constant": true,
      "inputs": [
        {
          "name": "_bucketid",
          "type": "uint256"
        }
      ],
      "name": "bucketMinBids",
      "outputs": [
        {
          "name": "minBids",
          "type": "uint256[]"
        }
      ],
      "payable": false,
      "stateMutability": "view",
      "type": "function"
    },
    {
      "constant": true,
      "inputs": [],
      "name": "endFullBonusTime",
      "outputs": [
        {
          "name": "",
          "type": "uint256"
        }
      ],
      "payable": false,
      "stateMutability": "view",
      "type": "function"
    },
    {
      "constant": false,
      "inputs": [
        {
          "name": "_bids",
          "type": "uint256[]"
        }
      ],
      "name": "poke",
      "outputs": [],
      "payable": false,
      "stateMutability": "nonpayable",
      "type": "function"
    },
    {
      "constant": true,
      "inputs": [],
      "name": "token",
      "outputs": [
        {
          "name": "",
          "type": "address"
        }
      ],
      "payable": false,
      "stateMutability": "view",
      "type": "function"
    },
    {
      "inputs": [
        {
          "name": "_startTime",
          "type": "uint256"
        },
        {
          "name": "_fullBonusLength",
          "type": "uint256"
        },
        {
          "name": "_partialWithdrawalLength",
          "type": "uint256"
        },
        {
          "name": "_withdrawalLockUpLength",
          "type": "uint256"
        },
        {
          "name": "_maxBonus",
          "type": "uint256"
        },
        {
          "name": "_beneficiary",
          "type": "address"
        },
        {
          "name": "_maximumBaseContribution",
          "type": "uint256"
        },
        {
          "name": "_minValuation",
          "type": "uint256"
        },
        {
          "name": "_maxValuation",
          "type": "uint256"
        },
        {
          "name": "_increment",
          "type": "uint256"
        }
      ],
      "payable": false,
      "stateMutability": "nonpayable",
      "type": "constructor"
    },
    {
      "payable": true,
      "stateMutability": "payable",
      "type": "fallback"
    },
    {
      "anonymous": false,
      "inputs": [
        {
          "indexed": true,
          "name": "contributor",
          "type": "address"
        },
        {
          "indexed": true,
          "name": "bidID",
          "type": "uint256"
        },
        {
          "indexed": true,
          "name": "time",
          "type": "uint256"
        }
      ],
      "name": "BidSubmitted",
      "type": "event"
    },
    {
      "anonymous": false,
      "inputs": [
        {
          "indexed": true,
          "name": "poker",
          "type": "address"
        },
        {
          "indexed": true,
          "name": "bidID",
          "type": "uint256"
        }
      ],
      "name": "Poked",
      "type": "event"
    },
    {
      "constant": false,
      "inputs": [
        {
          "name": "_maxValuation",
          "type": "uint256"
        },
        {
          "name": "_next",
          "type": "uint256"
        }
      ],
      "name": "submitBid",
      "outputs": [],
      "payable": true,
      "stateMutability": "payable",
      "type": "function"
    },
    {
      "constant": false,
      "inputs": [
        {
          "name": "_whitelister",
          "type": "address"
        }
      ],
      "name": "setWhitelister",
      "outputs": [],
      "payable": false,
      "stateMutability": "nonpayable",
      "type": "function"
    },
    {
      "constant": false,
      "inputs": [
        {
          "name": "_buyersToWhitelist",
          "type": "address[]"
        }
      ],
      "name": "addBaseWhitelist",
      "outputs": [],
      "payable": false,
      "stateMutability": "nonpayable",
      "type": "function"
    },
    {
      "constant": false,
      "inputs": [
        {
          "name": "_buyersToWhitelist",
          "type": "address[]"
        }
      ],
      "name": "addReinforcedWhitelist",
      "outputs": [],
      "payable": false,
      "stateMutability": "nonpayable",
      "type": "function"
    },
    {
      "constant": false,
      "inputs": [
        {
          "name": "_buyersToRemove",
          "type": "address[]"
        }
      ],
      "name": "removeBaseWhitelist",
      "outputs": [],
      "payable": false,
      "stateMutability": "nonpayable",
      "type": "function"
    },
    {
      "constant": false,
      "inputs": [
        {
          "name": "_buyersToRemove",
          "type": "address[]"
        }
      ],
      "name": "removeReinforcedWhitelist",
      "outputs": [],
      "payable": false,
      "stateMutability": "nonpayable",
      "type": "function"
    }
  ],
  "bytecode": "0x608060405260006005557fffffffffffffffffffffffffffffffffffffffffffffffffffffffffffffffff6012553480156200003a57600080fd5b50604051610140806200330283398101806040528101908080519060200190929190805190602001909291908051906020019092919080519060200190929190805190602001909291908051906020019092919080519060200190929190805190602001909291908051906020019092919080519060200190929190505050898989898989888888336000806101000a81548173ffffffffffffffffffffffffffffffffffffffff021916908373ffffffffffffffffffffffffffffffffffffffff1602179055508860068190555087600654016007819055508660075401600881905550856008540160098190555084600c8190555083600160006101000a81548173ffffffffffffffffffffffffffffffffffffffff021916908373ffffffffffffffffffffffffffffffffffffffff16021790555081600e8190555082600d8190555080600f819055506001600f54600d54600e54038115156200019d57fe5b0401601081905550608060405190810160405280600d5481526020013373ffffffffffffffffffffffffffffffffffffffff1681526020016000604051908082528060200260200182016040528015620002065781602001602082028038833980820191505090505b50815260200160006040519080825280602002602001820160405280156200023d5781602001602082028038833980820191505090505b50815250600360008081526020019081526020016000206000820151816000015560208201518160010160006101000a81548173ffffffffffffffffffffffffffffffffffffffff021916908373ffffffffffffffffffffffffffffffffffffffff1602179055506040820151816002019080519060200190620002c39291906200044c565b506060820151816003019080519060200190620002e29291906200044c565b50905050608060405190810160405280600e5481526020013373ffffffffffffffffffffffffffffffffffffffff1681526020016000604051908082528060200260200182016040528015620003475781602001602082028038833980820191505090505b50815260200160006040519080825280602002602001820160405280156200037e5781602001602082028038833980820191505090505b508152506003600060016010540381526020019081526020016000206000820151816000015560208201518160010160006101000a81548173ffffffffffffffffffffffffffffffffffffffff021916908373ffffffffffffffffffffffffffffffffffffffff1602179055506040820151816002019080519060200190620004099291906200044c565b506060820151816003019080519060200190620004289291906200044c565b509050505050505050505050508360158190555050505050505050505050620004c6565b8280548282559060005260206000209081019282156200048b579160200282015b828111156200048a5782518255916020019190600101906200046d565b5b5090506200049a91906200049e565b5090565b620004c391905b80821115620004bf576000816000905550600101620004a5565b5090565b90565b612e2c80620004d66000396000f300608060405260043610610204576000357c0100000000000000000000000000000000000000000000000000000000900463ffffffff168063106c6441146103e257806312aef8c314610448578063144fa6d714610473578063152713b3146104b65780631552cb04146104e15780631ae9fe6a146105475780631def6bad1461057257806322758a4a146105d35780632c2f93d51461062a5780632e1a7d4d146106855780633197cbb6146106b257806334f732e8146106dd57806338af3eed146107085780634423c5f11461075f5780634bb278f31461081e57806354c5b6961461083557806357f196fa146108605780635e7c85b11461088b578063655dd7d9146108e2578063694133bd14610a6e57806372a2fee014610a9957806375b4d78c14610b1b57806378e9792514610b4657806380999b7114610b715780638da5cb5b14610bd75780639b51fb0d14610c2e578063a79fb0c214610ca2578063aac1660314610ccd578063b196aabb14610cf8578063b3f05b9714610d23578063b821da1b14610d52578063bfdcc9a214610d7c578063c1f6004514610da7578063d09de08a14610e02578063db006a7514610e2d578063dc382cbf14610e5a578063ea9ad4a514610e85578063f0d6cc7014610f07578063f5e7f5d914610f32578063f98f5b9214610f98578063fc0c546a14610fdb578063ffbd26ce14611032575b600080341415801561021857506006544210155b8015610225575060095442105b15610279576102747ffffffffffffffffffffffffffffffffffffffffffffffffffffffffffffffffe7fffffffffffffffffffffffffffffffffffffffffffffffffffffffffffffffff611098565b6103df565b6000341480156102955750601160009054906101000a900460ff165b156103d957600090505b600460003373ffffffffffffffffffffffffffffffffffffffff1673ffffffffffffffffffffffffffffffffffffffff168152602001908152602001600020805490508110156103d45760026000600460003373ffffffffffffffffffffffffffffffffffffffff1673ffffffffffffffffffffffffffffffffffffffff1681526020019081526020016000208381548110151561033957fe5b9060005260206000200154815260200190815260200160002060040160159054906101000a900460ff1615156103c9576103c8600460003373ffffffffffffffffffffffffffffffffffffffff1673ffffffffffffffffffffffffffffffffffffffff168152602001908152602001600020828154811015156103b857fe5b906000526020600020015461116a565b5b80600101905061029f565b6103de565b600080fd5b5b50005b3480156103ee57600080fd5b50610446600480360381019080803590602001908201803590602001908080602002602001604051908101604052809392919081815260200183836020028082843782019150505050505091929192905050506113f8565b005b34801561045457600080fd5b5061045d6114e2565b6040518082815260200191505060405180910390f35b34801561047f57600080fd5b506104b4600480360381019080803573ffffffffffffffffffffffffffffffffffffffff1690602001909291905050506114e8565b005b3480156104c257600080fd5b506104cb6116e2565b6040518082815260200191505060405180910390f35b3480156104ed57600080fd5b50610545600480360381019080803590602001908201803590602001908080602002602001604051908101604052809392919081815260200183836020028082843782019150505050505091929192905050506116e8565b005b34801561055357600080fd5b5061055c6117d2565b6040518082815260200191505060405180910390f35b34801561057e57600080fd5b506105bd600480360381019080803573ffffffffffffffffffffffffffffffffffffffff169060200190929190803590602001909291905050506117d8565b6040518082815260200191505060405180910390f35b3480156105df57600080fd5b506105e8611808565b604051808273ffffffffffffffffffffffffffffffffffffffff1673ffffffffffffffffffffffffffffffffffffffff16815260200191505060405180910390f35b34801561063657600080fd5b5061066b600480360381019080803573ffffffffffffffffffffffffffffffffffffffff16906020019092919050505061182e565b604051808215151515815260200191505060405180910390f35b34801561069157600080fd5b506106b06004803603810190808035906020019092919050505061184e565b005b3480156106be57600080fd5b506106c7611a2b565b6040518082815260200191505060405180910390f35b3480156106e957600080fd5b506106f2611a31565b6040518082815260200191505060405180910390f35b34801561071457600080fd5b5061071d611a37565b604051808273ffffffffffffffffffffffffffffffffffffffff1673ffffffffffffffffffffffffffffffffffffffff16815260200191505060405180910390f35b34801561076b57600080fd5b5061078a60048036038101908080359060200190929190505050611a5d565b604051808c81526020018b81526020018a81526020018981526020018873ffffffffffffffffffffffffffffffffffffffff1673ffffffffffffffffffffffffffffffffffffffff1681526020018715151515815260200186151515158152602001851515151581526020018481526020018381526020018281526020019b50505050505050505050505060405180910390f35b34801561082a57600080fd5b50610833611afe565b005b34801561084157600080fd5b5061084a611ba2565b6040518082815260200191505060405180910390f35b34801561086c57600080fd5b50610875611ba8565b6040518082815260200191505060405180910390f35b34801561089757600080fd5b506108cc600480360381019080803573ffffffffffffffffffffffffffffffffffffffff169060200190929190505050611bae565b6040518082815260200191505060405180910390f35b3480156108ee57600080fd5b506108f7611c82565b60405180806020018060200180602001806020018060200186810386528b818151815260200191508051906020019060200280838360005b8381101561094a57808201518184015260208101905061092f565b5050505090500186810385528a818151815260200191508051906020019060200280838360005b8381101561098c578082015181840152602081019050610971565b50505050905001868103845289818151815260200191508051906020019060200280838360005b838110156109ce5780820151818401526020810190506109b3565b50505050905001868103835288818151815260200191508051906020019060200280838360005b83811015610a105780820151818401526020810190506109f5565b50505050905001868103825287818151815260200191508051906020019060200280838360005b83811015610a52578082015181840152602081019050610a37565b505050509050019a505050505050505050505060405180910390f35b348015610a7a57600080fd5b50610a83611e8f565b6040518082815260200191505060405180910390f35b348015610aa557600080fd5b50610ac460048036038101908080359060200190929190505050611e94565b6040518080602001828103825283818151815260200191508051906020019060200280838360005b83811015610b07578082015181840152602081019050610aec565b505050509050019250505060405180910390f35b348015610b2757600080fd5b50610b30611fb0565b6040518082815260200191505060405180910390f35b348015610b5257600080fd5b50610b5b611ff9565b6040518082815260200191505060405180910390f35b348015610b7d57600080fd5b50610bd560048036038101908080359060200190820180359060200190808060200260200160405190810160405280939291908181526020018383602002808284378201915050505050509192919290505050611fff565b005b348015610be357600080fd5b50610bec6120e9565b604051808273ffffffffffffffffffffffffffffffffffffffff1673ffffffffffffffffffffffffffffffffffffffff16815260200191505060405180910390f35b348015610c3a57600080fd5b50610c596004803603810190808035906020019092919050505061210e565b604051808381526020018273ffffffffffffffffffffffffffffffffffffffff1673ffffffffffffffffffffffffffffffffffffffff1681526020019250505060405180910390f35b348015610cae57600080fd5b50610cb7612152565b6040518082815260200191505060405180910390f35b348015610cd957600080fd5b50610ce2612158565b6040518082815260200191505060405180910390f35b348015610d0457600080fd5b50610d0d61215e565b6040518082815260200191505060405180910390f35b348015610d2f57600080fd5b50610d38612164565b604051808215151515815260200191505060405180910390f35b610d7a6004803603810190808035906020019092919080359060200190929190505050611098565b005b348015610d8857600080fd5b50610d91612177565b6040518082815260200191505060405180910390f35b348015610db357600080fd5b50610de8600480360381019080803573ffffffffffffffffffffffffffffffffffffffff16906020019092919050505061217d565b604051808215151515815260200191505060405180910390f35b348015610e0e57600080fd5b50610e1761219d565b6040518082815260200191505060405180910390f35b348015610e3957600080fd5b50610e586004803603810190808035906020019092919050505061116a565b005b348015610e6657600080fd5b50610e6f6121a3565b6040518082815260200191505060405180910390f35b348015610e9157600080fd5b50610eb0600480360381019080803590602001909291905050506121a9565b6040518080602001828103825283818151815260200191508051906020019060200280838360005b83811015610ef3578082015181840152602081019050610ed8565b505050509050019250505060405180910390f35b348015610f1357600080fd5b50610f1c6122c5565b6040518082815260200191505060405180910390f35b348015610f3e57600080fd5b50610f96600480360381019080803590602001908201803590602001908080602002602001604051908101604052809392919081815260200183836020028082843782019150505050505091929192905050506122cb565b005b348015610fa457600080fd5b50610fd9600480360381019080803573ffffffffffffffffffffffffffffffffffffffff169060200190929190505050612494565b005b348015610fe757600080fd5b50610ff0612533565b604051808273ffffffffffffffffffffffffffffffffffffffff1673ffffffffffffffffffffffffffffffffffffffff16815260200191505060405180910390f35b34801561103e57600080fd5b5061109660048036038101908080359060200190820180359060200190808060200260200160405190810160405280939291908181526020018383602002808284378201915050505050509192919290505050612559565b005b601760003373ffffffffffffffffffffffffffffffffffffffff1673ffffffffffffffffffffffffffffffffffffffff16815260200190815260200160002060009054906101000a900460ff16806111515750601660003373ffffffffffffffffffffffffffffffffffffffff1673ffffffffffffffffffffffffffffffffffffffff16815260200190815260200160002060009054906101000a900460ff168015611150575060155461114b33611bae565b340111155b5b151561115c57600080fd5b6111668282612643565b5050565b6000806002600084815260200190815260200160002091506002600060125481526020019081526020016000209050601160009054906101000a900460ff1615156111b457600080fd5b8160040160159054906101000a900460ff161515156111d257600080fd5b60018260040160156101000a81548160ff02191690831515021790555080600001548260000154118061121a57508060000154826000015414801561121957506012548310155b5b1561138357600a60009054906101000a900473ffffffffffffffffffffffffffffffffffffffff1673ffffffffffffffffffffffffffffffffffffffff1663a9059cbb8360040160009054906101000a900473ffffffffffffffffffffffffffffffffffffffff16601454633b9aca00866003015487600201540281151561129e57fe5b04866002015401600b54028115156112b257fe5b046040518363ffffffff167c0100000000000000000000000000000000000000000000000000000000028152600401808373ffffffffffffffffffffffffffffffffffffffff1673ffffffffffffffffffffffffffffffffffffffff16815260200182815260200192505050602060405180830381600087803b15801561133857600080fd5b505af115801561134c573d6000803e3d6000fd5b505050506040513d602081101561136257600080fd5b8101908080519060200190929190505050151561137e57600080fd5b6113f3565b8160040160009054906101000a900473ffffffffffffffffffffffffffffffffffffffff1673ffffffffffffffffffffffffffffffffffffffff166108fc83600201549081150290604051600060405180830381858888f193505050501580156113f1573d6000803e3d6000fd5b505b505050565b60003373ffffffffffffffffffffffffffffffffffffffff16601860009054906101000a900473ffffffffffffffffffffffffffffffffffffffff1673ffffffffffffffffffffffffffffffffffffffff1614151561145657600080fd5b600090505b81518110156114de57600060176000848481518110151561147857fe5b9060200190602002015173ffffffffffffffffffffffffffffffffffffffff1673ffffffffffffffffffffffffffffffffffffffff16815260200190815260200160002060006101000a81548160ff02191690831515021790555080600101905061145b565b5050565b600b5481565b3373ffffffffffffffffffffffffffffffffffffffff166000809054906101000a900473ffffffffffffffffffffffffffffffffffffffff1673ffffffffffffffffffffffffffffffffffffffff1614151561154357600080fd5b600073ffffffffffffffffffffffffffffffffffffffff16600a60009054906101000a900473ffffffffffffffffffffffffffffffffffffffff1673ffffffffffffffffffffffffffffffffffffffff161415156115a057600080fd5b80600a60006101000a81548173ffffffffffffffffffffffffffffffffffffffff021916908373ffffffffffffffffffffffffffffffffffffffff160217905550600a60009054906101000a900473ffffffffffffffffffffffffffffffffffffffff1673ffffffffffffffffffffffffffffffffffffffff166370a08231306040518263ffffffff167c0100000000000000000000000000000000000000000000000000000000028152600401808273ffffffffffffffffffffffffffffffffffffffff1673ffffffffffffffffffffffffffffffffffffffff168152602001915050602060405180830381600087803b15801561169e57600080fd5b505af11580156116b2573d6000803e3d6000fd5b505050506040513d60208110156116c857600080fd5b8101908080519060200190929190505050600b8190555050565b60145481565b60003373ffffffffffffffffffffffffffffffffffffffff16601860009054906101000a900473ffffffffffffffffffffffffffffffffffffffff1673ffffffffffffffffffffffffffffffffffffffff1614151561174657600080fd5b600090505b81518110156117ce57600160166000848481518110151561176857fe5b9060200190602002015173ffffffffffffffffffffffffffffffffffffffff1673ffffffffffffffffffffffffffffffffffffffff16815260200190815260200160002060006101000a81548160ff02191690831515021790555080600101905061174b565b5050565b60125481565b6004602052816000526040600020818154811015156117f357fe5b90600052602060002001600091509150505481565b601860009054906101000a900473ffffffffffffffffffffffffffffffffffffffff1681565b60166020528060005260406000206000915054906101000a900460ff1681565b6000806002600084815260200190815260200160002091508160040160009054906101000a900473ffffffffffffffffffffffffffffffffffffffff1673ffffffffffffffffffffffffffffffffffffffff163373ffffffffffffffffffffffffffffffffffffffff161415156118c457600080fd5b600854421015156118d457600080fd5b8160040160149054906101000a900460ff161515156118f257600080fd5b60018260040160146101000a81548160ff02191690831515021790555060008260040160166101000a81548160ff02191690831515021790555060075442106119565760075460085403426008540383600201540281151561195057fe5b0461195c565b81600201545b90508160020154811115151561196e57fe5b8082600201600082825403925050819055506003600283600301540281151561199357fe5b0482600301819055508060136000828254039250508190555080633b9aca00600202826003028460020154018460030154028115156119ce57fe5b04016014600082825403925050819055503373ffffffffffffffffffffffffffffffffffffffff166108fc829081150290604051600060405180830381858888f19350505050158015611a25573d6000803e3d6000fd5b50505050565b60095481565b60085481565b600160009054906101000a900473ffffffffffffffffffffffffffffffffffffffff1681565b60026020528060005260406000206000915090508060000154908060010154908060020154908060030154908060040160009054906101000a900473ffffffffffffffffffffffffffffffffffffffff16908060040160149054906101000a900460ff16908060040160159054906101000a900460ff16908060040160169054906101000a900460ff1690806005015490806006015490806007015490508b565b6009544210151515611b0f57600080fd5b601160009054906101000a900460ff16151515611b2b57600080fd5b6001601160006101000a81548160ff021916908315150217905550600160009054906101000a900473ffffffffffffffffffffffffffffffffffffffff1673ffffffffffffffffffffffffffffffffffffffff166108fc6013549081150290604051600060405180830381858888f1935050505050565b600c5481565b60055481565b600080600090505b600460008473ffffffffffffffffffffffffffffffffffffffff1673ffffffffffffffffffffffffffffffffffffffff16815260200190815260200160002080549050811015611c7c5760026000600460008673ffffffffffffffffffffffffffffffffffffffff1673ffffffffffffffffffffffffffffffffffffffff16815260200190815260200160002083815481101515611c5057fe5b906000526020600020015481526020019081526020016000206002015482019150806001019050611bb6565b50919050565b606080606080606080606080606080600080600554604051908082528060200260200182016040528015611cc55781602001602082028038833980820191505090505b509650600554604051908082528060200260200182016040528015611cf95781602001602082028038833980820191505090505b509550600554604051908082528060200260200182016040528015611d2d5781602001602082028038833980820191505090505b509450600554604051908082528060200260200182016040528015611d615781602001602082028038833980820191505090505b509350600554604051908082528060200260200182016040528015611d955781602001602082028038833980820191505090505b50925060009150600091505b600554821015611e725760026000838152602001908152602001600020905080600001548783815181101515611dd357fe5b906020019060200201818152505080600101548683815181101515611df457fe5b906020019060200201818152505080600201548583815181101515611e1557fe5b906020019060200201818152505080600301548483815181101515611e3657fe5b906020019060200201818152505080600701548383815181101515611e5757fe5b90602001906020020181815250508180600101925050611da1565b86868686869b509b509b509b509b50505050505050509091929394565b60c881565b6060600080600360008581526020019081526020016000209150600073ffffffffffffffffffffffffffffffffffffffff168260010160009054906101000a900473ffffffffffffffffffffffffffffffffffffffff1673ffffffffffffffffffffffffffffffffffffffff161415611f0f57829250611fa9565b8160020180549050604051908082528060200260200182016040528015611f455781602001602082028038833980820191505090505b50925060009050600090505b8160020180549050811015611fa5578160020181815481101515611f7157fe5b90600052602060002001548382815181101515611f8a57fe5b90602001906020020181815250508080600101915050611f51565b8292505b5050919050565b6000600754421015611fc657600c549050611ff6565b600954421115611fd95760009050611ff6565b600754600954034260095403600c5402811515611ff257fe5b0490505b90565b60065481565b60003373ffffffffffffffffffffffffffffffffffffffff16601860009054906101000a900473ffffffffffffffffffffffffffffffffffffffff1673ffffffffffffffffffffffffffffffffffffffff1614151561205d57600080fd5b600090505b81518110156120e557600060166000848481518110151561207f57fe5b9060200190602002015173ffffffffffffffffffffffffffffffffffffffff1673ffffffffffffffffffffffffffffffffffffffff16815260200190815260200160002060006101000a81548160ff021916908315150217905550806001019050612062565b5050565b6000809054906101000a900473ffffffffffffffffffffffffffffffffffffffff1681565b60036020528060005260406000206000915090508060000154908060010160009054906101000a900473ffffffffffffffffffffffffffffffffffffffff16905082565b600e5481565b600d5481565b60155481565b601160009054906101000a900460ff1681565b60105481565b60176020528060005260406000206000915054906101000a900460ff1681565b600f5481565b60135481565b6060600080600360008581526020019081526020016000209150600073ffffffffffffffffffffffffffffffffffffffff168260010160009054906101000a900473ffffffffffffffffffffffffffffffffffffffff1673ffffffffffffffffffffffffffffffffffffffff161415612224578292506122be565b816003018054905060405190808252806020026020018201604052801561225a5781602001602082028038833980820191505090505b50925060009050600090505b81600301805490508110156122ba57816003018181548110151561228657fe5b9060005260206000200154838281518110151561229f57fe5b90602001906020020181815250508080600101915050612266565b8292505b5050919050565b60075481565b6000806000806013549350601454925060009150600260008081526020019081526020016000209050600091505b845182101561236a5760026000868481518110151561231457fe5b90602001906020020151815260200190815260200160002090508060040160169054906101000a900460ff16156123535780600201548403935061235d565b8060020154840193505b81806001019250506122f9565b600091505b84518210156124115760026000868481518110151561238a57fe5b90602001906020020151815260200190815260200160002090508060040160169054906101000a900460ff16156123e05780600001548411806123d05750806001015484105b15156123db57600080fd5b612404565b806000015484111580156123f8575080600101548410155b151561240357600080fd5b5b818060010192505061236f565b600091505b84518210156124865760026000868481518110151561243157fe5b90602001906020020151815260200190815260200160002090508060040160169054906101000a900460ff16158160040160166101000a81548160ff0219169083151502179055508180600101925050612416565b836013819055505050505050565b3373ffffffffffffffffffffffffffffffffffffffff166000809054906101000a900473ffffffffffffffffffffffffffffffffffffffff1673ffffffffffffffffffffffffffffffffffffffff161415156124ef57600080fd5b80601860006101000a81548173ffffffffffffffffffffffffffffffffffffffff021916908373ffffffffffffffffffffffffffffffffffffffff16021790555050565b600a60009054906101000a900473ffffffffffffffffffffffffffffffffffffffff1681565b60003373ffffffffffffffffffffffffffffffffffffffff16601860009054906101000a900473ffffffffffffffffffffffffffffffffffffffff1673ffffffffffffffffffffffffffffffffffffffff161415156125b757600080fd5b600090505b815181101561263f5760016017600084848151811015156125d957fe5b9060200190602002015173ffffffffffffffffffffffffffffffffffffffff1673ffffffffffffffffffffffffffffffffffffffff16815260200190815260200160002060006101000a81548160ff0219169083151502179055508060010190506125bc565b5050565b600080600080600654421015801561265c575060095442105b151561266757600080fd5b600d54861015801561267857508486115b151561268357600080fd5b6000600f54600d54880381151561269657fe5b061415156126a357600080fd5b6000600f54600d5487038115156126b657fe5b061415156126c357600080fd5b600f54600d5486038115156126d457fe5b049350600f54600d5487038115156126e857fe5b049250600073ffffffffffffffffffffffffffffffffffffffff166003600086815260200190815260200160002060010160009054906101000a900473ffffffffffffffffffffffffffffffffffffffff1673ffffffffffffffffffffffffffffffffffffffff161415612890576080604051908101604052808681526020013373ffffffffffffffffffffffffffffffffffffffff16815260200160006040519080825280602002602001820160405280156127b45781602001602082028038833980820191505090505b50815260200160006040519080825280602002602001820160405280156127ea5781602001602082028038833980820191505090505b50815250600360008681526020019081526020016000206000820151816000015560208201518160010160006101000a81548173ffffffffffffffffffffffffffffffffffffffff021916908373ffffffffffffffffffffffffffffffffffffffff160217905550604082015181600201908051906020019061286e929190612d8e565b50606082015181600301908051906020019061288b929190612d8e565b509050505b600073ffffffffffffffffffffffffffffffffffffffff166003600085815260200190815260200160002060010160009054906101000a900473ffffffffffffffffffffffffffffffffffffffff1673ffffffffffffffffffffffffffffffffffffffff161415612a35576080604051908101604052808781526020013373ffffffffffffffffffffffffffffffffffffffff16815260200160006040519080825280602002602001820160405280156129595781602001602082028038833980820191505090505b508152602001600060405190808252806020026020018201604052801561298f5781602001602082028038833980820191505090505b50815250600360008581526020019081526020016000206000820151816000015560208201518160010160006101000a81548173ffffffffffffffffffffffffffffffffffffffff021916908373ffffffffffffffffffffffffffffffffffffffff1602179055506040820151816002019080519060200190612a13929190612d8e565b506060820151816003019080519060200190612a30929190612d8e565b509050505b6003600084815260200190815260200160002091506005600081546001019190508190555061016060405190810160405280878152602001868152602001348152602001612a81611fb0565b81526020013373ffffffffffffffffffffffffffffffffffffffff1681526020016000151581526020016000151581526020018734601354011180612ac95750863460135401105b612ad4576001612ad7565b60005b15158152602001858152602001848152602001438152506002600060055481526020019081526020016000206000820151816000015560208201518160010155604082015181600201556060820151816003015560808201518160040160006101000a81548173ffffffffffffffffffffffffffffffffffffffff021916908373ffffffffffffffffffffffffffffffffffffffff16021790555060a08201518160040160146101000a81548160ff02191690831515021790555060c08201518160040160156101000a81548160ff02191690831515021790555060e08201518160040160166101000a81548160ff02191690831515021790555061010082015181600501556101208201518160060155610140820151816007015590505060026000600554815260200190815260200160002090508060020154601360008282540192505081905550633b9aca008160030154826002015402811515612c3a57fe5b04816002015401601460008282540192505081905550600360008481526020019081526020016000206002016005549080600181540180825580915050906001820390600052602060002001600090919290919091505550600360008581526020019081526020016000206003016005549080600181540180825580915050906001820390600052602060002001600090919290919091505550600460003373ffffffffffffffffffffffffffffffffffffffff1673ffffffffffffffffffffffffffffffffffffffff1681526020019081526020016000206005549080600181540180825580915050906001820390600052602060002001600090919290919091505550426005543373ffffffffffffffffffffffffffffffffffffffff167f84bee513033536a8de8a8260e2674a4a3eebd61ddce74615fdeca8a1499f5efe60405160405180910390a4505050505050565b828054828255906000526020600020908101928215612dca579160200282015b82811115612dc9578251825591602001919060010190612dae565b5b509050612dd79190612ddb565b5090565b612dfd91905b80821115612df9576000816000905550600101612de1565b5090565b905600a165627a7a72305820395600635b890802c3f69be693cbd217390449fd2199c61a268b00f836c4566f0029",
  "source": "/** @title Level Whitelisted Interactive Coin Offering\n *  @author Clment Lesaege - <clement@lesaege.com>\n */\n\npragma solidity ^0.4.23;\n\nimport \"./IICO.sol\";\n\n/** @title Level Whitelisted Interactive Coin Offering\n *  This contract implements an Interactive Coin Offering with two whitelists:\n *  - The base one, with limited contribution.\n *  - The reinforced one, with unlimited contribution.\n */\ncontract LevelWhitelistedIICO is IICO {\n    \n    uint public maximumBaseContribution;\n    mapping (address => bool) public baseWhitelist; // True if in the base whitelist (has a contribution limit).\n    mapping (address => bool) public reinforcedWhitelist; // True if in the reinforced whitelist (does not have a contribution limit).\n    address public whitelister; // The party which can add or remove people from the whitelist.\n    \n    modifier onlyWhitelister{ require(whitelister == msg.sender); _; }\n    \n    /** @dev Constructor. First contract set up (tokens will also need to be transferred to the contract and then setToken needs to be called to finish the setup).\n     *  @param _startTime Time the sale will start in seconds since the Unix Epoch.\n     *  @param _fullBonusLength Amount of seconds the sale lasts in the full bonus period.\n     *  @param _partialWithdrawalLength Amount of seconds the sale lasts in the partial withdrawal period.\n     *  @param _withdrawalLockUpLength Amount of seconds the sale lasts in the withdrawal lockup period.\n     *  @param _maxBonus The maximum bonus. Will be normalized by BONUS_DIVISOR. For example for a 20% bonus, _maxBonus must be 0.2 * BONUS_DIVISOR.\n     *  @param _beneficiary The party which will get the funds of the token sale.\n     *  @param _maximumBaseContribution The maximum contribution for buyers on the base list.\n     */\n    function LevelWhitelistedIICO(uint _startTime, uint _fullBonusLength, uint _partialWithdrawalLength, uint _withdrawalLockUpLength, uint _maxBonus, address _beneficiary, uint _maximumBaseContribution, uint _minValuation, uint _maxValuation, uint _increment) IICO(_startTime,_fullBonusLength,_partialWithdrawalLength,_withdrawalLockUpLength,_maxBonus,_beneficiary,_minValuation,_maxValuation,_increment) public {\n        maximumBaseContribution=_maximumBaseContribution;\n    }\n    \n    /** @dev Submit a bid. The caller must give the exact position the bid must be inserted into in the list.\n     *  In practice, use searchAndBid to avoid the position being incorrect due to a new bid being inserted and changing the position the bid must be inserted at.\n     *  @param _maxValuation The maximum valuation given by the contributor. If the amount raised is higher, the bid is cancelled and the contributor refunded because it prefers a refund instead of this level of dilution. To buy no matter what, use INFINITY.\n     *  @param _next The bidID of the next bid in the list.\n     */\n    function submitBid(uint _maxValuation, uint _next) public payable {\n        require(reinforcedWhitelist[msg.sender] || (baseWhitelist[msg.sender] && (msg.value + totalContrib(msg.sender) <= maximumBaseContribution))); // Check if the buyer is in the reinforced whitelist or if it is on the base one and this would not make its total contribution exceed the limit.\n        super.submitBid(_maxValuation,_next);\n    }\n    \n    /** @dev Set the whitelister.\n     *  @param _whitelister The whitelister.\n     */\n    function setWhitelister(address _whitelister) public onlyOwner {\n        whitelister=_whitelister;\n    }\n    \n    /** @dev Add buyers to the base whitelist.\n     *  @param _buyersToWhitelist Buyers to add to the whitelist.\n     */\n    function addBaseWhitelist(address[] _buyersToWhitelist) public onlyWhitelister {\n        for(uint i=0;i<_buyersToWhitelist.length;++i)\n            baseWhitelist[_buyersToWhitelist[i]]=true;\n    }\n    \n    /** @dev Add buyers to the reinforced whitelist.\n     *  @param _buyersToWhitelist Buyers to add to the whitelist.\n     */\n    function addReinforcedWhitelist(address[] _buyersToWhitelist) public onlyWhitelister {\n        for(uint i=0;i<_buyersToWhitelist.length;++i)\n            reinforcedWhitelist[_buyersToWhitelist[i]]=true;\n    }\n    \n    /** @dev Remove buyers from the base whitelist.\n     *  @param _buyersToRemove Buyers to remove from the whitelist.\n     */\n    function removeBaseWhitelist(address[] _buyersToRemove) public onlyWhitelister {\n        for(uint i=0;i<_buyersToRemove.length;++i)\n            baseWhitelist[_buyersToRemove[i]]=false;\n    }\n    \n    /** @dev Remove buyers from the reinforced whitelist.\n     *  @param _buyersToRemove Buyers to remove from the whitelist.\n     */\n    function removeReinforcedWhitelist(address[] _buyersToRemove) public onlyWhitelister {\n        for(uint i=0;i<_buyersToRemove.length;++i)\n            reinforcedWhitelist[_buyersToRemove[i]]=false;\n    }\n\n}\n",
  "sourcePath": "/home/surya/projects/truebit/interactive-coin-offerings/truebit-implementation/contracts/LevelWhitelistedIICO.sol",
  "compiler": {
    "name": "solc",
    "version": "0.4.24+commit.e67f0147.Emscripten.clang"
  },
  "schemaVersion": "2.0.1",
  "updatedAt": "2019-02-05T16:09:19.236Z"
}